:020000040800F2
:10000000600B0020C901000881230008D51A0008F0
:10001000552300087D0F00085B3600080000000033
:10002000000000000000000000000000C12C0008DB
:100030009115000800000000DD270008AD2D000824
:10004000E3010008E3010008E3010008E301000800
:10005000E3010008E3010008E3010008E3010008F0
:10006000E3010008E3010008E3010008E3010008E0
:10007000E3010008E3010008E3010008E3010008D0
:10008000E3010008E3010008E3010008E3010008C0
:10009000E3010008E3010008E3010008E3010008B0
:1000A000E3010008E3010008E3010008E3010008A0
:1000B000852E0008A12F0008E3010008E3010008D5
:1000C000E3010008E3010008E3010008E301000880
:1000D000E301000875350008E3010008E3010008AA
:1000E000E3010008E3010008E301000800F002F862
:1000F00000F05AF80AA090E8000C82448344AAF168
:100100000107DA4501D100F04FF8AFF2090EBAE865
:100110000F0013F0010F18BFFB1A43F0010318473B
:1001200020550000405500000A444FF0000C10F824
:10013000013B13F0070408BF10F8014B1D1108BF65
:1001400010F8015B641E05D010F8016B641E01F805
:10015000016BF9D113F0080F1EBF10F8014BAD1C55
:100160000C1B09D16D1E58BF01F801CBFAD505E073
:1001700014F8016B01F8016B6D1EF9D59142D6D3CD
:10018000704700000023002400250026103A28BFF5
:1001900078C1FBD8520728BF30C148BF0B607047F9
:1001A0001FB51FBD10B510BD00F046F81146FFF792
:1001B000F7FF03F05FFF00F064F803B4FFF7F2FF0E
:1001C00003BC03F0FFFA00000948804709480047D4
:1001D000FEE7FEE7FEE7FEE7FEE7FEE7FEE7FEE7F7
:1001E000FEE7FEE704480549054A064B7047000054
:1001F000BD2D0008ED00000860050020600B002008
:100200006007002060070020704770477047704704
:10021000704710B500F008F8006810BD10B504462E
:1002200000F002F8046010BD00487047000500208F
:1002300000487047000500207546FFF7F9FFAE46FD
:1002400005006946534620F00700854618B020B5E2
:10025000FFF7C8FFBDE820404FF000064FF0000751
:100260004FF000084FF0000B21F00701AC46ACE85E
:10027000C009ACE8C009ACE8C009ACE8C0098D46CB
:10028000704710B50446AFF300802046BDE810402B
:10029000FFF793BF2DE9F047002400250026C8276B
:1002A00000201C49488200211A488182C1820DE049
:1002B00001F0DAFE1748B0F9000004441548B0F91F
:1002C000020005441348B0F904000644381EA7F1A3
:1002D00001018FB2ECD1C82094FBF0F000B20D49BF
:1002E0004882C82095FBF0F001B20A488182C820FC
:1002F00096FBF0FA504604F0E5FE8146064905F00B
:1003000035F8804604F0C2FE01B20248C182BDE861
:10031000F0870000EC020020C2877A460FB5A5B036
:1003200000202390FE480168006804F017FFFD4993
:100330000860FD480168FA48006804F00FFFFB49B7
:100340000860FB480168F648006804F007FFF949B7
:100350000860F9480168F248006804F0FFFEF749B8
:100360000860F1480168006804F0F8FEF44908608C
:10037000EF480168EC48006804F0F0FEF1490860BD
:10038000ED480168E848006804F0E8FEEE490860BE
:10039000E7480168006804F0E1FEEC490860E648BF
:1003A0000168E348006804F0D9FEE9490860E248C2
:1003B0000168006804F0D2FEE64908602A9928988E
:1003C00004F0CCFE12902B9904F0C8FE002113908B
:1003D00004F028FE01D129B000BDDDE92C0104F0B4
:1003E000BDFE12902E9904F0B9FE0021139004F086
:1003F00019FE00D1EFE72B99084604F0AFFE1290EA
:100400002A99084604F0AAFE10902899084604F09C
:10041000A5FE0F90109904F0D5FC1190129904F0EC
:10042000D1FC139002F0DCF922902299289804F074
:1004300095FE289022992A9804F090FE2A902299FD
:100440002B9804F08BFE2B902E99084604F086FE24
:1004500012902D99084604F081FE10902C990846C0
:1004600004F07CFE0F90109904F0ACFC11901299EE
:1004700004F0A8FC139002F0B3F9229022992C9872
:1004800004F06CFE2C9022992D9804F067FE2D90BC
:1004900022992E9804F062FE2E90A6480168AA4880
:1004A000006804F08FFC0C904FF080402E9904F00F
:1004B00055FE0B900C9904F051FE0D9004F056FC83
:1004C000CDE910019D4801689E48006804F04EFF88
:1004D00008904FF080402D9904F040FE0790089955
:1004E00004F03CFE099004F041FCCDE90C01994870
:1004F000006804F03BFCCDE904019448006804F076
:1005000035FC0022944BCDE9000104F053FACDE90B
:100510000201DDE9042304F03FFBCDE908014FF0BF
:1005200080402C9904F01AFE059004F01FFCCDE9E0
:100530000601DDE9082304F03FF9CDE90A01DDE910
:100540000C2303F0EBFECDE90E01DDE9102303F0EF
:10055000E5FECDE9120103F0AFFE2190734801687A
:100560007B48006804F002FF0C904FF080402E9909
:1005700004F0F4FD0B900C9904F0F0FD0D9004F0E4
:10058000F5FBCDE910017348006804F0EFFBCDE9FD
:1005900004016B48006804F0E9FB00226E4BCDE9D2
:1005A000000104F007FACDE90201DDE9042304F0BB
:1005B000F3FACDE908014FF080402D9904F0CEFD0B
:1005C000059004F0D3FBCDE90601DDE9082304F032
:1005D000F3F8CDE90C01594801685A48006804F065
:1005E000F1FB08904FF080402C9904F0B7FD079084
:1005F000089904F0B3FD099004F0B8FBCDE90A01B5
:10060000DDE90C2303F08AFECDE90E01DDE91023BC
:1006100003F084FECDE9120103F04EFE20904B481A
:10062000006804F0A3FBCDE908014548006804F028
:100630009DFB0022484BCDE9040104F0BBF9CDE954
:100640000601DDE9082304F0A7FACDE90C014FF01B
:1006500080402E9904F082FD099004F087FBCDE9DB
:100660000A01DDE90C2304F0A7F8CDE910012F48B9
:1006700001683748006804F0A5FB0A904FF08040FD
:100680002D9904F06BFD09900A9904F067FD0C9018
:10069000284801682C48006804F068FE0A904FF072
:1006A00080402C9904F05AFD09900A9904F056FDF7
:1006B0000B900C9904F086FB0D9004F057FBCDE9EC
:1006C0000E01DDE9102303F029FECDE9120103F04C
:1006D000F3FD1F902099084604F040FD0E902199EB
:1006E000084604F03BFD0D900E9904F06BFB0F9053
:1006F00004F03CFBCDE9100103F0B8FDCDE9120197
:1007000003F0DAFD1E901F981D900A4801680E48FC
:10071000006804F02BFE4FF0804113901EE00000B3
:100720002401002040010020280100204401002075
:100730002C01002048010020300100204C01002045
:100740005001002054010020580100205C010020CD
:1007500060010020640100200000E03F04F0FEFC86
:100760001990FE480168FE48006804F02BFB4FF02A
:100770008041139004F0F2FC1890FA480168FA489E
:10078000006804F0F3FD1290F8480168129804F034
:10079000EDFD1390F6480168139804F013FB1790D1
:1007A000F4480168F448006804F0E0FD0C904FF054
:1007B00080401D9904F0D2FC0B900C9904F0CEFC03
:1007C0000D9004F0D3FACDE91001E948006804F077
:1007D000CDFACDE90801E548006804F0C7FA002227
:1007E000E64BCDE9040104F0E5F8CDE90601DDE9C9
:1007F000082304F0D1F9CDE90C014FF080401E9997
:1008000004F0ACFC099004F0B1FACDE90A01DDE98D
:100810000C2303F0D1FFCDE90E01DDE9102303F035
:100820007DFDCDE9120103F047FD1C90CB48016826
:10083000CB48006804F0C6FA11904FF080401D9933
:1008400004F08CFC1090119904F088FC1390CC48B3
:100850000168CC48006804F089FD11904FF0804099
:100860001E9904F07BFC1090119904F077FC129013
:10087000139904F0A7FA1B90BC48006804F076FABC
:10088000CDE90801B748006804F070FA0022BB4BBC
:10089000CDE9040104F08EF8CDE90601DDE9082375
:1008A00004F07AF9CDE90C014FF080401D9904F075
:1008B00055FC099004F05AFACDE90A01DDE90C2350
:1008C00003F07AFFCDE91001AB480168A948006840
:1008D00004F078FA0C904FF080401E9904F03EFC32
:1008E0000B900C9904F03AFC0D9004F03FFACDE91E
:1008F0000E01DDE9102303F011FDCDE9120103F033
:10090000DBFC1A901B992E9804F028FC11901A9980
:100910002D9804F023FC1090119904F027FD1390FA
:1009200018992B9804F01AFC119017992A9804F042
:1009300015FC1090119904F019FD1290139904F010
:1009400041FA16901A992C9804F008FC11901C9901
:100950002E9804F003FC1090119904F007FD1390F9
:100960001799289804F0FAFB119019992B9804F024
:10097000F5FB1090119904F0F9FC1290139904F012
:1009800021FA15901C992D9804F0E8FB11901B9901
:100990002C9804F0E3FB1090119904F0E7FC1390FD
:1009A00019992A9804F0DAFB11901899289804F004
:1009B000D5FB1090119904F0D9FC1290139904F012
:1009C00001FA1490169802F04BFE6F49119004F052
:1009D000C5FB1290169904F0C1FB13906B48016897
:1009E000139804F0EFF969490860159802F038FE91
:1009F0006549119004F0B2FB1290159904F0AEFB1A
:100A0000139063480168139804F0DCF960490860AA
:100A1000149802F025FE5C49119004F09FFB12909F
:100A2000149904F09BFB13905A480168139804F042
:100A3000C9F958490860169802F012FE56491090FC
:100A400004F08CFB1190169904F088FB1290259904
:100A500004F0B8F913904D480168139804F0B2F906
:100A60002590159802F0FCFD4B49109004F076FBA0
:100A70001190159904F072FB1290269904F0A2F9D6
:100A8000139043480168139804F09CF92690149839
:100A900002F0E6FD4049109004F060FB11901499BB
:100AA00004F05CFB1290279904F08CF913903948FC
:100AB0000168139804F086F9279038482799006850
:100AC00004F04CFB119036482699006804F046FB70
:100AD0000F903448006880F000400D90259904F094
:100AE0003DFB0E900F9904F041FC1090119904F019
:100AF0003DFC2D49129004F031FB13902B48016806
:100B0000139804F05FF92949086024482699006881
:100B100004F024FB119022482799006804F01EFB82
:100B20000F9022480168259804F018FB0E900F9949
:100B300004F048F91090119904F018FC1A49129029
:100B400004F00CFB139017480168139804F03AF96D
:100B50001449086011480168259829E060010020C7
:100B60004401002050010020400100205C010020D1
:100B70006401002048010020580100200000E03FEF
:100B80004C010020540100206F12033C340100206E
:100B9000380100203C0100200000204130010020ED
:100BA0002C010020280100200AD7A33B24010020AB
:100BB00004F0D4FA1190DD482799006804F0CEFAC9
:100BC0000F90DB482699006804F0C8FA0E900F9940
:100BD00004F0CCFB1090119904F0F4F8D549129070
:100BE00004F0BCFA1390D4480168139804F0EAF8B2
:100BF000D149086008460168259804F0AFFA1190C1
:100C0000CA482699006804F0A9FA0F90C8482799A5
:100C1000006804F0A3FA0E900F9904F0D3F8109036
:100C2000119904F0A3FBC349129004F097FA1390B2
:100C3000C2480168139804F0C5F8C0490860C0486C
:100C40000168C048006804F0BDF81190BE48016812
:100C5000119804F0B7F81290BC480168129804F09B
:100C6000B1F8139001F0BCFD2290B14822990068C0
:100C700004F074FAAE490860AC482299006804F0A8
:100C80006DFAAA490860AC482299006804F066FA37
:100C9000A9490860A9482299006804F05FFAA749A9
:100CA0000860AB4801684FF0804004F057FA0C90A0
:100CB000A84801684FF0404004F050FA0B900C999E
:100CC00004F080F80D9004F051F8CDE90E0102F027
:100CD0007DFDA14AA14BCDE9100103F06DFDCDE9E9
:100CE000120103F0E9FA9E490860974801684FF045
:100CF000804004F033FA0990914801684FF0404079
:100D000004F02CFA0890099904F030FB4FF07E5162
:100D10000A9004F057F80B9004F028F8CDE90E0182
:100D2000904801684FF0804004F018FA0A908E480D
:100D300001684FF0804004F011FA09900A9904F01C
:100D400041F80B9004F012F8CDE90C01DDE90E2317
:100D500002F084FF804A814BCDE9100103F02CFDA5
:100D6000CDE9120103F0A8FA7D494860774801688F
:100D70004FF0804004F0F2F90990734801684FF099
:100D8000404004F0EBF90890099904F0EFFA4FF0B5
:100D90007E510A9004F016F80B9003F0E7FFCDE9BE
:100DA0000E01724801684FF0804004F0D7F90A90B4
:100DB0006F4801684FF0804004F0D0F909900A991B
:100DC00004F000F80B9003F0D1FFCDE90C01DDE950
:100DD0000E2302F043FF604A604BCDE9100103F09F
:100DE000EBFCCDE9120103F067FA5D4988605448D5
:100DF00001685448006803F0E5FF1290524801680A
:100E0000129804F0B3FA139050480168139804F054
:100E1000ADFA58490860554801685548006803F024
:100E2000D1FF4FF08041139004F098F95149486088
:100E3000474801684748006804F098FA4FF080413D
:100E4000139004F08BF94B49886048480168484882
:100E5000006804F08BFA4FF08041139004F07EF9A3
:100E60004449C860364801683648006804F07EFA94
:100E7000129035480168129803F0A4FF139033488C
:100E80000168139804F072FA3A490861354801681C
:100E90003548006803F096FF4FF08041139004F04E
:100EA0005DF9344948612A4801682A48006803F01E
:100EB00089FF4FF08041139004F050F92D4988616B
:100EC000284801682848006804F050FA4FF0804133
:100ED000139004F043F92749C8611948016819487B
:100EE000006804F043FA129017480168129804F061
:100EF0003DFA139015480168139803F063FF1D49EC
:100F00000862002023900AE01A49239851F8201023
:100F1000194A42F820102398401CC0B2239023980D
:100F20000928F1DB00BFFFF756BA000028010020B6
:100F3000240100200AD7A33B2C010020300100200F
:100F400050010020400100205C01002064010020CD
:100F5000480100205801002031B3CF6394A94C40D0
:100F60005803002044010020600100204C010020B3
:100F700054010020000100206403002000BFFEE7B0
:100F800007B586B0FE48006801460590069804F053
:100F9000EDF9FC490860FA48806F01460590079812
:100FA00004F0E4F9F8490860F548D0F8F00001468B
:100FB0000590089804F0DAF9F4490860F04880696F
:100FC0000590F0480168059803F0FCFEEC49886143
:100FD0000846D0F890000590EB480168059803F0AA
:100FE000F1FEE749C1F890000846C069059008463F
:100FF00080690490059904F07DF904D2E048C06945
:10100000DF49886112E0DE48C06980F00040059049
:10101000DB48806901460490059804F06BF905D21D
:10102000D748C06980F00040D5498861D848C06C75
:101030000390D348806A0290039904F08FF80590DA
:10104000CF4880690190CE48406A0090019904F031
:1010500085F80390CA48006A0190CA48016801985F
:1010600004F07CF80290039903F0ACFE049005991B
:1010700003F0A8FEC2498863C24800688860084639
:10108000D0F8940005900846D0F890000490059997
:1010900004F030F905D2BA48D0F89410C0F8901096
:1010A00016E0B748D0F8940080F000400590B448AE
:1010B000D0F8900001460490059804F01BF907D27F
:1010C000AF48D0F8940080F00041AD48C0F89010CF
:1010D000AF48806C0390AA48D0F8A0000290039912
:1010E00004F03CF80590A648D0F890000190A44880
:1010F000D0F89C000090019904F030F80390A048CB
:10110000D0F898000190A0480168019804F026F8F2
:101110000290039903F056FE0490059903F052FEE5
:101120009749C1F8B000984801689548C0F8801008
:10113000D0F81001059095480168059804F00EF864
:101140008F49C1F828010846D0F8B40004909048AF
:10115000806C0390049904F009F905908848D0F850
:10116000CC0001460490059803F02CFE014684480B
:10117000C0F8CC10D0F8D00005908148D0F8CC0051
:101180000490059904F0B6F805D27D48D0F8D01047
:10119000C0F8CC1016E07A48D0F8D00080F00040BB
:1011A00005907748D0F8CC0001460490059804F0EB
:1011B000A1F807D27248D0F8D00080F00041704802
:1011C000C0F8CC106E48C06B04907148C06C03909E
:1011D000049904F0CBF805906948406D01460490ED
:1011E000059803F0EFFD664948650846806D059057
:1011F0000846406D0490059904F07CF803D26048DD
:10120000816D416512E05E48806D80F00040059080
:101210005B48406D01460490059804F06BF805D2D8
:101220005748806D80F00041554841655448D0F8DA
:10123000B40003905648806C0290039904F096F82D
:1012400004904F48D0F8D40001460390049803F06E
:1012500085FF05904A48D0F8B000014604900598F3
:1012600003F0B0FD01464648C0F8E010D0F8CC00CD
:1012700005904348D0F8D8000490059903F06EFF1C
:1012800001463F48C0F8E4104148B0F93C000390E3
:1012900003F018FF04903E48806C014603900498C8
:1012A00004F059F805903648D0F8DC000146049067
:1012B000059803F053FF01463148C0F8E810C06BB1
:1012C00003903348C06C0290039904F04FF80490E7
:1012D0002B48C06D01460390049803F03FFF059032
:1012E0002748806B01460490059803F06BFD244964
:1012F00088660846406D05900846006E0490059982
:1013000003F02CFF1E49C8662148B0F93E00039047
:1013100003F0D8FE04901E48C06C01460390049868
:1013200004F019F805901648406E0146049005989F
:1013300003F014FF124908671548006D0490084631
:10134000D0F828010390049903F03CFD05900C4867
:10135000D0F84C0101460490059803F0FFFE0146C9
:101360000748C0F858110A48B0F94000039003F04C
:10137000A9FE04900648006D01460390049809E018
:1013800088030020700100207401002078010020F3
:10139000EC02002003F0DFFF05907948D0F85401FB
:1013A00001460490059803F0D9FE01467448C0F840
:1013B00060117448806C059003F068FE01B27148BA
:1013C0008187C06C059003F061FE01B26D48C18752
:1013D000006D059003F05AFE01B26A48A0F8401073
:1013E0006748D0F8E40004906548D0F8E000039026
:1013F000049903F0E7FC05906148D0F8E800014645
:101400000490059803F0DEFC01465D48C0F8EC103E
:10141000C06E04905A48806E0390049903F0D2FC89
:1014200005905748006F01460490059803F0CAFCE8
:10143000534948670846D0F85C0104900846D0F844
:1014400058010390049903F0BDFC05904C48D0F876
:10145000600101460490059803F0B4FC0146484839
:10146000C0F864114848006803F02CFE029044481C
:10147000406F01460190029803F0A4FC039040489D
:10148000D0F8EC0001460290039803F09BFC049016
:101490003B48D0F8640101460390049803F066FFCE
:1014A000059003F0F3FD394908603748006803F000
:1014B00009FE02903248406F01460190029803F005
:1014C00081FC03902E48D0F8EC000146029003986E
:1014D00003F04CFF04902A48D0F8640101460390C1
:1014E000049803F06FFC059003F0D0FD2749486095
:1014F0002548006803F0E6FD02902148406F014650
:101500000190029803F032FF03901D48D0F8EC00E0
:1015100001460290039803F029FF04901848D0F880
:10152000640101460390049803F020FF059003F046
:10153000ADFD164988601448006803F0C3FD0290B1
:101540000F48406F01460190029803F00FFF03908F
:101550000B48D0F8EC0001460290039803F032FCEF
:1015600004900748D0F8640101460390049803F002
:1015700029FC059003F08AFD0449C86009B000BD4C
:1015800088030020EC0200206C010020F004002001
:10159000704710B504460021204603F0ABFD02D28F
:1015A00084F0004010BD2046FCE72DE9F0410246E2
:1015B00000250026002000230024002791F803C006
:1015C0000CF00F0591F803C00CF0100CBCF1000FEB
:1015D00003D091F802C04CEA050591F800C0BCF1B7
:1015E000000F31D0146800202BE04FF0010C0CFAF2
:1015F00000F3B1F800C00CEA03069E4220D183003C
:101600004FF00F0C0CFA03F7BC4305FA03FC4CEA4D
:10161000040491F803C0BCF1280F06D14FF0010C6F
:101620000CFA00FCC2F814C00AE091F803C0BCF147
:10163000480F05D14FF0010C0CFA00FCC2F810C0A5
:10164000401C0828D1D31460B1F800C0BCF1FF0FD2
:1016500034DD546800202EE000F1080C4FF0010842
:1016600008FA0CF3B1F800C00CEA03069E4221D13F
:1016700083004FF00F0C0CFA03F7BC4305FA03FC90
:101680004CEA040491F803C0BCF1280F05D100F125
:10169000080C08FA0CF8C2F8148091F803C0BCF1E9
:1016A000480F07D100F1080C4FF0010808FA0CF8B8
:1016B000C2F81080401C0828CED35460BDE8F081E9
:1016C000416170470161704700B585B0684601F01F
:1016D000CFF804490098B0FBF1F00349086005B069
:1016E00000BD000040420F00440000202DE9F043FF
:1016F00085B000F0B9FC5A49B1F9000003F045F893
:1017000006460F46002157480A464302CDE900101D
:101710003046394600F0E0FA044603F007F800B21C
:101720004F49C880B1F9020003F02FF806460F4672
:1017300000214C480A464302CDE9001030463946A4
:1017400000F026FB044602F0F1FF01B2444801819B
:101750000146B1F9040003F018F806460F460021CF
:1017600040480A464302CDE900103046394600F0B1
:101770006BFB044602F0DAFF01B2394841810146B1
:10178000B1F9060003F09EFC81464FF08D4103F055
:1017900087FB044603F0EAFA07460022324B03F0C7
:1017A0000BF8054602F088FD2D498861B1F9080063
:1017B00003F088FC81464FF08D4103F071FB044635
:1017C00003F0D4FA07460022274B02F0F5FF054646
:1017D00002F072FD2249C861B1F90A0003F072FCFF
:1017E00081464FF08D4103F05BFB044603F0BEFAE7
:1017F000074600221C4B02F0DFFF054602F05CFDAD
:101800001749086201F168026431081F01F09AF873
:101810001349B1F90A0003F055FC05461049B1F926
:10182000080003F04FFC04460D49B1F9060003F02F
:1018300049FC06460A48806E0949496E084A126EFC
:10184000074BCDE90045CDE902210490DA6D996D91
:10185000586D3346FEF762FD05B0BDE8F083000029
:10186000EC02002000002040000024402DE9FE4F43
:1018700000276424642564264FF000084FF0000917
:101880000020029000214B48A0F84210A0F844101C
:10189000A0F8461055E000240025002664274BE000
:1018A00000F0E2FB4349B1F93010A1EB080003F06E
:1018B00009FC0090FFF76DFE8346204603F002FC12
:1018C0005946019003F07EFA824603F0DFFB04469E
:1018D0003849B1F93210A1EB090003F0F3FB009095
:1018E000FFF757FE8346284603F0ECFB594601906C
:1018F00003F068FA824603F0C9FB05462D49B1F9A9
:1019000034200299501A03F0DDFB0090FFF741FEEE
:101910008346304603F0D6FB5946019003F052FA55
:10192000824603F0B3FB06462248B0F93080B0F996
:101930003290B0F934000290381EA7F101018FB245
:10194000AED1642CA7DA642DA5DA642EA3DA0024C4
:10195000002500264FF4FA670DE000F085FB1548DE
:10196000B0F9300004441348B0F93200054411487E
:10197000B0F934000644381EA7F101018FB2ECD152
:101980004FF4FA6094FBF0F001B20A48A0F842105C
:101990004FF4FA6095FBF0F001B20648A0F844104D
:1019A0004FF4FA6096FBF0F001B20248A0F846103E
:1019B000BDE8FE8FEC02002008B50A213C2000F0B3
:1019C000DDF88DF800000B213C2000F0D7F88DF8F1
:1019D00001000C213C2000F0D1F88DF802009DF8A8
:1019E0000000482809D19DF80100342805D19DF850
:1019F0000200332801D1002008BD0120FCE710B50A
:101A000042223721D02000F013F9FFF7D5FF08B1AB
:101A1000012010BD142200213C2000F009F9A02271
:101A200001213C2000F004F9002202213C2000F0BA
:101A3000FFF8002000F03FF8062000F02FF8002407
:101A400028E0142200213C2000F0F2F8A02201211D
:101A50003C2000F0EDF8012202213C2000F0E8F8E3
:101A600003213C2000F08AF804213C2000F086F895
:101A700007213C2000F082F808213C2000F07EF88D
:101A800005213C2000F07AF806213C2000F076F891
:101A9000601CC4B20A2CD4DB0020BAE710B504469F
:101AA000062C00DD10BDA006020E02213C2000F035
:101AB000BFF800BFF6E710B50446022C00DD10BDEC
:101AC000224602213C2000F0B3F8642002F0E4F941
:101AD00000BFF4E700BFFEE700B500200A49086038
:101AE00002F0D3F900200949C1F89C0102F0CDF9B8
:101AF00001200549086002F0C8F900200349C1F837
:101B0000980102F0C2F900BD988121420080214273
:101B100008B50121082000F09BFEC020ADF80000B0
:101B200014208DF8030003208DF802006946044854
:101B3000FFF73BFDC0210248FFF7C4FD08BD0000D0
:101B4000000C014000B500200A49086002F09DF930
:101B500001200949C1F89C0102F097F901200549CB
:101B6000086002F092F900200349C1F8980102F0E0
:101B70008CF900BD988121420080214270B5044655
:101B80000D4602F00BFA204602F040FA02F0AEF9E0
:101B9000284602F03BFA02F0A9F902F0FFF9611CB5
:101BA000C8B202F033FA02F0A1F902F0C3F9064616
:101BB00002F010FA0A2002F01FF9304670BD2DE93C
:101BC000F04106460F461546984602F0E7F93046C2
:101BD00002F01CFA02F08AF920B102F0FBF90120B0
:101BE000BDE8F081384602F011FA02F07FF902F008
:101BF000D5F9711CC8B202F009FA02F077F9002495
:101C00000DE002F097F908F80400601CA84202DA1F
:101C1000FFF762FF01E0FFF795FF601CC4B2AC4222
:101C2000EFDB02F0D7F9FA2002F0E6F80020D7E760
:101C300070B506460C46154602F0B0F9304602F083
:101C4000E5F902F053F918B102F0C4F9012070BDB2
:101C5000204602F0DBF902F049F9284602F0D6F9F5
:101C600002F044F918B102F0B5F90120EFE702F0F3
:101C7000B1F9FA2002F0C0F80020E8E710B54FF4FF
:101C8000A06000F099FD02F0BDF800F039F900F015
:101C9000A1FB00BF00F076FB0028FBD100F0A0FC08
:101CA000472140F2E73000F091FD00F0BBFAFFF76A
:101CB000DDFDFEF7EFFAFFF7A2FE02F013FA47216F
:101CC00042F20F7001F0AAF8472140F2E73001F02C
:101CD00033F900F043F910BD2DE9FF5F8EB01446D3
:101CE0001D46DDE91CABCDE90CABCDE90A4500BFD3
:101CF000244803C8CDE908012349DDE90A2303C9C3
:101D000002F00CFB8046894640464946DDE90C233B
:101D100002F004FB02460B46CDE90201404649466B
:101D200002F0ACFBCDE90401DDE90823DDE90E0199
:101D300002F032FFCDE90001DDE9042302F03CFDB1
:101D4000CDE90201DDE9082302F0E8FA06460F4674
:101D500000200E49DDE9042302F01EFF42464B46F7
:101D6000CDE9020102F028FDCDE90601064ADDE9D0
:101D7000060103C20348C0C03046394612B0BDE870
:101D8000F09F0000D0000020D80000200000F03FAD
:101D90002DE9FF5F8EB014461D46DDE91CABCDE991
:101DA0000CABCDE90A4500BF244803C8CDE90801C2
:101DB0002349DDE90A2303C902F0B0FA80468946C7
:101DC00040464946DDE90C2302F0A8FA02460B46DC
:101DD000CDE902014046494602F050FBCDE904013D
:101DE000DDE90823DDE90E0102F0D6FECDE90001B0
:101DF000DDE9042302F0E0FCCDE90201DDE908237E
:101E000002F08CFA06460F4600200E49DDE9042355
:101E100002F0C2FE42464B46CDE9020102F0CCFC84
:101E2000CDE90601064ADDE9060103C20348C0C048
:101E30003046394612B0BDE8F09F0000E0000020B7
:101E4000E80000200000F03F2DE9FF5F8EB014464F
:101E50001D46DDE91CABCDE90CABCDE90A4500BF61
:101E6000244803C8CDE908012349DDE90A2303C951
:101E700002F054FA8046894640464946DDE90C2383
:101E800002F04CFA02460B46CDE9020140464946B3
:101E900002F0F4FACDE90401DDE90823DDE90E01E1
:101EA00002F07AFECDE90001DDE9042302F084FCB2
:101EB000CDE90201DDE9082302F030FA06460F46BB
:101EC00000200E49DDE9042302F066FE42464B463F
:101ED000CDE9020102F070FCCDE90601064ADDE918
:101EE000060103C20348C0C03046394612B0BDE8FF
:101EF000F09F0000F0000020F80000200000F03FFC
:101F000008B50121082000F0A3FC4FF47040ADF8A3
:101F1000000010208DF8030003208DF802006946B0
:101F20000448FFF742FB4FF470410248FFF7CAFB39
:101F300008BD0000000C0140012006490860064968
:101F4000C1F8B4010349083108600349C1F8BC0174
:101F500070470000B08121420080214200200649E4
:101F600008600649C1F8B401034908310860034913
:101F7000C1F8BC0170470000B081214200802142BD
:101F80001348006808B9012000E0002010490860EB
:101F90001048D0F8B40108B9012000E000200C4935
:101FA000091D08600B48D0F8B80108B9012000E00D
:101FB00000200749083108600648D0F8BC0108B97C
:101FC000012000E0002002490C3108607047000049
:101FD000B08121420080214210B5044640F25230C7
:101FE000844201DD044602E0002C00DA0024A1B2A4
:101FF000014801F066FA10BD002C014010B50446FE
:1020000040F25230844201DD044602E0002C00DA46
:102010000024A1B2014801F052FA10BD002C014089
:1020200010B5044640F25230844201DD044602E01D
:10203000002C00DA0024A1B2014801F046FA10BDDC
:10204000002C014010B5044640F25230844201DDBC
:10205000044602E0002C00DA0024A1B2014801F09D
:1020600032FA10BD002C0140F0B587B004AA05A9D2
:1020700006A800F087F801AA02A903A800F0AAF8B0
:102080003C48408ABDF81810081A00B23949088047
:102090000846808ABDF81410081A00B235494880F5
:1020A0000846C08ABDF81010081A00B2314988806D
:1020B000BDF90C000886BDF908102E484186BDF90F
:1020C000041081860146B1F93020B1F94210501A4E
:1020D00002F0F8FF0446284902F0E2FE2549886430
:1020E000B1F93220B1F94410501A02F0EBFF044666
:1020F000214902F0D5FE01461E48C1640146B1F9EE
:102100003420B1F94610501A02F0DCFF04461A4997
:1021100002F0C6FE0146174801650146886C02F0D0
:1021200025FE0646154A164B02F046FB044602F011
:10213000C3F810494865C86C02F018FE06460F4AFD
:102140000F4B02F039FB044602F0B6F8014609488D
:1021500081650146086D02F009FE0646074A084BF4
:1021600002F02AFB044602F0A7F801460148C165C7
:1021700007B0F0BDEC020020333303425F40D422AD
:1021800047DF913F2DE9FC4104460D4616466B465C
:1021900006223B21D020FFF712FD0746BFB99DF86C
:1021A00001009DF8001040EA012000B220809DF857
:1021B00003009DF8021040EA012000B228809DF83B
:1021C00005009DF8041040EA012000B23080384636
:1021D000BDE8FC812DE9FC4104460D4616466B46E0
:1021E00006224321D020FFF7EAFC0746BFB99DF83D
:1021F00001009DF8001040EA012000B220809DF807
:1022000003009DF8021040EA012000B228809DF8EA
:1022100005009DF8041040EA012000B230803846E5
:10222000BDE8FC8110B50121084600F011FBFFF765
:102230006FFC642001F018FE00226B21D020FFF714
:10224000F7FC022000F041F8002000F035F83220C1
:1022500000F062F800223821D020FFF7E9FC40228C
:102260006A21D020FFF7E4FC00222321D020FFF7D1
:10227000DFFC42223721D020FFF7DAFC7521D02085
:10228000FFF77CFC0446682C12D101226B21D02080
:10229000FFF7CEFC00226C21D020FFF7C9FC3220D2
:1022A00000F03AF801210348FFF70AFA002010BDB8
:1022B0000120FCE70008014010B50446E006020ECC
:1022C0001C21D020FFF7B4FC10BD10B50446E00679
:1022D000020E1B21D020FFF7ABFC10BD70B50446E9
:1022E0000025BC2C01DB012510E0622C01DB02255E
:1022F0000CE02A2C01DB032508E0142C01DB04256B
:1023000004E00A2C01DB052500E006252A461A21F7
:10231000D020FFF78DFC70BD70B50446B4F57A7F10
:1023200001DD4FF47A74042C00DA04244FF47A703F
:1023300090FBF4F0401EC5B22A461921D020FFF7C9
:1023400077FC0546264604EBD671C1F34F00FFF734
:10235000C5FF70BD00BFFEE72DE9F04107460C4602
:1023600015461E463846FFF737FE2046FFF746FE65
:102370002846FFF755FE3046FFF764FEBDE8F081C2
:10238000704700001CB511A103C9CDE90001082068
:1023900000F04AFC05226946302000F09FF9052232
:1023A0006946102000F048F9002406E01DF80400FA
:1023B000A52800D003E0601CC4B2052CF6DB00BFEA
:1023C000052C01D001201CBD0020FCE7A5A5A5A57A
:1023D000A500000000B587B001210C2000F038FAFC
:1023E0000220ADF8180010208DF81B0003208DF896
:1023F0001A0006A92B48FFF7D8F80820ADF81800F6
:1024000010208DF81B0003208DF81A0006A926481D
:10241000FFF7CBF80120ADF8180028208DF81B003D
:1024200003208DF81A0006A91E48FFF7BEF8082100
:102430001D48FFF745F903211A48FFF741F900F05D
:1024400083FB0021194800F003FC0020ADF80400D4
:102450004FF48270ADF806000020ADF80800ADF82A
:102460000A00ADF80C004FF40070ADF80E00182013
:10247000ADF810000020ADF812000720ADF81400F0
:1024800001A90A4800F0FEFB0121084800F0E0FB2A
:1024900000200749086001200649C1F8840107B0FF
:1024A00000BD0000000C0140000801400030014068
:1024B0008C0121420080214210B504462078412839
:1024C00004D16078302801D1FFF748FD20784128F9
:1024D00004D16078312801D1FFF72EFD2078412802
:1024E00004D16078322801D1FFF74AFD20784128D5
:1024F00004D16078332801D1FFF742FD20784428C9
:102500000AD16078302807D1FFF716FD01F066FC8C
:102510000020304908705CE0207844281FD16078A2
:1025200031281CD1A07E452819D1FFF717FD2A4874
:1025300054F8021FC16561680166A1684166E168DF
:10254000C0F8D4102169C0F8D8106169A41EC0F881
:10255000DC1001F043FC01201E49087039E02078AE
:1025600044281FD1607832281CD1A07E452819D17B
:10257000FFF7F4FC184854F8021F016261684162D9
:10258000A1688162E168C0F898102169C0F89C10C8
:102590006169A41EC0F8A01001F020FC01200D49C3
:1025A000087016E02078442813D16078332810D1C1
:1025B000FFF7D4FC094854F8021F0160064861681F
:1025C0000160A168A41E816701F008FC0120014997
:1025D000087010BD68010020880300206C010020F5
:1025E00010B5002011490860052211492A2000F089
:1025F00075F80121212000F08FF80121222000F040
:102600008BF82821252000F087F82021312000F0C8
:1026100083F80F21262000F07FF80F21202000F002
:102620007BF801200349C1F88C0110BD8C012142C7
:102630004B550008000021422DE9F04107460D46A8
:10264000164600200A490860384600F0C3FA804662
:10265000002405E0FF2000F0BDFA2855601CC4B23C
:10266000B442F7DB0120024908604046BDE8F08132
:102670008481214270B50446002007490860204645
:1026800000F0A8FAFF2000F0A5FA05460120034952
:10269000C1F88401284670BD848121420080214216
:1026A00070B50446102000F0BFFA0720FFF7E2FFE4
:1026B00005462946272000F02FF805F0400050B1CC
:1026C000202221466120FFF7B7FFFF21E22000F022
:1026D00023F8002070BD0120FCE700002DE9F04147
:1026E00007460C46154600200A490860384600F0A7
:1026F00071FA8046002605E014F8010B00F06AFA32
:10270000701CC6B2AE42F7DB0120024908604046A9
:10271000BDE8F0818481214270B505460C46002059
:1027200007490860284600F055FA0646204600F0A2
:1027300051FA01200349C1F88401304670BD000000
:10274000848121420080214270B5002100230F22A4
:10275000C47804B3154C246804F4E064C4F5E06460
:10276000210AC1F10403CA40447804FA03F18478D1
:102770001440214309010E4C0678A155047804F059
:102780001F050124AC4005786D11AD0005F1E02571
:10279000C5F8004109E0047804F01F050124AC40AD
:1027A000044D0678761145F8264070BD0CED00E02A
:1027B00000E400E080E100E002490143024A1160C8
:1027C000704700000000FA050CED00E070B504460B
:1027D0000D462946204600F057FC70BD70470000AA
:1027E0002DE9F05F04464FF07F594FF07C512046B1
:1027F00002F0B4FC824625462E460C48A0EB660645
:1028000035462946504602F0A9FC8346294602F087
:10281000A5FC8046494602F09EFD0746294602F087
:102820009DFC05462846BDE8F09F0000865A375FAC
:1028300029B1064AD2690243044BDA6104E0034A33
:10284000D2698243014BDA617047000000100240F8
:1028500029B1064A92690243044B9A6104E0034A93
:1028600092698243014B9A61704700000010024058
:1028700030B500210022002400232D4D6D6805F0A5
:102880000C0121B1042905D0082923D105E0294DE7
:10289000056022E0274D05601FE0254D6D6805F4B9
:1028A0007012234D6D6805F48034022505EB9242C9
:1028B0001CB9214D554305600BE01D4D6D6805F4B5
:1028C00000351DB11C4D5543056002E0194D5543BF
:1028D000056002E0174D056000BF00BF144D6D6834
:1028E00005F0F0010909154D6B5C0568DD40456098
:1028F0000F4D6D6805F4E061090A104D6B5C456889
:10290000DD4085600A4D6D6805F46051C90A0B4DC4
:102910006B5C4568DD40C560054D6D6805F4404160
:10292000890B074D6B5CC568B5FBF3F5056130BDE0
:102930000010024000127A0000093D004C00002007
:102940005C0000202DE9F0478CB004468946924691
:10295000002006900790142200213C20FFF768F920
:10296000A02201213C20FFF763F9002202213C2034
:10297000FFF75EF903213C20FFF700F98DF81900FD
:1029800004213C20FFF7FAF88DF81A0007213C20BB
:10299000FFF7F4F88DF81B0008213C20FFF7EEF854
:1029A0008DF81C0005213C20FFF7E8F88DF81D008C
:1029B00006213C20FFF7E2F88DF81E009DF81A1062
:1029C0009DF8192041EA022002F07CFB0A909DF854
:1029D0001C109DF81B2041EA022002F073FB0990B5
:1029E0009DF81E109DF81D2041EA022002F06AFBAE
:1029F00008904FF08E410A9802F07CFC0BD24548BB
:102A00000A9902F0B3FC05464FF07E5102F0DAF964
:102A100080F000400A904FF08E41089802F06AFC66
:102A20000BD23C48089902F0A1FC05464FF07E51BC
:102A300002F0C8F980F0004008904FF08E410998EC
:102A400002F058FC0BD23348099902F08FFC05467E
:102A50004FF07E5102F0B6F980F0004009902E4907
:102A60000A9802F0AFF90A902C490A9802F0AAF9E4
:102A700009902B49089802F0A5F9089008AA09A91D
:102A80000AA801F075FB099820600A98C9F80000AF
:102A90000898CAF8000023490A9808602249099852
:102AA00008602249089808600A9802F05FF9CDE9A9
:102AB0000001099802F05AF90746DDE9002301F008
:102AC000CDF81B4A1B4BCDE9020101F075FE05460E
:102AD0000022194B01F022FCCDE9040101F0ECFBCE
:102AE0001649086016491548006802F06BF9134949
:102AF000086014491148006802F0FCFB06D2114935
:102B00000E48006802F032FC0C4908600CB0BDE8C9
:102B1000F087000000FF7F4700C05A440040664431
:102B200000002042000000200400002008000020D7
:102B3000775AF01ADCA54C400080664078000020EF
:102B40000000C8420000B44300B587B0012141F243
:102B50000400FFF77DFEE020ADF8180018208DF886
:102B60001B0003208DF81A0006A91848FEF71DFD6A
:102B7000E0211648FEF7A6FD0020ADF804004FF452
:102B80008270ADF806000020ADF808000220ADF814
:102B90000A000120ADF80C004002ADF80E0038200C
:102BA000ADF810000020ADF812000720ADF81400B9
:102BB00001A9074800F066F80121054800F048F82F
:102BC000FF2000F007F807B000BD0000000801403A
:102BD0000030014070B50546002405E0601CC4B219
:102BE000C82C01DD002070BD02210E4800F03CF829
:102BF0000028F3D029460B4800F042F8002405E0F5
:102C0000601CC4B2C82C01DD0020ECE7012105489E
:102C100000F02AF80028F3D0024800F02EF8C0B2E5
:102C2000E1E700000030014010B504460748008885
:102C30004FF6C771084005490880084600882043C0
:102C400008800121014800F003F810BD0030014068
:102C500021B1028842F04002028004E002884FF66F
:102C6000BF731A40028070470246002013890B4050
:102C70000BB1012000E000207047014688897047B1
:102C80008181704710B50022028802F441520B88FE
:102C90004C8823438C882343CC8823430C892343CB
:102CA0004C8923438C892343CC8923431A430280D4
:102CB000838B4FF2FF74234083830B8A038210BD02
:102CC000704710B500F002F810BD00000CB50020F0
:102CD000019000903348006840F48030314908602A
:102CE00000BF3048006800F4003000900198401C9C
:102CF0000190009818B90198B0F5A06FF1D129485A
:102D0000006800F4003010B10120009001E00020C4
:102D100000900098012843D12348006840F010003B
:102D2000214908600846006820F003000860084652
:102D3000006840F0020008601A484068194948607D
:102D40000846406848600846406840F48060486033
:102D50000846406820F47C1048600846406840F40B
:102D6000E81048600846006840F08070086000BFC6
:102D70000C48006800F000700028F9D0094840684D
:102D800020F00300074948600846406840F0020010
:102D9000486000BF0348406800F00C000828F9D1E3
:102DA0000CBD0000001002400020024002480068F4
:102DB000401C0149086070474800002010B51348C6
:102DC000006840F001001149086008464068104959
:102DD00008400E494860084600680E4908400B4903
:102DE00008600846006820F48020086008464068B3
:102DF00020F4FE0048604FF41F008860FFF761FF79
:102E00004FF000600449086010BD0000001002404F
:102E10000000FFF8FFFFF6FE08ED00E07FB5054675
:102E20000C4601210846FFF703FDADF80850ADF848
:102E300004400020ADF80600ADF80A008DF80C0043
:102E400001A94FF0804000F043FB0121880700F00A
:102E5000AFF901221146900700F0CDF91C208DF842
:102E6000000002208DF8010000208DF802000120F2
:102E70008DF803006846FFF767FC0121880700F022
:102E80009DF97FBD10B50121880700F0A3F9012845
:102E900049D1FEF72BFC244A516810680022FEF746
:102EA0006FF82248007898B3214800680A2806D1B4
:102EB00000231A4619466420FFF74EFA2FE01C48FB
:102EC0000068142806D100231A4664211846FFF72B
:102ED00043FA24E0164800681E2806D10023642225
:102EE00019461846FFF738FA19E0114800682828F3
:102EF00006D16423002211461046FFF72DFA0EE09A
:102F00000C4CE368A26861682068FFF725FA06E0C8
:102F1000FFE700231A4619461846FFF71DFA01215C
:102F2000880700F048F910BD580300206801002010
:102F30006C010020F00400207FB505460C460121FD
:102F40000220FFF775FCADF80850ADF804400020F2
:102F5000ADF80600ADF80A008DF80C0001A90F4885
:102F600000F0B6FA01210D4800F022F901221146C5
:102F70000A4800F040F91D208DF8000000208DF86F
:102F800001008DF8020001208DF803006846FFF76C
:102F9000DBFB0121014800F011F97FBD0004004076
:102FA00010B501212F4800F015F9012859D12E48FC
:102FB0000088401C2C4908802C480088401C2B4964
:102FC00008802B480088401C29490880294800882F
:102FD000401C284908802448008800EBC00101EB10
:102FE00000104FF47A71B1EBC00F05DC00201E49D0
:102FF00008800120204908701C48008800EBC001AF
:1030000001EB00104FF47A71B1EB800F05DC00206A
:10301000164908800120194908701548008800EBFE
:10302000C00101EB00104FF47A71B1EB400F05DCE9
:1030300000200F4908800120114908700D480088C0
:1030400000EB80004FF47A71B1EB400F05DC0020FB
:103050000849088001200B4908700121014800F04F
:10306000AAF810BD00040040C6000020C8000020DF
:10307000CA000020CC000020C2000020C3000020B5
:10308000C4000020C500002030B58DB005460C46B8
:10309000012140F60400FFF7DBFB4FF47060ADF850
:1030A000240018208DF8270003208DF8260009A998
:1030B0002F48FEF77AFAADF82C50ADF828400020E2
:1030C000ADF82E00ADF82A000AA92A4800F000FA4F
:1030D0006020ADF814000120ADF816000020ADF816
:1030E0001C00ADF82000ADF8220005A9214800F031
:1030F0008BF805A91F4800F0DDF805A91D4800F070
:1031000039F905A91B4800F08FF90020ADF804003B
:10311000ADF80600ADF808009020ADF80A000020D8
:10312000ADF80C004FF40050ADF80E004000ADF8C3
:10313000100001A90F4800F02BF808210D4800F0FD
:10314000AFF808210B4800F007F90821094800F002
:1031500061F90821074800F0A5F90121054800F0B0
:103160000BF80121034800F029F80DB030BD000034
:1031700000080140002C014021B1028842F0800289
:10318000028004E002884FF67F731A400280704785
:103190000A884B881A438B881A43CB881A430B89B9
:1031A0001A434B891A438B891A43A0F8442070476D
:1031B000CA4302827047CA430282704721B1028823
:1031C00042F00102028004E002884FF6FE731A40CA
:1031D0000280704730B50246002000230024158A83
:1031E00005EA0103958905EA010413B10CB1012038
:1031F00000E0002030BD1AB183890B43838102E0D7
:1032000083898B438381704770B50024002200239B
:10321000058C4FF6FE7635400584028C8388048B3E
:103220004FF68F752C40B51E2C400D882C43751E13
:103230002A400D892A434D882A43144DA8420BD0B9
:10324000134DA84208D0134DA84205D0124DA842F4
:1032500002D0124DA84213D14FF6F7752A404D897E
:103260002A434FF6FB752A408D882A434FF6FF65A7
:103270002B404FF6FF552B408D892B43CD892B4397
:1032800083800483CD888586028470BD002C014034
:10329000003401400040014000440140004801402A
:1032A0000A460021018B4FF6F77319401143018341
:1032B0007047000070B5002400220023058C4FF6F3
:1032C000EF7635400584028C8388048B48F6FF75C1
:1032D0002C404FF6FF452C400D884FF6FF7606EA4E
:1032E00005252C434FF6DF752A400D8906EA0515A2
:1032F0002A434D8806EA05152A43154DA84202D0F7
:10330000144DA8421DD14FF67F752A404D894FF6C6
:10331000FF7606EA05152A434FF6BF752A408D88C9
:1033200006EA05152A434FF6FF352B404FF2FF758D
:103330002B408D8906EA85052B43CD8906EA850554
:103340002B4383800483CD880587028470BD0000F1
:10335000002C0140003401400A460021018B4FF24D
:10336000FF7319404FF6FF7303EA022319430183E9
:103370007047000070B5002400220023058C4FF632
:10338000FF6635400584028C8388848B4FF68F75E9
:103390002C404FF6FC752C400D882C434FF6FF5502
:1033A0002A400D894FF6FF7606EA05252A434D8807
:1033B00006EA05252A43154DA84202D0144DA8421D
:1033C0001DD14FF2FF752A404D894FF6FF7606EA70
:1033D00005252A434FF6FF352A408D8806EA052544
:1033E0002A434EF6FF752B404DF6FF752B408D8915
:1033F00006EA05152B43CD8906EA05152B43838084
:103400008483CD888587028470BD0000002C014034
:10341000003401400A460021818B4FF6F7731940B2
:10342000114381837047000070B5002200230024FF
:10343000058C4EF6FF7635400584038C8488828B9C
:1034400048F6FF752A404FF6FF452A400D884FF693
:10345000FF7606EA05252A434DF6FF752B400D89B8
:1034600006EA05352B434D8806EA05352B430B4DFF
:10347000A84202D00A4DA84208D14BF6FF752C4055
:103480008D894FF6FF7606EA85152C43848082836A
:10349000CD88A0F84050038470BD0000002C01408E
:1034A000003401400A460021818B4FF2FF7319401E
:1034B0004FF6FF7303EA0223194381837047818625
:1034C00070470187704781877047A0F840107047A8
:1034D000002202881D4B98420ED01D4B98420BD003
:1034E000B0F1804F08D01B4B984205D01A4B984240
:1034F00002D01A4B984204D14FF68F731A404B8872
:103500001A43174B984207D0164B984204D04FF6F7
:10351000FF431A40CB881A4302808B8883850B882F
:1035200003850A4B98420BD0094B984208D00E4BAA
:10353000984205D00D4B984202D00D4B984201D1D4
:103540000B7A03860123838270470000002C014020
:10355000003401400004004000080040000C00401E
:1035600000100040001400400040014000440140B1
:103570000048014010B540F225511D4800F03EF8CA
:1035800010B31B4800F064F8C4B21A48008800F475
:103590000040C8B91748008800F4804060B10A2C88
:1035A00003D000201349088020E01248008840F42E
:1035B00000401049088019E00D2C06D10D48008804
:1035C00040F480400B49088010E00A480088C0F3AE
:1035D0000D0009490C5407480088401C0549088023
:1035E00008460088C72801DD0020088010BD0000C3
:1035F00000380140C00000202402002070B50246BF
:10360000002400230025002040F66A16B14200D1B4
:1036100000BFC1F3421501F01F03012606FA03F3B0
:10362000012D02D19689334006E0022D02D1168A7F
:10363000334001E0968A33400C12012606FA04F466
:103640001688344013B10CB1012000E0002070BD99
:1036500001468888C0F30800704700BFFEE70000FD
:103660002DE9F05F82464FF0000B0021504601F03B
:1036700041FD01D28AF0004A1049504601F03AFE5D
:1036800001D2DFF838A0504601F070FB80460C4AAA
:103690000C4B01F091F8064600220B4B01F08AF921
:1036A000044600F009FE83460021584601F022FD41
:1036B00001D24FF0000B5846BDE8F09F9A99193F90
:1036C00079E9263108ACFA3F0000F03F490050EAA2
:1036D000C12018BF04204A0D18BF40F0010040F27D
:1036E000FF72B2EB515F08BF40F00200012808BF33
:1036F000052070472DE9F0414F1E00EBC70104463D
:10370000D1E9000115461E4637F006020DD02A46C3
:10371000334601F051F87F1E04EBC703D3E90023C1
:1037200000F0FCFD37F00602F1D1022F25D0042F66
:1037300013D0062F18BFBDE8F0812A46334601F0AA
:103740003BF8D4E90A2300F0E9FD2A46334601F0AC
:1037500033F8D4E9082300F0E1FD2A46334601F0AE
:103760002BF8D4E9062300F0D9FD2A46334601F0B0
:1037700023F8D4E9042300F0D1FD2A46334601F0B2
:103780001BF8D4E9022300F0C9FD2A46334601F0B4
:1037900013F8D4E90023BDE8F04100F0BFBD0122D9
:1037A00001F08BBE00F0BABD002213461046114650
:1037B00000F064BE024A0020110701F07EBE000046
:1037C00001FDFFFF014600BF704700002DE9F04DED
:1037D0008D4F21F0004A86B005460C46BA452ADBDB
:1037E000AAEB070028430AD08848824501DC1AD199
:1037F000CDB106B02846BDE8F04DFFF7D0BF844AF2
:10380000844B284600F0D8FF07460E46824A834B79
:103810002846214600F0D0FF06B03A463346BDE8C0
:10382000F04D00F07BBD0120FCF7F8FC06B0BDE8D0
:10383000F04DFFF7B9BF7A48824542DABAF1795FB5
:103840000BDA2846FFF742FF042808BFFFF7B2FF54
:10385000284606B02146BDE8F08D2A460B461046A4
:1038600000F0AAFF834602466E480E460B4606212C
:103870007844FFF73FFF5A46334600F09DFF8046ED
:1038800069488A465A46334604217844FFF732FF96
:103890005A46334600F090FF00223B4600F03EFDC2
:1038A00002460B464046514600F0E8FD2A462346B4
:1038B00000F082FF06B02A462346BDE8F04D00F036
:1038C0002DBD284624F0004100223D463B4601F034
:1038D00071F84FF0FF3201F0F0FD06460246534802
:1038E0000F460B4606217844FFF704FF32463B465D
:1038F00000F062FFCDE900014D4832463B4604210D
:103900007844FFF7F7FE32463B4600F055FF0022B1
:103910002B4600F003FD834602913046394600F005
:10392000A5FC804643480D46504517DCDDE9000103
:103930005A46029B00F0A2FD42462B4600F03CFF97
:1039400042462B4600F0EAFC012201F0B6FD304A67
:10395000304B01F021F9304A304B4CE04FF0000A77
:1039600052460B46404600F0D9FCCDE903105246C2
:103970002B461046194600F01FFF32463B4601F029
:1039800019F8DDE9033200F079FD06460F46DDE95E
:1039900000015A46029B00F071FD8346009101220E
:1039A0003046394601F089FD194A1A4B01F002F8F8
:1039B00006460F4601224046294601F07EFD5A4642
:1039C000009B00F0F9FE32463B4601F0E5F8064662
:1039D0000F4601225046294601F06FFD0E4DDFF8DB
:1039E00058802A46434600F0E5FF32463B4600F049
:1039F000E1FF2A46434600F0DDFF002CD8BF81F0EE
:103A0000004106B0BDE8F08D0000F03F0000F07FFF
:103A1000075C143326A6913C182D4454FB21F93F32
:103A20000000E03FDC1C0000F21C0000661C0000EF
:103A30007C1C00003333EF3FFB21E93F2DE9F84FB9
:103A400004460D4621F0004000917349814211DC8B
:103A50007249884201DC06D12CB120462946BDE8D6
:103A6000F84FFFF79CBE6E48002DCCBF6D496E49E4
:103A7000BDE8F88F6D49814211DD6D498142D8BFA3
:103A80004FF0FF366DDD20462946FFF71FFE042864
:103A900008BFFFF78FFE20462946BDE8F88F65492D
:103AA000654F25F00045814233DD6449814219DDCF
:103AB000002632464FF080432046294600F02EFC77
:103AC00080468A4601222046294601F0F6FC002263
:103AD0003B4601F061F84246534600F0CFFC0446F5
:103AE0000D463EE001260022BA463B4620462946C6
:103AF00000F014FC80460F4600225346204629461B
:103B000001F04AF842463B4600F0B8FC04460D4638
:103B100027E04B4981421BDDDFF828A10226002265
:103B200053462046294600F047FE00223B4600F05F
:103B3000F5FB80460F46002253462046294601F0F9
:103B40002BF842463B4600F099FC04460D4608E03F
:103B5000032622462B4600203B4900F08FFC0446FA
:103B60000D4622462B461046194600F025FE8B4690
:103B7000824602460B4600F01FFE074602463348C7
:103B800088460B4606217844FFF7B4FD52465B4653
:103B900000F012FE82462E488B463A4643460521E7
:103BA0007844FFF7A7FD3A46434600F005FE02467B
:103BB0000B46002E504659460CDA00F0AFFB224669
:103BC0002B4600F0F9FD01B022462B46BDE8F04F30
:103BD00000F0F0BE00F0A2FB22462B4600F0ECFD08
:103BE0001C4A7A4402EBC603D3E9002300F0D4FF59
:103BF00022462B4600F0D0FF174A7A4402EBC60358
:103C0000D3E9002300F0D6FE009A002AB8BF81F065
:103C10000041BDE8F88F0000000010440000F07F74
:103C2000182D4454FB21F93FFB21F9BF0000DC3F74
:103C30000000203E0000F33F0000F03F0000E63FA0
:103C4000008003400000F83F0000F0BF7E1A000033
:103C50003C1A0000DA190000A21900002DE9F04D0D
:103C60009446CCF1000423F000464CEA0404524F81
:103C700046EAD4749A46884621F00042BC4206D8EF
:103C8000454240EA050442EAD474BC4204D9BDE886
:103C9000F04D6246FFF786BDAAF14055A5F17F655C
:103CA00055EA0C040BD0022404EAAA74434DDFF851
:103CB00010E144EAD87452EA000B04D00CE0BDE8ED
:103CC000F04DFFF7BBBE002C14BF012CBDE8F08DFA
:103CD000022C30D0032C32D056EA0C0B0AD0BE4254
:103CE00020D1BA4209D126F0804622F080423346E4
:103CF000114617E000291ADB25E0DFF8C8B0FB44C5
:103D0000002C04BFDBE90001BDE8F08D012C02BFEF
:103D1000DBE9000181F00041BDE8F08D022C0AD002
:103D2000032C0CD0BA4212D1B8F1000F0BDA2348A1
:103D30002549BDE8F08D28462449BDE8F08D284688
:103D40007146BDE8F08D1D482149BDE8F08D921BFC
:103D500012153C2AC4BF19481D490EDCBAF1000FE8
:103D6000BEBF12F13C0F0020014606DB624600F0A8
:103D700085FB21F00041FFF761FE002C08BFBDE884
:103D8000F08D012C04BF81F00041BDE8F08D114A97
:103D9000114B022C07D000F0FFFE2A46BDE8F04D83
:103DA0000A4B00F0F9BE00F0F7FE2A46BDE8F04DE0
:103DB000064B00F0FFBD00000000F07F182D4454BA
:103DC000FB2109C036190000FB21F9BFFB21094086
:103DD000FB21F93F075C143326A6A13C00200549CE
:103DE000886100210348C0F890104165C0F8CC10EC
:103DF0007047000088030020002100E0491C814238
:103E0000FCD3704770B5FDF75FFC144800684FF4B1
:103E10007A72B0FBF2F1B1F1807F00D31DE021F0A6
:103E20007F40401E4FF0E022506150170F220028C3
:103E300007DA13071D0E0A4B00F00F04241F1D554F
:103E400003E013071C0E074B1C5400BF00204FF06B
:103E5000E02290610720106100BF70BD300000209B
:103E600018ED00E000E400E070B5044600F018F939
:103E7000054600BF00F014F9401B04EB4401C1EB00
:103E8000C411B0EBC10FF5D370BD0A2000BF011EF5
:103E9000A0F10100FBD1704770B5044600F000F9B5
:103EA000054600BF00F0FCF8401BA042FAD370BDED
:103EB00058B90D49096821F070410B4A116011464B
:103EC000096841F0405111600CE001280AD106490F
:103ED000096821F07041044A11601146096841F0F7
:103EE0000041116070470000000C014000B5002344
:103EF0000120FFF7DDFF01200D490860FFF7C5FF36
:103F000006E05B1CFA2B03D900F064F8012000BD29
:103F100007487C3800680128F3D000200449086075
:103F2000FFF7B3FF0020FFF7C3FF0020EFE700001B
:103F30009881214230B50024002016490860FFF71F
:103F4000A4FF01201449C1F89C01FFF7B1FF002331
:103F500016E0FFF79AFF01200E490860FFF795FF72
:103F60000D48D0F81C01012801D1012500E00025F1
:103F700045EA4400C4B2002006490860581CC3B298
:103F8000082BE6DB0020FFF793FFFFF77EFF2046BC
:103F900030BD0000988121420080214200B50120FF
:103FA0000A490860FFF771FF01200949C1F898012B
:103FB000FFF76BFF002005490860FFF766FF002050
:103FC0000349C1F89801FFF760FF00BD9C812142C1
:103FD0000080214200B500200A490860FFF755FF24
:103FE00000200949C1F89C01FFF74FFF0120054956
:103FF0000860FFF74AFF01200349C1F89C01FFF761
:1040000044FF00BD988121420080214270B50346E3
:104010001D4600241CE005F080066806050E002001
:1040200012490860FFF731FF802E04D101200F49AB
:10403000091D086003E000200C49091D0860FFF716
:1040400024FF012009490860FFF71FFF601CC4B26C
:10405000082CE0DB002005490860FFF716FF01206F
:104060000349C1F89C01FFF710FF70BD9881214200
:1040700000802142FDF702FE0CE00748007848B1BD
:104080000648FEF70DFB10B90448FEF715FA0020AC
:1040900001490870F1E70000C20000207C01002007
:1040A00000BF0E4801684FF0E02082690B480068AD
:1040B0008142F6D10A48006800EB4003C3EBC01010
:1040C000C2EBC000064B1B68B0FBF3F001EB4103F1
:1040D000C3EBC11300EBC300704700004800002091
:1040E0004400002000B500211D48C165C16541663E
:1040F000C0F8D410C0F8D410C0F8DC10C0F84C11CF
:10410000C0F85411002016490862486288620021F4
:104110001348C0F89810C0F89C10C0F8A010C0F860
:104120001011C0F81411C0F8181100200C49C86310
:1041300000210B48C0F8B4100A4880680849C1F84B
:10414000F000094906488165C0F8D01007480449C5
:10415000C86101460248C0F89410FFF73FFE00BD59
:104160008803002058030020000020410000A040E8
:104170002DE9F05F05460E4691463848384A2968D1
:10418000126840F822102830354A3168126840F829
:1041900022102830324AD9F80010126840F8221054
:1041A0002F480068401C2E490860084600680A280D
:1041B00001D10020086000202A490860486088601A
:1041C00000241EE0254A52F82410264A106800F008
:1041D000F9FD24490860214A283252F82410214A66
:1041E000506800F0EFFD1F4948601C4A503252F8F9
:1041F00024101C4A906800F0E5FD1A498860601C94
:10420000C4B20A2CDEDB1749086800F0AFFD074690
:104210000022154B00F032F9824600F04DF828607C
:104220001049486800F0A2FD074600220E4B00F03E
:1042300025F9824600F040F830600A49886800F0AD
:1042400095FD07460022084B00F018F9824600F061
:1042500033F8C9F80000BDE8F09F0000A00100207D
:10426000B800002018020020000024402DE9F04191
:1042700006460F4600F0AAFB041E0D4618BF01209B
:10428000284320F00040C0F17F6000F1E040C00F03
:104290000ED0301C18BF0120384320F00040C0F180
:1042A0007F6000F1E040C00F04BF0120FBF7B6FFC4
:1042B00020462946BDE8F08121F00042A2F160527B
:1042C000B2F5801F01F0004328BFD2F17F6C0BD9FB
:1042D0005FEA001C43EAC20242EB507018BF70470D
:1042E00028BF20F001007047B2F5801FBCBF184600
:1042F00070474FEA410C1CF5001F02D2084600F03F
:10430000F4BF70B500F002FB00000089FFF7F6BFB4
:104310004FF00040A0F580007047000010B591EA12
:10432000030F48BF83F0004300F13E84841A71EB11
:10433000030C05D2121943EB0C03001B61EB0C01BB
:10434000DFF824E14FEA1154A4EB135C1EEA430F9B
:1043500018BF9EEA445F73D023EA0E03DCF1200EFF
:1043600021EA045143F4801332D322FA0CFE10EBFD
:104370000E0023FA0CFE41EB0E01CCF1200E03FAE5
:104380000EFE10EB0E0051F10001B1F5801FCCF1D3
:10439000200E32D201EB045112FA0EF2BDE81040A9
:1043A00058BF7047401C38BF5FEA420218BF7047D1
:1043B000002814BF20F0010041F100014FEA410341
:1043C00013F5001F38BF7047A1F1C04100F0ECBAEF
:1043D000012A43EB0302ACF1200CDCF11F0E32BFCB
:1043E0004FF0000E23FA0CF310EB030041EB0451E5
:1043F000B4EB115FD0D0A1EB045101F58011490855
:104400005FEA300001EB04510ED350F1000038BFD9
:1044100012FA0EFE08D1BDE81040C9E7401C38BFB3
:104420005FEA4202CAD1C3E7BDE810404FEA410348
:1044300013F5001F38BF7047A1F1C04100F0B4BAB6
:104440009EEA445F08D011EA5E0FBDE8104004BF49
:1044500001F0004100207047BDE8104070B500F049
:1044600055FA00BF64FBBE3E0000E0FF02494FF07A
:10447000000000F0F0BF00BF0000F87F2DE9C04150
:1044800030B4DFF8A0C23CEA111418BF3CEA1314A0
:1044900000F0EC8081EA03051CEA111444EAD574AB
:1044A00018BF1CEA131500F0C780A4EB05044FF0F9
:1044B000004545EAC12145EAC32341EA505143EA98
:1044C000525304F17F74994204F500344FEAC0203E
:1044D0004FEAC22208BF904200F09C804FEA136569
:1044E0000FF24016765D4FEA134506FB05F7C7F15C
:1044F000807706FB07F74FEAD737A7FB03687642BA
:10450000C8F58038A7FB06CE38BFA8F1010807FB25
:1045100008E64FF0000EA6FB028CE6FB03CEDCF1B2
:10452000000CCEF1004E38BFAEF1010EA6FB0C58C8
:104530004FF000074FF00005E6FB0E87A1FB08C611
:10454000A0FB07CE16EB0E0645F10005E1FB076563
:1045500015F1E04E7EBFA4F580345FEA46066D415A
:1045600016F1800745F100054FEA17274FEA066666
:1045700047EA0567A6F1DE46B6F1805F4FEA1525EA
:104580001FD9384624F0010C05EBC471BCF1FE6F55
:1045900001EB0C1102D8F0BCBDE8008124425CBFE5
:1045A00001F5801E9EEAC47F02D4F0BCBDE8008104
:1045B000244238D4F0BCA1F1C041BDE8004100F074
:1045C000F3B94FEAD22242EA43524FEAD323A7FB80
:1045D00002864FEAD02040EA415007FB03661EEAFC
:1045E0000E0F4FEAD12105FB026658BFA6EB00561D
:1045F000B6EB00564FEA520E4EEAC37E18EB0E0E93
:1046000056EB530EBDD518EB02085E417F1C55F1E9
:104610000005B6E74FF480154FF000074FF0000695
:104620004FF00008ADE7F0BC4FF0000001F1C041D1
:1046300001F00041BDE8008111EA0C1F0CEA1315DE
:1046400000D00CE013EA0C1F00F025804FF00000B2
:10465000F0BC81EA030101F00041BDE80081F0BC3B
:10466000BDE8004181EA030100F09EB9F0BCBDE85D
:10467000004170B500F04AF9097EFC3E00F007B831
:1046800081EA03014FF0000001F00041704781EA28
:10469000030100F089B9F0BCBDE800414FF0000013
:1046A00021497047FFFDFBF9F7F5F4F2F0EEEDEB71
:1046B000E9E8E6E4E3E1E0DEDDDBDAD8D7D5D4D320
:1046C000D1D0CFCDCCCBCAC8C7C6C5C4C2C1C0BF6C
:1046D000BEBDBCBBBAB9B8B7B6B5B4B3B2B1B0AF72
:1046E000AEADACABAAA9A8A8A7A6A5A4A3A3A2A156
:1046F000A09F9F9E9D9C9C9B9A9999989797969511
:1047000095949393929191908F8F8E8E8D8C8C8BAC
:104710008B8A898988888787868585848483838234
:10472000828181800000FF070000F87F4FEA41038B
:104730004FEA5353A3F58063D3F11E03C8BFD3F1EF
:10474000210C0CDD4FF0004242EAC12242EA5052F5
:1047500032FA03FC8CEAE17CACEBE1707047102B81
:10476000C4BF0020704703F5787CBCF1FF3F04D044
:104770006FF0004282EA2100704770B500F0C6F881
:104780004992248000207047F2E710F0004248BFB1
:104790004042B0FA80F310FA03F10AD0C3F11D03CE
:1047A00003F580634FEA415002EB035202EBD12143
:1047B00070474FF000007047DFF848C170B51CEA41
:1047C000111E1EBF1CEA13159EEA0C0F95EA0C0F72
:1047D00000F06F8081EA030423EA4C134EEAD47E92
:1047E00021EA4C1141F4801143F48013AE44A1FB43
:1047F000024CA0FB0365AEF17F7E361955EB0C052C
:10480000A1FB034C4CF10003A0FB021C16EB0C06B1
:10481000654153F10003094218BF46F0010613F445
:10482000007F0BD14FEA03314FEA0530340341EAF0
:10483000155140EA16506FF003020AE04FEAC32117
:104840004FEAC520F40241EA555140EA56506FF054
:10485000020202EB2E4201EB025585EACE710AD02C
:104860005FEA440C18BF24F0004450F1000041F10D
:10487000000120EAD47040F2FE7C624500D270BD97
:10488000A84214BF4FF080444FF04044002E08BFB0
:104890000024BEF1806FA8BFA1F1C041BDE8704007
:1048A00080F282804FF0000001F1C04101F0004130
:1048B00070479EEA0C0F0CEA131518BF95EA0C0F0F
:1048C00006D04FF0000081EA030E0EF0004170BDEB
:1048D00000F01CF88900013E00F007B800F009B8AC
:1048E0004FEA430C5FEA5C5C08D081EA030100F008
:1048F0005BB84FEA410C5FEA5C5CF6D14FF0000018
:10490000014970470000FF070000F87F0EF1020E1A
:104910002EF0030E5EF8046B364205D4012A43EBF9
:10492000030515F5001F12D8012841EB010C1CF5F9
:10493000001F0CD80ED14FEAD17C15F5001F0CEBEF
:104940004C0C0CF1020C08BF4CEBD37C04E04FF094
:10495000080C01E04FEAD37C0CEB4C0526FA05F677
:1049600006F00706B6F1040C06D20EEB860CBDE885
:1049700070404CF0010C6047DFE80CF0090B0202BC
:104980004FF000414FF00000A1F5002170BD194625
:104990001046012851EB010418BFD4F5001484BF60
:1049A000002001F0004170BD0808A0F500114FEA99
:1049B0003101704791EA030F10B581F000413FF5D6
:1049C000B5AC83F0004300F0EFB800002DE9F041F2
:1049D00001F5801CBCF5001FC0F2C3804FEA115CDA
:1049E00021EA0C510CF1FD0C41F480115FEA5C0CE2
:1049F0000CF5C07C01D3400049413DA4890241EA45
:104A0000905187028E0E0A0CA45D04FB04F602FB93
:104A100006F6C6F14046A4FB0662F60D46EA4226BB
:104A200006FB06F4A4FB01235242C3F1404338BF06
:104A30005B1EA6FB02420024E6FB0324D20B42EAE3
:104A40004446A6FB0623A1FB02E2A3FB07E4A4184D
:104A50004FF0000252F10002E3FB01426442C2F156
:104A6000404E38BFAEF1010EA6FB04234FF000020A
:104A7000E6FB0E32A2FB03464FF00004B61954F1D8
:104A80000004E2FB0264A1FB06E6A4FB07E816EBC8
:104A900008064FF0000858F10008E4FB0168764270
:104AA000C8F1405838BFA8F10108A2FB06E4A3FBF7
:104AB00008E52D194FF0000454F10004E2FB0854FE
:104AC000A1FB05E6A7FB04E818EB06084FF000067B
:104AD00056F10006E1FB048618F1200556F10006A8
:104AE000A809A8F11B08B10908F03F08B8F10A0F9E
:104AF00040EA86601CD901EB0C51BDE8F08100BF93
:104B0000FCF5EEE8E2DDD8D3CFCBC7C3C0BDB9B664
:104B1000B4B1AEACA9A7A5A3A19F9D9B9A98969569
:104B20009392908F8D8C8B898887868584838281F0
:104B3000A0FB006800FB01F208EB4208B8EB8728F5
:104B400007D5341858EB0104D5D5401C51F10001AC
:104B5000D1E7341A78EB0104CDD4401E71F1000185
:104B6000C9E75FEA4C0C5FEA9C5C0DD105D34FF0BE
:104B7000000001F00041BDE8F081BDE8F04170B5F2
:104B8000FFF7C4FE6DDBFFBEBDE8F0414FF0000053
:104B9000004970470000F87F10B591EA030F48BF45
:104BA00083F000433FF5C2AB841A71EB030C07D2CC
:104BB00012198CF0004C43EB0C03001B61EB0C0151
:104BC000DFF8A4E14FEA1154A4EB135C1EEA430F93
:104BD00018BF9EEA445F00F0B08023EA6E035242A1
:104BE00021EA0451C3EB6E0338BF5B1EDCF1200EDB
:104BF00025D322FA0CFE10EB0E0043FA0CFE41EB1B
:104C00000E01CCF1200E03FA0EFE10EB0E0051F156
:104C10000001CCF1200E29D412FA0EF201EB04515E
:104C2000BDE8104058BF7047401C1CBFB2F1004F98
:104C3000704700280CBF491C20F00100704712EBA0
:104C4000020E43EB030218BF4FF0010E4EEA420280
:104C5000ACF1200CDCF11E0E54D943FA0CFE10EB23
:104C60000E0051F1FF31CCF11E0ED5D50EF1010E23
:104C700012FA0EFE404141EB010101EB445C5FEA98
:104C80005C5C10D910EBDE7001EB045138BFBEF153
:104C9000004FBDE8104018BF704700280CBF491CEA
:104CA00020F00100704730D24FEAD42C11F50011EA
:104CB00024F400641BD0B1FA81F20B3AA41AA41EAA
:104CC000D2F12003914030FA03F31943904001EBF5
:104CD000CC71002C01EB0451BDE81040A8BF704717
:104CE00001F1C0414FF0000001F000417047B0FAFF
:104CF00080F310FA03F100D110BDE41A173C480507
:104D0000C90AE4E701EB045110BD491001EB04515D
:104D1000BDE810404FEA300002E04FF0000170475C
:104D20004A0008BF0042F8D0B2F5001F28BF704704
:104D300001F000414FF0000070479EEA445F07D049
:104D400011EA5E0FBDE8104004BF0021002070474B
:104D5000BDE8104070B5FFF7D9FD00BF40DFF63E5B
:104D600083F00041104670470000E0FF43004FEA27
:104D7000D30C4FEA3C0C43401FBF40070CF160517D
:104D800013F0FE4F70471CF0006F03D100200CF0B1
:104D9000004170470CF0004343EA507010B540EA00
:104DA000CC0000F05CFA00BF000000924FEA000166
:104DB000FFF7FABD4FF000414FF00000A1F50021D0
:104DC0007047000090EA010F48BF81F0004100F1F8
:104DD000D482421A3CBF801A89184FEAD0524FF051
:104DE0007F4C1CEA410FA2EBD15318BF9CEA026F23
:104DF00000F03B804FF0004C4CEA00204CEA0121CF
:104E000021FA03FC10EB0C0C1ED202F1FF325FEA18
:104E10001C2040EBC25038BF70471CF07F0F4FEA98
:104E2000400C18BFBCF17F4F38BF7047C3F120035F
:104E3000994008BF20F00100BCF17F4F38BF704798
:104E4000A0F1C04000F051BA4FEA3C00000A40EB2C
:104E5000C25028BF1CF0FF0F4FEA400CE6D018BF2D
:104E6000BCF17F4F38BF7047EAE79CEA026F05D07C
:104E700010EA5C0F08BF00F00040704710B500F06A
:104E8000EEF900BF64FBBE3E401058BFC0F1404089
:104E9000491058BFC1F140418142EFF30080704793
:104EA0004FF47F0C1CEAD0121EBF1CEAD11392EA09
:104EB0000C0F93EA0C0F00F0858090EA010F48BFB9
:104EC00042F4807240F4000C41F400002CF07F4169
:104ED00020F07F4000B58142A2EB03020FF2081CD4
:104EE000ACEB504EC0F100009EF800E04FEA4E0ED1
:104EF00000FB0EFC38BF49004FEA2C1C02F5FA02F9
:104F00000CFB0EF34FEACE1E4FEA112C4FEAC121E3
:104F10000EEB635E42EB22420EFB0CFC4FEA1C538D
:104F200000FB03114FEA112C4FEA01310EFB0CFC80
:104F30004FEADC4C00FB0C11C14228BF09184CEBB6
:104F400003335DF804EB10EB410143EBC250B2F5C3
:104F50007C0F38BF704729D512F0F00F1CBF00F14D
:104F6000C04000F0004070470081828384858687BE
:104F700088898B8C8D8E8F919293959697999A9C18
:104F80009D9FA0A2A3A5A7A8AAACAEB0B2B3B5B787
:104F9000B9BCBEC0C2C5C7C9CCCED1D4D7D9DCDF5D
:104FA000E2E6E9ECF0F3F7FAFE0000004FEA400C0D
:104FB0000CF1807CBCF17E4F28BF7047B0F1C0403F
:104FC00000F093B990EA010F0CEAD11348BF42F404
:104FD0008072624538BF634507D213F47F0F16D045
:104FE00080EA010000F00040704710B500F037F98A
:104FF000097EFC3E00F005B880EA010000F00040A8
:10500000704780EA010000F0004000F06EB912F431
:105010007F0F04BF0248704780EA010000F065B9C5
:105020000000C07F50EA010C00F113801CF5000F56
:1050300058BFBCF5000F01D48842704707D710F560
:10504000000F58BF11F5000F15D4884270478942F0
:1050500070471CF5000F04D5BCF5000FF7D5814251
:1050600070474FF0807C1CEB400F38BF1CEB410FAA
:1050700001D28142704710B500F0F1F89224490046
:105080004FF000504FF08051FFF7FEBE41000B0E75
:10509000D3F19E0208D950F400034FEA032323FA08
:1050A00002F048BF4042704710B500F0D8F800BF8A
:1050B00049922480002070476FF0004282EA20006D
:1050C0007047000010F0004148BF4042B0FA80F342
:1050D00010FA03F2C3F19D030BD051EAC35101EB67
:1050E0001220530638BF704700F1010008BF20F0BE
:1050F0000100704750EA010C00F113801CF5000F0D
:1051000058BFBCF5000F01D48842704707D710F58F
:10511000000F58BF11F5000F15D48842704789421F
:1051200070471CF5000F04D5BCF5000FF7D5814280
:1051300070474FF0807C1CEB400F38BF1CEB410FD9
:1051400001D28142704710B500F089F892244900DD
:105150004FF000504FF08051FFF796BE4FF47F0C98
:105160001CEAD0121EBF1CEAD11392EA0C0F93EA7C
:105170000C0F00F0478090EA010F48BF42F48072A4
:105180004FF0004C4CEA00204CEA012102EB0302F4
:10519000A0FB0113A2F50002002918BF43F0010390
:1051A0005B0028BF4FEA330342EB22425FEA132C35
:1051B0004CEBC2502EBFBCEB436FB2F57C0F704777
:1051C0004FEA036CBCF1004F08BF20F00100B2F5BC
:1051D0007C0F38BF70470BD582F0FF0212F5803F7D
:1051E000C8BF704700F1C040D8BF00F00040704712
:1051F00000F5000C5FEA4C0C48BF7047B0F1C040AE
:1052000000F073B890EA010F0CEAD11348BF42F4E2
:105210008072624538BF634504D280EA010000F025
:105220000040704710B500F01AF800BF8900013E39
:1052300000F007B800F009B85FEA410C5FEA1C6CA7
:1052400008D080EA010000F050B85FEA400C5FEA45
:105250001C6CF6D14FF00040A0F5800070470EF1B5
:10526000020E2EF0030E5EF8044B244204D44FEAE3
:105270004102B2F17F4F11D84FEA4003B3F17F4FA3
:105280000CD80ED14FEAD07CB2F17F4F0CEB4C0C16
:105290000CF1020C08BF4CEBD17C04E04FF0080C81
:1052A00001E04FEAD17C0CEB4C0324FA03F404F048
:1052B0000704B4F1040C06D20EEB840CBDE81040D8
:1052C0004CF0010C6047DFE80CF0070802024FF0D9
:1052D0000040A0F5800010BD0846420018BFD2F182
:1052E000807288BF00F0004010BDFF2141EAD0501D
:1052F000C005704751EA000C00F113801CF5000F47
:1053000058BFBCF5000F01D48142704707D711F593
:10531000000F58BF10F5000F15D481427047894225
:1053200070471CF5000F04D5BCF5000FF7D5884277
:1053300070474FF0807C1CEB410F38BF1CEB400FD7
:1053400001D28842704780EA010081EA000180EAC8
:105350000100FFF7F8BE80F0004090EA010F7FF5F2
:1053600038AD81F0004100F008B8000090EA010F6C
:1053700048BF81F000413FF52CAD421A04D882F0BD
:105380000042A0EB020011444FEAD0524FF07F4C94
:105390001CEA410FA2EBD15318BF9CEA026F4AD01E
:1053A0004FF0004C4CEA00204CEA012121FA03FCAA
:1053B000B0EB0C0C0FD412F0FE0F36D05FEA4C00AD
:1053C0001DD5001240EBC25038BF70471CF03F0F94
:1053D00018BF70470BE0A2F101025FEA1C2040EB0E
:1053E000C25038BF70471CF07F0F18BF7047C3F121
:1053F0002003994014BF401E20F001007047800830
:105400004FEA122308BF7047B0FA80FCA2EB0C02EF
:10541000CCF1280C60FA0CF093EA122F04BF00EBD9
:10542000C25070474FEAC3707047130A5FEADC103E
:1054300008BF7047F6E79CEA026F04D010EA5C0FE1
:1054400008BF0020704710B5FFF709FF40DFF63EA8
:1054500081F0004070470CF00F03092B08BF0820B3
:1054600000F059800A2B0BD0082B18BF704708BFDB
:105470001CF0400F0AD04FF000004FF000017047C1
:105480001CF0400F18BF4FF0004070471CF0100F89
:1054900008D020F0704300F07F4242EAD3014FEA87
:1054A0004370704700F0604021F07F4242EA000202
:1054B00001F07F4040EA727070474FF0FF0C4CF4EF
:1054C000E06C1CEA11531CBF9CEA030C9445C2BF5C
:1054D000DA4201EB02517047002B0DD0BCF1000FF6
:1054E0000FD0002A01F00041A4BF41F0E04141F09B
:1054F0007F614FF00000704701F000414FF0000065
:10550000704750EA01334FF09B0C18BF4CF0806C91
:105510007EF4ACAF70471CF4801F11D01CF4E02F58
:1055200003D06FEACC31490070474FF04050EFF3A1
:10553000008222F0704242EA000282F30088704743
:105540004FF000007047114310100111431010017B
:10555000555555555555C53F7D6FEB0312D6D4BFF4
:105560005544880E55C1C93F3B8F68B52882A4BFFA
:1055700088B20175E0EF493F09F7FD0DE13D023FBB
:105580004B2D8A1C273A03C0C88A599CE52A004043
:1055900059018D1B6C06E6BF82922EB1C5B8B33F90
:1055A0004FBB610567ACDD3F182D4454FB21E93F3B
:1055B0009BF681D20B73EF3F182D4454FB21F93F2A
:1055C000E2652F227F2B7A3C075C143326A6813CB0
:1055D000BDCBF07A8807703C075C143326A6913C5B
:1055E000C4EB98999999C9BF711623FEC671BCBFC7
:1055F0006D9A74AFF2B0B3BF9AFDDE522DDEADBF2F
:105600002F6C6A2C44B4A2BF0D5555555555D53F46
:10561000FF8300922449C23F6E204CC5CD45B73F61
:10562000513DD0A0660DB13FEB0D76244B7BA93FD9
:1056300011DA22E33AAD903F0000000000000000C4
:1056400060560008000000207C01000028010008CE
:105650009C5600087C010020E40900008401000839
:10566000C1126404204D505584A24A04C0090102AD
:1056700003040607080929146918053402040608FA
:105680000F10F0D8FFFF1027080147A640F850CFB1
:0C56900040E3803F091210E914014600BD
:04000005080000ED02
:00000001FF
