:020000040800F2
:10000000381D0020E90100085D1B0008BB16000830
:10001000591B0008211500082337000800000000C4
:100020000000000000000000000000007133000824
:100030002515000800000000FD2E0008853400088A
:10004000030200080302000803020008030200087C
:10005000030200080302000803020008030200086C
:10006000030200080302000803020008030200085C
:10007000030200080302000803020008030200084C
:10008000030200080302000803020008030200083C
:10009000030200080302000803020008030200082C
:1000A000030200080302000803020008030200081C
:1000B00003020008E93400080302000803020008F4
:1000C00003020008030200080302000803020008FC
:1000D00003020008030200080302000801350008BB
:1000E00003020008030200080302000800F002F8FF
:1000F00000F06BF80AA090E8000C82448344AAF157
:100100000107DA4501D100F060F8AFF2090EBAE854
:100110000F0013F0010F18BFFB1A43F0010318473B
:10012000806D0000A06D000010F8013B0A4413F040
:10013000030408BF10F8014B1D1108BF10F8015B44
:10014000641E05D010F8016B641E01F8016BF9D133
:10015000002D15D010F8014B03F00C030C2BA1EB74
:1001600004040ABF10F8013BA4EB8314A4EB03249E
:1001700005F1010314F8016B5B1E01F8016BF9D561
:10018000914238BF10F8013BD1D3704700230024BF
:1001900000250026103A28BF78C1FBD8520728BF97
:1001A00030C148BF0B607047662906F00A82002004
:1001B00070471FB500F0D0FA04000020002105F0C0
:1001C00007FBE0601FBD10B510BD00F0DDFB114660
:1001D000FFF7EFFF04F0EEFA00F0FBFB03B4FFF7CC
:1001E000F2FF03BC03F0B3FA09488047094800470F
:1001F000FEE7FEE7FEE7FEE7FEE7FEE7FEE7FEE7D7
:10020000FEE7FEE704480549054A064B7047000033
:1002100089340008ED00000838170020381D002040
:100220003819002038190020704700000FB4044925
:1002300010B503AA029800F07DFA10BC5DF814FB1B
:10024000300000202DE9F0410E46044600202062D7
:100250002046E168884730B3252805D0D4E901213C
:100260009047206A401CF2E7E16820460027884753
:10027000050018D0A5F14100192802D820354FF407
:1002800000673246294620462760FFF78DFF40B1C0
:10029000012804D0F61D26F007060836D8E7361DDB
:1002A000D6E72846DAE7206ABDE8F08110B5203AA3
:1002B000C0F00B80B1E81850203AA0E81850B1E81F
:1002C0001850A0E81850BFF4F5AF5FEA027C24BFD5
:1002D000B1E81850A0E8185044BF18C918C0BDE8CC
:1002E00010405FEA827C24BF51F8043B40F8043B95
:1002F00008BF7047D20728BF31F8023B48BF11F84A
:10030000012B28BF20F8023B48BF00F8012B7047A3
:10031000704770477047704770472DE9FF4F0C4694
:100320001E464FF0FF378BB0D2E90001DDF8608048
:100330000A908A46C1F30A5505B93D460021084690
:100340004FF00000BAF1000F00F4400005DA00EBB6
:1003500080004FF4400101EA50004FEA9059B9F192
:10036000010F00DDB9460A9850EA4A000ED044F663
:100370001050A5F2FF3545432F14B8F1000F1ED0E1
:100380007542291E1EDDC9F100021CE0B8F1010F03
:100390004FF0000001D0302103E0F24305E021548A
:1003A000401CB042FBDB30460022002121540B9957
:1003B000C1F80880C1E900200FB0BDE8F08FBD1B77
:1003C0006D1CDEE74A4600DA694206A800F066FACC
:1003D00006AB93E8070003AB83E8070050460A9991
:1003E00000F040FB8DE80700A0F500501F3800909A
:1003F0000398002D09DD42F21F014A46084403A973
:100400000390684600F09FFD08E0A0F500504A46C2
:100410001F3803A90390684600F0A9FD8DE8070086
:100420000004000C03D04FF0FF30410800E01046FC
:10043000B8F1000F03D00022009215461EE0751E91
:1004400005D400F08DF9303262556D1EF9D5B346F2
:100450000122084302D000227F1C04E020783028CB
:1004600001D100227F1E002A099786D01DE0112DA0
:1004700007DA00F075F9303262556D1C50EA01025E
:10048000F5D1084302D00098C8B10EE00021681EE3
:1004900005E0235C625C63542254401E491C814287
:1004A000F7DBAB46A81B401E0990002004F80B00A8
:1004B0000B98099AC0F80880C0E9002B7CE7112648
:1004C0004FF0000859E72DE9F04F88460446D21D49
:1004D00022F0070191B0D1E90001CDE90A0103F052
:1004E00022F902460B98C00F01D02D2007E02068AA
:1004F000810701D52B2002E0202101EAC000032A58
:10050000099001D0072A05DB03464146204600F04A
:1005100085F90BE12078800601D5E06900E006202E
:10052000B8F1650F814606D0B8F1660F18D0B8F162
:10053000670F70D131E00020B9F1110F009001DB9D
:10054000112301E009F101030AAA01A90CA8FFF790
:10055000E4FEDDE90C70002609F10105834647E061
:1005600001204B4600904FF000470AAA01A90CA8B1
:10057000FFF7D3FEDDE90DB00C995D46002610B9FA
:1005800009F101000D18B9EB050003D4C0F1FF36E5
:1005900009F10105A5EB09002BE0B9F1010F01DA22
:1005A0004FF001090020B9F1110F0090484601DD1C
:1005B000112300E003460AAA01A90CA8FFF7ADFE2B
:1005C000DDE90C704D4600268346207800070AD4EA
:1005D000AB4500DA5D4601A8012D04DD411911F893
:1005E000011C302907D04F4502DA17F1040F04DA55
:1005F000012082460FE06D1EEEE7002F02DCED1BAE
:100600003E4403E0781CA84200DD7D1CB81B00F1CD
:10061000010A4FF000472078000703D4AA4501DB08
:100620004FF0FF3A0021B7F1004F0DF143088DF86C
:10063000431024D002202B23002F01DA7F422D23E8
:100640000A21021EA0F1010000DC5FB197FBF1FC62
:1006500097FBF1F201FB1C7C17460CF1300C08F8FB
:1006600001CDEEE7A8F1010003702188090501D54D
:10067000452100E06521A0F1010800F8011C09985E
:100680000FA9A1EB0807FF1D00B10120411901EBE3
:10069000EA70A1693844081A401EA0612078C0069B
:1006A00002D42046AFF30080099828B1D4E9012193
:1006B0009047206A401C20622078C00622D5204640
:1006C000AFF300801EE0002E04DBB34502DD01A87D
:1006D000805D00E03020D4E901219047206A401C71
:1006E0002062761CAAF101005FEA000A0AD100F03C
:1006F00033F8C0680168405CD4E901219047206A62
:10070000401C2062281EA5F10105DCDC07E0D4E9CD
:10071000012118F8010B9047206A401C2062381E06
:10072000A7F10107F3DC2046AFF30080032011B0EE
:1007300043E60000074B70B50D467B4400F05BF8C4
:100740000446284600F018F910B14FF0FF3070BD94
:10075000204670BD3340000000487047F41600206A
:1007600030B5B0F10A024FEA900E71F100034EEA83
:10077000817EB0EB0E0061EB91014FEA101E4EEA54
:10078000017E10EB0E0041EB11114FEA102E4EEAE4
:10079000016E10EB0E0041EB11214FEA104E4EEAB4
:1007A000014E10EB0E0041EB1141401841F10001E8
:1007B0004FEAD00040EA41704FEAD10110EB8005CA
:1007C0004FEA810444EA907444EB01046D1944EB50
:1007D0000404521BA3414FF0000348BF0A3200D566
:1007E00030BD401C41F1000130BD000001694A1CD0
:1007F00002610878704700B58FB0CDE90131002162
:10080000059105497944CDE9031011466846FFF783
:1008100019FD0FB000BD0000E5FFFFFF2DE9F0411D
:100820001F46044603260168072A01F4006004DB22
:1008300008B116A505E016A503E008B115A500E06E
:1008400015A521F010002060A069C01EA0610FB1A5
:10085000401EA0612046AFF300804FB1D4E90121D2
:1008600038469047206A401C2062C01C206206E087
:10087000206AFAE7D4E9012115F8010B9047761EAA
:10088000F8D22046AFF30080BDE8F0814E414E0023
:100890006E616E00494E4600696E66002DE9F047B4
:1008A000814616468AB0334878440DC88DE80D005D
:1008B00030487844801C03AC0DC884E80D0041F634
:1008C0009B300844372190FBF1F290FBF1F5A5F144
:1008D000800501FB12041B3C02D56442012000E0AC
:1008E0000020DFF890A080460027FA44AAF1BE0A53
:1008F0000DE0E00709D03246684607EB47010AEBF6
:10090000810100F034FB8DE8070064107F1C002C8F
:10091000EFD1184F7F44AC3F18E0E80714D007EB45
:1009200004100DF1180A90E80E008AE80E00C06865
:10093000F04201D198190890324606A903A800F0A8
:1009400016FB03AB83E807006D10641C002DE4D197
:1009500032466946B8F1000F03A802D000F0F3FA5E
:1009600001E000F004FBC9E90001C9F808200AB061
:10097000BDE8F087DC650000007B00F08000704778
:1009800000487047D41600207546FFF7F9FFAE46C1
:1009900005006946534620F00700854618B020B58B
:1009A000FFF730FCBDE820404FF000064FF0000795
:1009B0004FF000084FF0000B21F00701AC46ACE807
:1009C000C009ACE8C009ACE8C009ACE8C0098D4674
:1009D000704710B50446AFF300802046BDE81040D4
:1009E000FFF7FCBB4FF0013C50F8042B51F8043BDF
:1009F0009A4221D1A2EB0C03934313EACC1317D1F3
:100A000050F8042B51F8043B9A4215D1A2EB0C0389
:100A1000934313EACC130BD150F8042B51F8043B49
:100A20009A4209D1A2EB0C03934313EACC13DBD017
:100A30004FF00000704700BFD01A01BAB1FA81F13F
:100A400001F0180122FA01F0CB40C1F12001DBB224
:100A5000C0B2C01A2CFA01F3D11A914311EAC311A2
:100A6000E6D170475FEA400C08BF91F0000F4FEAF3
:100A70008C234FEAC12243EA51514FEA1C5018BF60
:100A800000F5F0404FEA300018BF41F000415FEA46
:100A90006C5C00F02980BCF1FF3F08BF40F0804053
:100AA0007047130C06BF12044FF0100C4FF0000CEF
:100AB000130E04BF12020CF1080C130F04BF120135
:100AC0000CF1040C930F04BF92000CF1020CD30F35
:100AD00004BF52000CF1010C11464FF00002A0F1CE
:100AE0001F00A0EB0C00704711F0004F08BF7047CB
:100AF00031F000413FF4D5AF0B0C06BF09044FF0B5
:100B0000100C4FF0000C0B0E04BF09020CF1080C86
:100B10000B0F04BF09010CF1040C8B0F04BF8900FB
:100B20000CF1020CCB0F04BF49000CF1010CCCF10D
:100B30002003A0EB0C0022FA03F302FA0CF241EAC4
:100B4000030100F10100704720F07F4C80EA0300B0
:100B500023F07F47ACEB070303F57C5300F0004024
:100B600003F1FF032DE980494FEA154B09B44FEA21
:100B7000144325EA0B4E24EA03480FF2042606EB41
:100B8000132749083E785FEA320203FB0667C7F580
:100B9000000707FB06F64FEA54374FEAD64606F140
:100BA000020607FB066CCCF1005C4FEA1C472CEAFE
:100BB000074C07FB06F40CFB06F504EB15464FEA61
:100BC000961634BF00204FF000404FEAD13706FBA5
:100BD00007FC4FEA1C4C0CFB0BF7D21B03FB0CF77A
:100BE00061EB07010CFB0EF7B0EB074072EB17420D
:100BF0000CFB08F734BFA2EB0742B2EB074261EBF4
:100C000017414FEA0C444FEA910706FB07FC4FEAF5
:100C10001C4C0CFB0BF7B0EBC74072EB573203FBDD
:100C20000CF734BFA2EBC742B2EBC74261EB5731BE
:100C30000CFB0EF7B0EBC70072EB57720CFB08F71A
:100C400034BFA2EBC702B2EBC70261EB5771039F3F
:100C50004FEA816141EA921104EBCC044FEAD137AB
:100C60004FEA826206FB07FC42EA90124FEA80607C
:100C70004FEA1C4C0CFB0BF7D21B03FB0CF761EB90
:100C800007010CFB0EF7B0EB074072EB17420CFBB1
:100C900008F734BFA2EB0742B2EB074261EB174102
:100CA0004FEA8C554FEA910704EB9C2406FB07FCA6
:100CB0004FEA1C4C0CFB0BF7B0EBC74072EB573202
:100CC00003FB0CF734BFA2EBC742B2EBC74261EBA8
:100CD00057310CFB0EF7B0EBC70072EB57720CFBF1
:100CE00008F734BFA2EBC702B2EBC70261EB577142
:100CF00015EB4C254FEA816141EA92114FEA82627D
:100D00004FEAD13742EA901206FB07FC44F1000497
:100D10004FEA80604FEA1C4C0CFB0BF7D21B03FB25
:100D20000CF761EB07010CFB0EF7B0EB074072EB21
:100D300017420CFB08F734BFA2EB0742B2EB0742A5
:100D400061EB174115EB1C154FEA813141EA9241E5
:100D50004FEA823242EA90424FEA80304FEA0C7604
:100D600044F1000448EA03434EEA0B484FF0000EFA
:100D7000B2EB080C71EB030724BF624639464EEB19
:100D80000E0E4FF0000B0018524149414BEB0B0B7C
:100D9000B2EB080C71EB03077BF1000B24BF62463A
:100DA00039464EEB0E0E4FF0000B001852414941F0
:100DB0004BEB0B0BB2EB080C71EB03077BF1000B59
:100DC00024BF624639464EEB0E0E51EA020718BFA9
:100DD00046F0010616EB0E7655F1000254F10001C3
:100DE00003D5BDE88901BDE80088BDE88901BDE8FB
:100DF0000048B619524141EB0101A3F101037047CC
:100E000080807F7E7D7C7B7A797877767675747347
:100E1000727171706F6E6E6D6C6C6B6A6A69686806
:100E2000676666656464636362616160605F5F5E9C
:100E30005E5D5D5C5C5B5B5A5A5959585857575612
:100E40005655555554545353525252515150505077
:100E50004F4F4F4E4E4D4D4D4C4C4C4B4B4B4A4AC9
:100E60004A4949494848484747474746464645450D
:100E70004544444444434343434242424241414146
:100E8000002B26D4770021D01CB54FEA370703B4D6
:100E90004FF010004FF010014FF000000FBCBDE804
:100EA00010400BF1010BBBF1010F08BF5FEA170700
:100EB00022BF12F1010211F101014FF0004143F193
:100EC000000300F0004043EA00007047F9D35708E0
:100ED000DAE746EA064613F1400F4FEA16461FDDF1
:100EE00013F1200FDFBF16430A46002120335B4277
:100EF000C8D0C3F1200746EA064602FA07F74FEAD0
:100F0000164646EA0706C3F1200722FA03F201FA61
:100F100007F721FA03F14FF0000342EA0702B1E7B5
:100F200046EA020646EA06464FEA164646EA010641
:100F3000BCBF46EA0646360C4FF000034FF00002F5
:100F40004FF000019EE72DE9C048934630B491E888
:100F5000380007C831EA400C48BF34EA430C03D5D7
:100F6000FFF7F2FDFFF78CFFF0BCBDE800882DE92C
:100F7000C048934630B491E8380007C810F0804F5D
:100F800008BF13F0804F03D100F005F8FFF778FF9A
:100F9000F0BCBDE8008820F07F4780EA030023F022
:100FA0007F4C07EB0C03A3F57C5300F00040A3F14A
:100FB000FE0392F0000F00F0B38095F0000F00F0F8
:100FC00077802DE901494FEA11404FEA144621EAA2
:100FD000004800FB06FC24EA064708FB06F607FB70
:100FE00008F800FB07F718EB06484CEB164C4FEAE5
:100FF000124B18EB07484FEA15464CEB174022EA14
:101000000B4E0BFB06FC25EA06470EFB06F607FB1C
:101010000EFE0BFB07F71EEB064E4CEB164C4FF08B
:1010200000061EEB074E4CEB174B18EB0B0840F17C
:10103000000018EB0E0B58EB000840F100008F1A6F
:101040004FF000013CBFC943661B14BFB5EB040C55
:1010500000213CBFC943F61B4FEA17444EEA8E0EEF
:1010600027EA04454FEA1C4704FB07622CEA074CB9
:1010700005FB07F70CFB05F604FB0CFC16EB07461B
:1010800042EB174216EB0C4642EB1C421BEB0606EA
:1010900058EB0202414146EA9E0601D5BDE80189AE
:1010A000B619524141EB0101A3F10103BDE80189E9
:1010B0004FEA14454FEA114724EA054621EA074C56
:1010C00005FB07F406FB07F70CFB06F105FB0CFC20
:1010D00011EB074144EB17444FEA124711EB0C4167
:1010E00044EB1C4422EA074C05FB07F206FB07F71A
:1010F0000CFB06F605FB0CFC16EB074642EB174211
:1011000016EB0C4642EB1C456A1854F1000148BF2F
:101110007047B619524141EB0101A3F10103704739
:1011200095F0000F37D04FEA11424FEA144721EAF9
:10113000024624EA074C02FB07F106FB07F70CFB0B
:1011400006F402FB0CFC14EB074441EB17414FEA99
:10115000154714EB0C4441EB1C4125EA074C02FBFC
:1011600007F506FB07F70CFB06F602FB0CFC16EB7B
:10117000074645EB174516EB0C4645EB1C4212198A
:1011800051F1000148BF7047B619524141EB0101CE
:10119000A3F1010370474FEA14454FEA114724EACF
:1011A000054621EA074C05FB07F106FB07F70CFB98
:1011B00006F24FF0000605FB0CFC12EB074241EB78
:1011C000174112EB0C4251EB1C4148BF704792187B
:1011D00041EB0101A3F10103704721B1826842F0A4
:1011E0000102826003E0826822F00102826070479F
:1011F00010B504461248844208D10121401501F07F
:10120000ABFE0021601501F0A7FE17E00D488442F7
:1012100008D10121001501F09FFE0021201501F0E9
:101220009BFE0BE00848844208D10121C80301F06D
:1012300093FE00214FF4004001F08EFE10BD00002F
:101240000024014000280140003C014001460020EC
:101250008A6802F004020AB1012000E00020704711
:101260000146C86C80B270470246002013680B40EC
:101270000BB1012000E000207047014600208A6881
:1012800002F008020AB1012000E0002070470000CF
:1012900030B502460020002350680F4C20400D79E5
:1012A0000C6844EA05242043506090680B4C2040B1
:1012B000D1E902542C434D7944EA4504204390601F
:1012C000D06A20F470000C7C641EE4B2234340EA30
:1012D0000350D06230BD0000FFFEF0FFFDF7F1FFCC
:1012E000F0B504460D4600200021092D11DDE0680F
:1012F000A5F10A0606EB4607072606FA07F188431A
:10130000A5F10A0606EB460603FA06F10843E0607B
:101310000CE0206905EB4507072606FA07F188432C
:1013200005EB450603FA06F108432061072A0FDAA8
:10133000606B561E06EB86071F2606FA07F18843E8
:10134000561E06EB860605FA06F10843606322E0A6
:101350000D2A0FDA206BD61F06EB86071F2606FA2A
:1013600007F18843D61F06EB860605FA06F1084307
:10137000206310E0E06AA2F10D0606EB86071F2647
:1013800006FA07F18843A2F10D0606EB860605FA78
:1013900006F10843E062F0BD816841F00801816018
:1013A000704721B1826842F4A002826003E0826843
:1013B00022F4A00282607047816841F004018160DC
:1013C0007047000000B585B001214FF4017001F0B5
:1013D000B3FD4FF4004001F093FD1648FFF708FFFE
:1013E000002000908DF804008DF805004FF4602077
:1013F00002900020039002208DF8100069460D48ED
:10140000FFF746FF01210B48FFF7E7FE0948FFF70A
:10141000C3FF00BF0748FFF730FF0028FAD1054897
:10142000FFF7CAFF00BF0348FFF710FF0028FAD1FB
:1014300005B000BD0024014008B50121082001F0DD
:101440007BFD4FF40070ADF8000010208DF8030014
:1014500003208DF802006946044800F064F84FF458
:101460000071024800F0F3F808BD0000000C0140D4
:1014700008B502F0FBF94FF4A06000F055FD00F054
:1014800051FBFFF7D9FF00F01BF900F0B9FDFFF7A2
:1014900099FF4FF4E13004F047F900F089FB08E0D0
:1014A000102313A20021084600F054FF642002F02C
:1014B000FFF900F055FB0028F2D111480823322231
:1014C00000210090262000F059FD01E003F05EF9B4
:1014D0000C4800780028F9D000F030FD03F05EFFE2
:1014E00009A0FEF7A3FE0BA0FEF7A0FE08BD0000BA
:1014F0004E524632344C3031204572726F720000C9
:101500003600002000000020496E6974204F4BA374
:10151000A10D0A0053746172742E2E2E200D0A0044
:1015200000BFFEE770472DE9F04102460025002686
:10153000002000230024002791F803C00CF00F05C1
:1015400091F803C00CF0100CBCF1000F03D091F81F
:1015500002C04CEA050591F800C0BCF1000F31D083
:10156000146800202BE04FF0010C0CFA00F3B1F8E6
:1015700000C00CEA03069E4220D183004FF00F0CFE
:101580000CFA03F7BC4305FA03FC4CEA040491F897
:1015900003C0BCF1280F06D14FF0010C0CFA00FC7F
:1015A000C2F814C00AE091F803C0BCF1480F05D19D
:1015B0004FF0010C0CFA00FCC2F810C0401C0828C7
:1015C000D1D31460B1F800C0BCF1FF0F34DD546812
:1015D00000202EE000F1080C4FF0010808FA0CF38F
:1015E000B1F800C00CEA03069E4221D183004FF0FF
:1015F0000F0C0CFA03F7BC4305FA03FC4CEA040495
:1016000091F803C0BCF1280F05D100F1080C08FACD
:101610000CF8C2F8148091F803C0BCF1480F07D150
:1016200000F1080C4FF0010808FA0CF8C2F810801D
:10163000401C0828CED35460BDE8F081024600204B
:1016400093680B400BB1012000E00020704741611E
:10165000704701617047000010B50446072301225E
:1016600021460948FFF73CFE01210748FFF799FE94
:1016700000BF02210448FFF7F7FD0028F9D0024817
:10168000FFF7EEFD10BD0000002401402DE9F04100
:1016900007460C460025002608E03846FFF7DCFF29
:1016A0000544052002F004F9701CC6B2A642F4DB22
:1016B000B5FBF4F080B2BDE8F08100BFFEE70000AA
:1016C00008B50121142001F037FC2020ADF80000FE
:1016D00010208DF8030069461048FFF724FF2021F1
:1016E0000E48FFF7B6FF4FF49070ADF80000694662
:1016F0000B48FFF718FF4FF490710948FFF7A9FF57
:101700004FF46040ADF8000069460648FFF70BFF54
:101710004FF460410348FFF79CFF08BD00080140FB
:10172000000C01400010014010B5044614B1012026
:101730004249087041480078002856D04FF40041D3
:101740003F48FFF77BFFD8B14FF480413C48FFF79B
:1017500075FFA8B14FF400513948FFF76FFF78B11A
:101760004FF480713748FFF769FF48B120213648B0
:10177000FFF764FF20B120213248FFF75FFF98BBDD
:101780000A2002F095F800202C4908704FF400411F
:101790002B48FFF753FF08B9012010BD4FF48041DB
:1017A0002748FFF74BFF08B90220F6E74FF4005136
:1017B0002348FFF743FF08B90320EEE74FF4807199
:1017C0002048FFF73BFF08B90420E6E720211E4828
:1017D000FFF734FF08B90520DFE720211948FFF79C
:1017E0002DFF48BB0620D8E7FFE74FF4004114481F
:1017F000FFF724FF01281FD181031148FFF71EFFC7
:10180000012819D141030E48FFF718FF012813D111
:1018100001020C48FFF712FF01280DD120210A48D0
:10182000FFF70CFF012807D120210648FFF706FF2C
:10183000012801D1014908700020AEE729150020D8
:1018400000100140000C01400008014005480078EC
:10185000401E0449087008460078012801DA01207A
:10186000087070472D15002031480078801E0C2824
:101870005AD2DFE800F0060C131A21282F363D4417
:101880004B5201202A4908702A4908704DE0012076
:101890002749087002202749087046E001202449A2
:1018A00008700320234908703FE004202049087095
:1018B00002202049087038E004201D4908700120EA
:1018C0001C49087031E003201949087002201949A9
:1018D00008702AE007201649087001201549087091
:1018E00023E00720124908700220124908701CE00A
:1018F00004200F49087003200E49087015E00720E6
:101900000B49087003200B4908700EE001200849BC
:10191000087004200749087007E003200449087094
:1019200001200449087000E000BF00BF70470000BC
:101930002C1500202D15002010B501F00BFF3F489D
:10194000007804283FD004DC012807D0032871D197
:1019500027E0072850D00C286CD166E03848007882
:10196000012803D102203549087016E03448007878
:10197000022803D10320314908700EE03048007876
:10198000032803D104202D49087006E02C48007874
:10199000042802D10C202949087001202849087028
:1019A00049E027480078012802D10D20234908701A
:1019B00023480078022802D107202049087001201E
:1019C0001F49087037E01E480078022802D1052020
:1019D0001A4908701A480078012802D106201749D0
:1019E000087017480078032802D10A2013490870AC
:1019F0000120134908701EE011480078012802D127
:101A000008200E4908700E480078022802D10920EB
:101A10000A4908700A480078032802D10B200749B8
:101A2000087001200649087005E00120044908708B
:101A300001E0FFE700BF00BF10BD00002C15002033
:101A40002D15002024480078401C234908702348A5
:101A50000078072824D006DC012809D003280FD0FD
:101A6000042835D114E00C2822D00D2830D127E0ED
:101A700019480078042802DD04201749087028E07E
:101A800015480078042802DD04201349087020E07E
:101A900011480078042802DD04200F49087018E07E
:101AA0000D480078032802DD03200B49087010E080
:101AB00009480078012802DD01200749087008E084
:101AC00005480078152802DD15200349087000E05C
:101AD00000BF00BF704700002D1500202C1500200E
:101AE0007047704710B50446072C17D2DFE804F0A2
:101AF0001604070A0D101300FFF7A8FE0FE0FFF70A
:101B0000B3FE0CE0FFF718FF09E0FFF79BFF06E0CC
:101B1000FFF7E6FF03E0FFF7E4FF00E000BF00BFD0
:101B200010BD000008B50121082001F005FAC02011
:101B3000ADF8000010208DF8030003208DF802009E
:101B400069460448FFF7EFFCC0210248FFF781FD1A
:101B500008BD0000000C014000BFFEE77047000018
:101B60001CB511A103C9CDE90001082001F0B4FBA7
:101B700005226946302000F069F9052269461020E7
:101B800000F0B0F8002406E01DF80400A52800D0FD
:101B900003E0601CC4B2052CF6DB00BF052C01D0AD
:101BA00001201CBD0020FCE7A5A5A5A5A5000000FF
:101BB00000B587B001210C2001F0BEF94FF4806020
:101BC000ADF8180010208DF81B0003208DF81A00C6
:101BD00006A92948FFF7A7FC4FF48050ADF818007C
:101BE00006A92648FFF79FFC4FF40060ADF81800E7
:101BF00028208DF81B0006A91F48FFF794FC4FF41E
:101C000040611D48FFF723FD4FF480511B48FFF74B
:101C10001EFD01F0EDFA0021194801F071FB0020D2
:101C2000ADF804004FF48270ADF806000020ADF866
:101C30000800ADF80A00ADF80C004FF40070ADF8E4
:101C40000E001820ADF810000020ADF8120007209B
:101C5000ADF8140001A90A4801F06CFB0121084805
:101C600001F04EFB00200749086001200649C1F839
:101C7000A80107B000BD000000080140000C0140B1
:101C800000380040B08121420000214210B5002000
:101C900011490860052211492A2000F0D7F80121D6
:101CA000212000F0F1F80121222000F0EDF8282198
:101CB000252000F0E9F82021312000F0E5F80F217F
:101CC000262000F0E1F80F21202000F0DDF80120AF
:101CD0000349C1F8B00110BDB0812142CB650008B5
:101CE000008021422DE9F04107460D4616460020AE
:101CF0000A490860384601F0C5FA8046002405E02C
:101D0000FF2001F0BFFA2855601CC4B2B442F7DBD3
:101D10000120024908604046BDE8F081A801214247
:101D200070B50446002007490860204601F0AAFA71
:101D3000FF2001F0A7FA054601200349C1F8A801D8
:101D4000284670BDA80121420000214270B504461A
:101D5000102001F0C1FA0720FFF7E2FF05462946EF
:101D6000272000F091F805F0400050B120222146D4
:101D70006120FFF7B7FFFF21E22000F085F8002087
:101D800070BD0120FCE7000010B500201449086078
:101D900005221449302000F059F8052212492A2062
:101DA00000F054F80121212000F06EF801212220DA
:101DB00000F06AF81A21242000F066F82821252076
:101DC00000F062F80F21262000F05EF80E2120209E
:101DD00000F05AF801200549C1F8B00110BD00001B
:101DE000B0812142C6650008CB6500080080214211
:101DF00070B50546102001F06FFA20222946A02078
:101E000000F024F801200F49086000BF0E48006868
:101E10000028FBD10720FFF783FF04462146272037
:101E200000F032F804F0100028B1FF21E12000F0AA
:101E30002BF8102070BD04F0200008B12020F9E735
:101E4000FF20F7E7B08121422C0121422DE9F0412A
:101E500007460C46154600200A490860384601F03E
:101E600011FA8046002605E014F8010B01F00AFA89
:101E7000701CC6B2AE42F7DB012002490860404642
:101E8000BDE8F081A801214270B505460C4600204E
:101E900007490860284601F0F5F90646204601F09A
:101EA000F1F901200349C1F8A801304670BD0000D6
:101EB000A80121420000214270B5002100230F2219
:101EC000C47804B3154C246804F4E064C4F5E064F9
:101ED000210AC1F10403CA40447804FA03F184786A
:101EE0001440214309010E4C0678A155047804F0F2
:101EF0001F050124AC4005786D11AD0005F1E0250A
:101F0000C5F8004109E0047804F01F050124AC4045
:101F1000044D0678761145F8264070BD0CED00E0C2
:101F200000E400E080E100E002490143024A116060
:101F3000704700000000FA050CED00E070B50024C9
:101F400019E004F1B001C8B2002100F021FA00212B
:101F5000084600F01DFA0021102000F019FA0025B3
:101F600005E00121002000F013FA681CC5B2802DA5
:101F7000F7DB601CC4B2082CE3DB70BD2DE9F05F19
:101F800006460F4690461C46DDF828A04FF0000B91
:101F900008EB060000F0FF08E019C4B2E11704EBFB
:101FA0005171C910A4EBC10131B92046E11704EB0E
:101FB0005171C1F3C70506E02046E11704EB5171EA
:101FC000C910491CCDB23D4615E02946304600F007
:101FD000DBF8B1460BE059460BF1010B1AF8010092
:101FE000012100F0D5F909F1010000F0FF09C14518
:101FF000F1DB681CC5B2A542E7DBBDE8F09F00003D
:1020000008B50121042000F097FF4FF46070ADF88F
:10201000000010208DF8030003208DF802006946AF
:102020005748FFF780FA4FF460715548FFF711FBEE
:102030000121082000F080FF4FF48170ADF800000E
:1020400010208DF8030003208DF8020069464D48EA
:10205000FFF769FA4FF481714A48FFF7FAFA4FF433
:1020600080714748FFF7F5FA642001F021FC4FF436
:1020700080714348FFF7EBFAC82001F019FC4FF4D8
:1020800080713F48FFF7E5FA0021AE2000F080F9AB
:102090000021084600F07CF90021102000F078F9BA
:1020A0000021402000F074F90021812000F070F937
:1020B0000021CF2000F06CF90021A12000F068F988
:1020C0000021C82000F064F90021A62000F060F98A
:1020D0000021A82000F05CF900213F2000F058F911
:1020E0000021D32000F054F90021084600F050F9F7
:1020F0000021D52000F04CF90021802000F048F9A3
:102100000021D92000F044F90021F12000F040F92D
:102110000021DA2000F03CF90021122000F038F90B
:102120000021DB2000F034F90021402000F030F9DC
:102130000021202000F02CF90021022000F028F9D5
:1021400000218D2000F024F90021142000F020F956
:102150000021A42000F01CF90021A62000F018F9AD
:102160000021AF2000F014F90021AF2000F010F999
:10217000FFF7E4FE0021084600F006F808BD000065
:1021800000080140000C014070B504460D4605F101
:10219000B001C8B2002100F0FBF8102141EA141090
:1021A000002100F0F5F804F00F0141F001000021DA
:1021B00000F0EEF870BD00002DE9F04180460E46BB
:1021C0001546002731464046FFF7DEFF00240AE0AF
:1021D000124A02EB8511085D012100F0D9F8781C44
:1021E000C7B2601CC4B2102CF2DB701CC1B24046F6
:1021F000FFF7CAFF00240CE06900491C074A02EB04
:102200004111085D012100F0C3F8781CC7B2601CC1
:10221000C4B2102CF0DBBDE8F081000028070020DC
:102220002DE9F04707460D469046994600260024C2
:10223000072D00DD0725A8F12000C6B27F2F02DDA3
:102240000027A81CC5B2B9F1100F24D12946384681
:10225000FFF79AFF002408E004EB0611194A505CCE
:10226000012100F095F8601CC4B2082CF4DB681C56
:10227000C1B23846FFF788FF002409E004EB0611DD
:102280000831104A505C012100F082F8601CC4B291
:10229000082CF3DB13E0681CC1B23846FFF774FF6B
:1022A00000240AE006EB4601074A02EB4101085D03
:1022B000012100F06DF8601CC4B2062CF2DBBDE811
:1022C000F0870000F8670008D06500082DE9FF5F7F
:1022D000074691461E460E9D4FF0000A002435E049
:1022E000301B401EC1B20A2003F04CF8B9FBF0F0DD
:1022F0000A21B0FBF1F201FB1208BAF1000F14D170
:10230000701EA04211DDB8F1000F0CD1AB4605EBF9
:10231000DB71491001FB0471C8B22B4620220199E0
:10232000FFF77EFF10E04FF0010AAB4605EBDB71D3
:10233000491001FB0471C8B208F13001CAB22B4642
:102340000199FFF76DFF00BF601CC4B2B442C7DB48
:10235000BDE8FF9F2DE9F04104460F46154698461B
:1023600000260FE0AA5D434639462046FFF758FF96
:1023700004F10800C4B2782C02DD0024B81CC7B2F6
:10238000701CC6B2A85D0028ECD1BDE8F081000049
:1023900070B504460E462EB14FF400711548FFF794
:1023A00058F904E04FF400711248FFF750F9002586
:1023B00017E080210F48FFF74AF904F0800020B1B0
:1023C00002210D48FFF745F903E002210A48FFF713
:1023D0003EF980210748FFF73CF96006040E681CAF
:1023E000C5B2082DE5DB4FF400710248FFF731F963
:1023F00070BD000000080140000C01402DE9F041D3
:102400000446162C7BD2DFE804F07A0B172F4758CE
:10241000697B8C9FB2C3D4E5FEFCFBFAF9F8F7F6B2
:10242000A84800686438A749086008460068002882
:1024300001DA0020086041E1A348006803F074FE5F
:1024400005460022A14B03F085FD074603F0D6F9AF
:102450009D49086000219C48006803F033FF02D2C8
:1024600000209949086029E19948006803F05CFE62
:1024700005460022954B03F06DFD074603F0BEF9BB
:102480009349086000219248006803F01BFF02D2C4
:1024900000208F49086011E18E49C8684FF07E51D5
:1024A00004F01AF88B49C860C868002103F00AFFDD
:1024B00002D200208749C86000E1864908694FF0D0
:1024C0007E5104F009F8834908610869002103F08E
:1024D000F9FE02D200217F480161EFE07D494869A1
:1024E0004FF07E5103F0F8FF7A49486148690021B6
:1024F00003F0E8FE02D2002176484161DEE0DCE034
:102500007449486A4FF07E5103F0E6FF7149486212
:10251000486A002103F0D6FE02D200216D484162D4
:10252000CCE06C49886A4FF07E5103F0D5FF01463C
:10253000684881620146886A002103F0C3FE02D226
:10254000002164488162B9E06249C86A4FF07E5157
:1025500003F0C2FF01465F48C1620146C86A00211C
:1025600003F0B0FE02D200215A48C162A6E05949E8
:1025700008684FF07E5103F0AFFF564908600868C5
:10258000002103F09FFE02D200205249086095E02E
:10259000504948684FF07E5103F09EFF4D49486016
:1025A0004868002103F08EFE02D2002049494860AD
:1025B00084E0484988684FF07E5103F08DFF45491B
:1025C00088608868002103F07DFE02D20020414926
:1025D000886073E03F4988694FF07E5103F07CFFCB
:1025E0003C4988618869002103F06CFE02D200201A
:1025F0003849886162E057E04DE043E038E02DE083
:1026000023E011E0FFE73349C8694FF07E5103F042
:1026100063FF3049C861C869002103F053FE02D24C
:1026200000212C48C16149E02A49086A4FF07E51D7
:1026300003F052FF27490862086A002103F042FEB6
:1026400002D200212348016238E02249C86B4FF0D2
:102650007E5103F041FF1F49C8632FE01D49086CFC
:102660004FF07E5103F038FF01461A48016425E01F
:102670001849486C4FF07E5103F02EFF0146154873
:1026800041641BE01349086B4FF07E5103F024FFB7
:102690001049086312E00F49486B4FF07E5103F078
:1026A0001BFF0C49486309E00A49886B4FF07E51D3
:1026B00003F012FF0749886300E000BF00BFBDE8D8
:1026C000F0810000981500209C1500200000244097
:1026D000A01500208C1600202DE9F0410446162C90
:1026E0007ED2DFE804F07D0B17293B52698299B254
:1026F000CBE2FEFDFCFBFAF9F8F7F6F5DA480068E4
:102700000A38D949086008460068002801DA002024
:102710000860A5E14FF07E51D448006803F0DCFE6C
:10272000D24908600021D148006803F0CBFD02D2F5
:102730000020CE49086093E14FF07E51CC480068FC
:1027400003F0CAFECA4908600021C948006803F0C6
:10275000B9FD02D20020C649086081E1C549C868B8
:1027600003F0E2FC0746C44AC44B03F0F3FB054602
:1027700003F044F8BF49C860C868002103F0A2FD17
:1027800002D20020BB49C8606AE1BA49086903F077
:10279000CBFC0746B84AB94B03F0DCFB054603F017
:1027A0002DF8B44908610869002103F08BFD02D2BD
:1027B0000021B048016153E1AE49486903F0B4FC1F
:1027C0000746AD4AAD4B03F0C5FB054603F016F8CE
:1027D000A84948614869002103F074FD04D200E073
:1027E0003DE10021A34841613AE1A249486A03F072
:1027F0009BFC0746A04AA14B03F0ACFB054602F048
:10280000FDFF9C494862486A002103F05BFD02D24B
:1028100000219848416223E19649886A03F084FCCC
:102820000746954A954B03F095FB054602F0E6FFF7
:102830000146904881620146886A002103F042FD0A
:1028400002D200218B4881620AE18A49C86A03F0FA
:102850006BFC0746884A894B03F07CFB054602F077
:10286000CDFF01468348C1620146C86A002103F0DA
:1028700029FD02D200217F48C162F1E07D4908684C
:1028800003F052FC07467C4A7C4B03F063FB054691
:1028900002F0B4FF774908600868002103F012FDD8
:1028A00002D2002073490860DAE07249486803F0F8
:1028B0003BFC0746704A714B03F04CFB054602F0A7
:1028C0009DFF6C4948604868002103F0FBFC09E06B
:1028D000B6E0A6E096E085E074E064E04CE034E029
:1028E0001CE004E002D2002062494860B8E061497F
:1028F000886803F019FC07465F4A604B03F02AFB27
:10290000054602F07BFF5B4988608868002103F080
:10291000D9FC02D2002057498860A1E05549886956
:1029200003F002FC0746544A544B03F013FB0546E0
:1029300002F064FF4F4988618869002103F0C2FCFE
:1029400002D200204B4988618AE04A49C86903F0F5
:10295000EBFB0746484A494B03F0FCFA054602F0F8
:102960004DFF4449C861C869002103F0ABFC02D2A5
:1029700000214048C16173E03E49086A03F0D4FB7E
:1029800007463D4A3D4B03F0E5FA054602F036FFA7
:1029900038490862086A002103F094FC02D2002141
:1029A000344801625CE03349C86B03F0BDFB074665
:1029B000314A324B03F0CEFA054602F01FFF2D4993
:1029C000C8634DE02B49086C03F0AEFB07462A4A6A
:1029D0002A4B03F0BFFA054602F010FF01462548D6
:1029E00001643DE02349486C03F09EFB0746224A00
:1029F000224B03F0AFFA054602F000FF01461D48E6
:102A000041642DE01B49086B03F08EFB07461A4A10
:102A10001A4B03F09FFA054602F0F0FE15490863D1
:102A20001EE01449486B03F07FFB0746124A134B24
:102A300003F090FA054602F0E1FE0E4948630FE00C
:102A40000C49886B03F070FB07460B4A0B4B03F0F5
:102A500081FA054602F0D2FE0649886300E000BF15
:102A600000BFBDE8F0810000981500209C150020F3
:102A7000A01500208C1600209A9999999999B93F30
:102A80002DE9F0410446162C71D2DFE804F0D60B94
:102A900011202F38414A535D67717A838C959EA728
:102AA000B1BBC4CD67480068643066490860C5E0C2
:102AB0006548006803F038FB05460022634B02F0CE
:102AC000CFFE074602F09AFE5F490860B6E0604814
:102AD000006803F029FB054600225C4B02F0C0FEB3
:102AE000074602F08BFE5A490860A7E05949C868BA
:102AF0004FF07E5103F044FB5649C8609EE05549B3
:102B000008694FF07E5103F03BFB5249086195E0A4
:102B1000504948694FF07E5103F032FB4D494861FE
:102B20008CE04C49486A4FF07E5103F029FB49493B
:102B3000486283E04749886A4FF07E5103F020FBEA
:102B400001464448816279E04249C86A4FF07E51AB
:102B500003F016FB01463F48C1626FE03D4908683B
:102B60004FF07E5103F00CFB3A49086066E064E0E8
:102B7000384948684FF07E5103F002FB3549486000
:102B80005CE0344988684FF07E5103F0F9FA31492E
:102B9000886053E02F4988694FF07E5103F0F0FAC6
:102BA0002C4988614AE02B49C8694FF07E5103F0F7
:102BB000E7FA2849C86141E02649086A4FF07E518A
:102BC00003F0DEFA2349086238E02249C86B4FF06F
:102BD0007E5103F0D5FA1F49C8632FE01D49086CE8
:102BE0004FF07E5103F0CCFA01461A48016425E00B
:102BF0001849486C4FF07E5103F0C2FA014615485F
:102C000041641BE01349086B4FF07E5103F0B8FAA2
:102C10001049086312E00F49486B4FF07E5103F0F2
:102C2000AFFA0C49486309E00A49886B4FF07E51BE
:102C300003F0A6FA0749886300E000BF00BFBDE8C3
:102C4000F0810000981500209C1500200000244011
:102C5000A01500208C1600202DE9F0410446162C0A
:102C600070D2DFE804F06F0B111A233241505F700D
:102C7000808F9EADBCCBDAE9FDFBFAF9994800687C
:102C80000A309849086029E14FF07E519648006863
:102C900003F076FA9449086020E14FF07E519348A2
:102CA000006803F06DFA9149086017E19049C8681F
:102CB00003F03AFA07468F4A8F4B02F0D1FD0546E2
:102CC00002F09CFD8A49C86008E18949086903F05F
:102CD0002BFA0746874A884B02F0C2FD054602F0F0
:102CE0008DFD83490861F9E08149486903F01CFAC8
:102CF0000746804A804B02F0B3FD054602F07EFD98
:102D00007B494861EAE07A49486A03F00DFA0746D0
:102D1000784A794B02F0A4FD054602F06FFD744934
:102D20004862DBE07249886A03F0FEF90746714A9F
:102D3000714B02F095FD054602F060FD01466C48BE
:102D40008162CBE0C9E06A49C86A03F0EDF9074641
:102D5000684A694B02F084FD054602F04FFD0146CA
:102D60006348C162BAE06249086803F0DDF90746CA
:102D7000604A614B02F074FD054602F03FFD5C497C
:102D80000860ABE05A49486803F0CEF90746594A53
:102D9000594B02F065FD054602F030FD544948608C
:102DA0009CE05349886803F0BFF90746514A524BEB
:102DB00002F056FD054602F021FD4D4988608DE088
:102DC0004B49886903F0B0F907464A4A4A4B02F07A
:102DD00047FD054602F012FD454988617EE0444901
:102DE000C86903F0A1F90746424A434B02F038FD97
:102DF000054602F003FD3E49C8616FE03C49086AA0
:102E000003F092F907463B4A3B4B02F029FD054689
:102E100002F0F4FC3649086260E03549C86B03F003
:102E200083F90746334A344B02F01AFD054602F097
:102E3000E5FC2F49C86351E02D49086C03F074F993
:102E400007462C4A2C4B02F00BFD054602F0D6FC3F
:102E500001462748016441E030E020E010E0FFE750
:102E60002349486C03F060F90746224A224B02F0DE
:102E7000F7FC054602F0C2FC01461D4841642DE006
:102E80001B49086B03F050F907461A4A1A4B02F027
:102E9000E7FC054602F0B2FC154908631EE0144940
:102EA000486B03F041F90746124A134B02F0D8FC75
:102EB000054602F0A3FC0E4948630FE00C49886BFD
:102EC00003F032F907460B4A0B4B02F0C9FC0546EA
:102ED00002F094FC0649886300E000BF00BFBDE833
:102EE000F0810000981500209C150020A0150020FE
:102EF0008C1600209A9999999999B93F70470000CA
:102F000001460020034A506820F4404008435060C6
:102F1000704700000010024029B1064AD2690243FE
:102F2000044BDA6104E0034AD2698243014BDA615F
:102F3000704700000010024029B1064A926902431E
:102F4000044B9A6104E0034A92698243014B9A61FF
:102F5000704700000010024029B1064AD2680243BF
:102F6000044BDA6004E0034AD2688243014BDA6022
:102F7000704700000010024030B5002100220024FC
:102F800000232D4D6D6805F00C0121B1042905D0F9
:102F9000082923D105E0294D056022E0274D056071
:102FA0001FE0254D6D6805F47012234D6D6805F422
:102FB0008034022505EB92421CB9214D5543056032
:102FC0000BE01D4D6D6805F400351DB11C4D5543DA
:102FD000056002E0194D5543056002E0174D05609C
:102FE00000BF00BF144D6D6805F0F0010909154DD3
:102FF0006B5C0568DD4045600F4D6D6805F4E06170
:10300000090A104D6B5C4568DD4085600A4D6D68AE
:1030100005F46051C90A0B4D6B5C4568DD40C56025
:10302000054D6D6805F44041890B074D6B5CC56823
:10303000B5FBF3F5056130BD0010024000127A00C7
:1030400000093D00180000202800002010B50121D3
:103050000320FEF71BFB5E49088001210820FEF7D4
:1030600015FB5C49088001210220FEF70FFB5A493D
:10307000088001210846FEF709FB5849088054489A
:103080000088B0F57A7F0DDD5148008840F6B831F0
:10309000884207DA4F480088884203DD0120504902
:1030A000087040E04A480088B0F57A7F0EDD484855
:1030B000008840F6B831884208DA46480088B0F502
:1030C0007A7F03DA0320464908702CE040480088E4
:1030D000B0F57A7F0EDA3F480088B0F57A7F09DDD7
:1030E0003C48008840F6B831884203DA02203C4967
:1030F000087018E03648008840F6B83188420CDD88
:1031000034480088B0F57A7F07DD3248008888426D
:1031100003DA04203249087005E0052030490870C0
:103120000120304908702C480088B0F57A7F0DDD09
:103130002948008840F6B831884207DA27480088D5
:10314000884203DD01202849087040E022480088B9
:10315000B0F57A7F0EDD2048008840F6B83188420D
:1031600008DA1E480088B0F57A7F03DA03201E498A
:1031700008702CE018480088B0F57A7F0EDA1748FE
:103180000088B0F57A7F09DD1448008840F6B83130
:10319000884203DA02201449087018E00E480088BB
:1031A00040F6B83188420CDD0C480088B0F57A7FD3
:1031B00007DD0A480088884203DA04200A490870BB
:1031C00005E005200849087001200849087010BD75
:1031D0008E150020901500209215002094150020D7
:1031E0008A1500208C1500208B1500208D150020DD
:1031F00000B587B001210820FFF79EFE012188035A
:10320000FFF78AFE4FF46040ADF8180018208DF8E3
:103210001B0003208DF81A0006A91848FEF783F951
:103220004FF460411548FEF714FA0020ADF8040091
:103230004FF48270ADF806000020ADF808000220BF
:10324000ADF80A000120ADF80C004002ADF80E0008
:103250003820ADF810000020ADF812000720ADF8BE
:10326000140001A9064800F065F80121044800F0A7
:1032700047F8FF2000F006F807B000BD000C014041
:103280000038004070B50546002405E0601CC4B25B
:10329000C82C01DD002070BD02210E4800F03CF872
:1032A0000028F3D029460B4800F042F8002405E03E
:1032B000601CC4B2C82C01DD0020ECE701210548E8
:1032C00000F02AF80028F3D0024800F02EF8C0B22F
:1032D000E1E700000038004010B5044607480088C8
:1032E0004FF6C7710840054908800846008820430A
:1032F00008800121014800F003F810BD00380040AB
:1033000021B1028842F04002028004E002884FF6B8
:10331000BF731A40028070470246002013890B4099
:103320000BB1012000E000207047014688897047FA
:103330008181704710B50022028802F441520B8847
:103340004C8823438C882343CC8823430C89234314
:103350004C8923438C892343CC8923431A4302801D
:10336000838B4FF2FF74234083830B8A038210BD4B
:10337000704710B500F002F810BD00000CB5002039
:10338000019000903348006840F480303149086073
:1033900000BF3048006800F4003000900198401CE5
:1033A0000190009818B90198B0F5A06FF1D12948A3
:1033B000006800F4003010B10120009001E000200E
:1033C00000900098012843D12348006840F0100085
:1033D000214908600846006820F00300086008469C
:1033E000006840F0020008601A48406819494860C7
:1033F0000846406848600846406840F4806048607D
:103400000846406820F47C1048600846406840F454
:10341000E81048600846006840F08070086000BF0F
:103420000C48006800F000700028F9D00948406896
:1034300020F00300074948600846406840F0020059
:10344000486000BF0348406800F00C000828F9D12C
:103450000CBD00000010024000200240042808D1EA
:103460004FF0E021096941F004014FF0E0221161C1
:1034700007E04FF0E021096921F004014FF0E0225C
:10348000116170477047000010B51348006840F0A4
:1034900001001149086008464068104908400E497B
:1034A0004860084600680E4908400B490860084615
:1034B000006820F4802008600846406820F4FE0080
:1034C00048604FF41F008860FFF753FF4FF0006023
:1034D0000449086010BD0000001002400000FFF821
:1034E000FFFFF6FE08ED00E010B50121014800F0F5
:1034F00003F810BD00040040CA4302827047000078
:1035000010B540F225511D4800F04AF810B31B4891
:1035100000F002F9C4B21A48008800F40040C8B9AB
:103520001748008800F4804060B10A2C03D00020C6
:103530001349088020E01248008840F400401049F8
:10354000088019E00D2C06D10D48008840F4804019
:103550000B49088010E00A480088C0F30D000949B3
:103560000C5407480088401C05490880084600881C
:10357000C72801DD0020088010BD00000048004081
:1035800034000020A415002021B1828942F40052A9
:10359000828104E082894DF6FF731A408281704770
:1035A00070B50246002400230025002040F66A166C
:1035B000B14200D100BFC1F3421501F01F03012643
:1035C00006FA03F3012D02D19689334006E0022D5D
:1035D00002D1168A334001E0968A33400C1201264C
:1035E00006FA04F41688344013B10CB1012000E04F
:1035F000002070BDF0B50346002400260025002001
:1036000040F66A17B94200D100BF1846C1F3421410
:1036100001F01F06012707FA06F5012C01D10C3035
:1036200004E0022C01D1103000E014301AB1076818
:103630002F43076002E00768AF430760F0BD00005A
:103640002DE9F04786B005460E460024A24600BF8D
:10365000A1460027B08900B100BF2F462C8A4CF646
:10366000FF700440F08804432C82AC894EF6F310BE
:103670000440B08831890843718908430443AC8110
:10368000AC8A4FF6FF400440B0890443AC8201A8E5
:10369000FFF772FC1F48874202D1DDF810A001E05D
:1036A000DDF80CA0A88900F4004040B10AEBCA0084
:1036B00000EB0A1031684900B0FBF1F807E00AEBB3
:1036C000CA0000EB0A1031688900B0FBF1F86420F1
:1036D000B8FBF0F004012009642101FB1089A889DE
:1036E00000F4004040B1322000EBC900B0FBF1F023
:1036F00000F00700044308E0322000EB09106421C9
:10370000B0FBF1F000F00F0004432C8106B0BDE8DF
:10371000F08700000038014001468888C0F30800A7
:10372000704700BFFEE7490050EAC12018BF0420DF
:103730004A0D18BF40F0010040F2FF72B2EB515F3A
:1037400008BF40F00200012808BF0520704701466D
:1037500000BF704710B516480078012804D0032830
:103760001CD0072821D106E012480078012801D199
:1037700000F04AF81AE00F480078012801D100F063
:1037800047F80C480078022801D100F045F80948B4
:103790000078032801D100F02FF807E005480078F1
:1037A000012801D100F02CF800E000BF00BF10BDDF
:1037B0002C1500202D15002010B5002004490860AC
:1037C00001200449C1F8A801FEF760FA10BD00000D
:1037D000B08121420000214210B500200449086058
:1037E00001200449C1F8A801FEF7CEFA10BD00007F
:1037F000B08121420000214210B5FFF7DDFF10BD6E
:1038000010B5FFF7E9FF10BD10B5FFF7E5FF10BDDC
:1038100010B5FFF7E1FF10BD10B5FFF7CDFF10BDEC
:1038200010B511480078801E0C2819D2DFE800F08E
:103830000618181809180C0F1812181501F022FA9A
:103840000FE001F0FBFB0CE001F018FD09E001F0D6
:103850007FFD06E000F0CEFF03E001F0FFF800E09E
:1038600000BF00BF10BD00002C15002010B56FF088
:103870000400FFF7F3FD0A4800680A49B0FBF1F0C5
:10388000094908700846007800EB4001C1EBC01000
:103890004FF6FF7101EAC0000449088010BD000026
:1038A0000400002000127A002C0000202E000020CE
:1038B0000146114A12884A434FF0E0235A61002220
:1038C0009A611A46126942F001021A6100BF4FF074
:1038D000E022106900F001021AB100F48032002ADF
:1038E000F5D04FF0E022126922F001024FF0E02300
:1038F0001A6100229A6170472E00002010B51B4803
:1039000000780E282FD2DFE800F02E070A0D1013E2
:1039100016191C1F2225282B00F02AF824E000F09D
:10392000AFF821E000F096F91EE000F011FA1BE07C
:1039300000F08CFA18E000F015FB15E000F028FB11
:1039400012E000F08DFB0FE000F0A6FB0CE000F0B1
:10395000BFFB09E000F018FC06E000F049FC03E0C2
:1039600000F070FC00E000BF00BF10BD2C1500206F
:1039700008B5022200213020FEF71EFC03220021A0
:103980004020FEF719FC002211465020FEF714FCDF
:10399000012200216020FEF70FFC042202213020CA
:1039A000FEF70AFC052202214020FEF705FC00225A
:1039B00002215020FEF700FC012202216020FEF7C8
:1039C000FBFB062204213020FEF7F6FB0722042130
:1039D0004020FEF7F1FB002204215020FEF7ECFB13
:1039E000012204216020FEF7E7FB2422062130207B
:1039F000FEF7E2FB252206214020FEF7DDFB002238
:103A000006215020FEF7D8FB012206216020FEF798
:103A1000D3FB19480078012806D002280DD00328CE
:103A200014D0042824D11AE01448022318220021BB
:103A300000901020FEF7A2FA1BE010480223182283
:103A4000194600901020FEF799FA12E00B48022365
:103A50001822042100901020FEF790FA09E0074890
:103A600002231822062100901020FEF787FA00E0BA
:103A700000BF00BF08BD00002D150020720500200A
:103A800008B5002211461046FEF796FB01220021E0
:103A90001020FEF791FB022200212020FEF78CFB74
:103AA000032200213020FEF787FB61480223102209
:103AB000042100901820FEF761FA5D4802231022CD
:103AC000042100905020FEF759FA102004230090A2
:103AD0005848002102684820FEF7F8FB5648007855
:103AE000012808D1554802231022194600901820B9
:103AF000FEF744FA07E052480223102219460090CC
:103B00001820FEF73BFA4C480078022808D14D48AF
:103B100002231022042100902820FEF72FFA07E04C
:103B2000474802231022042100902820FEF726FA9D
:103B300041480078032808D1434802231022062177
:103B400000901820FEF71AFA07E03D4802231022E1
:103B5000062100901820FEF711FA37480078042853
:103B600008D13A4802231022042100900820FEF7D1
:103B700005FA07E0324802231022042100900820B1
:103B8000FEF7FCF932480078012808D12B480223BF
:103B90001022194600905020FEF7F0F907E028485F
:103BA00002231022194600905020FEF7E7F928481A
:103BB0000078022808D12348022310220421009013
:103BC0006020FEF7DBF907E01D48022310220421E4
:103BD00000906020FEF7D2F91D480078032808D134
:103BE000194802231022062100905020FEF7C6F942
:103BF00007E0134802231022062100905020FEF710
:103C0000BDF913480078042808D110480223102277
:103C1000042100904020FEF7B1F907E00848022394
:103C20001022042100904020FEF7A8F908BD0000F2
:103C300022060020981500208A150020A2050020E9
:103C40006C16002002060020C2050020E2050020BC
:103C50008B15002008B5082200213020FEF7ACFAB1
:103C6000092200214020FEF7A7FA0422002150205B
:103C7000FEF7A2FA052200216020FEF79DFA0A2233
:103C800002213020FEF798FA0B2202214020FEF795
:103C900093FA042202215020FEF78EFA0522022117
:103CA0006020FEF789FA0C2204213020FEF784FA06
:103CB0000D2204214020FEF77FFA042211465020F5
:103CC000FEF77AFA052204216020FEF775FA0E222B
:103CD00006215020FEF770FA0F2206216020FEF721
:103CE0006BFA19480078012806D002280DD0032865
:103CF00014D0042824D11AE01448022318220021E9
:103D000000901020FEF73AF91BE010480223182219
:103D1000194600901020FEF731F912E00B480223FB
:103D20001822042100901020FEF728F909E0074826
:103D300002231822062100901020FEF71FF900E050
:103D400000BF00BF08BD00002D1500207205002037
:103D500008B5102200213020FEF72EFA1122002192
:103D60004020FEF729FA062200215020FEF724FA0F
:103D7000072200216020FEF71FFA122202213020C4
:103D8000FEF71AFA132202214020FEF715FA062246
:103D900002215020FEF710FA072202216020FEF7D0
:103DA0000BFA142204213020FEF706FA1522042112
:103DB0004020FEF701FA062204215020FEF7FCF90C
:103DC000072204216020FEF7F7F90E220621502079
:103DD000FEF7F2F90F2206216020FEF7EDF91948EF
:103DE0000078012806D002280DD0032814D004281A
:103DF00024D11AE014480223182200210090102038
:103E0000FEF7BCF81BE01048022318221946009068
:103E10001020FEF7B3F812E00B4802231822042109
:103E200000901020FEF7AAF809E0074802231822A4
:103E3000062100901020FEF7A1F800E000BF00BFAF
:103E400008BD00002D1500207205002008B50121D5
:103E50000320FDF71BFC3349088001210820FDF7F2
:103E600015FC3149088001210220FDF70FFC2F4984
:103E7000088001210846FDF709FC2D490880012131
:103E80000420FDF703FC2B49088010232AA20021FF
:103E90000846FEF75FFA102329A202210020FEF750
:103EA00059FA102328A200214020FEF753FA1023CC
:103EB00027A202214020FEF74DFA102326A204215A
:103EC0000020FEF747FA10200423009015480288CE
:103ED00000211820FEF7FAF9102004230090124860
:103EE000028802211820FEF7F1F910200423009027
:103EF0000E48028800215820FEF7E8F9102004231C
:103F000000900B48028802215820FEF7DFF91020AC
:103F1000042300900748028819463020FEF7D6F99E
:103F200008BD00008E15002090150020921500207D
:103F300094150020961500204C583A2000000000EF
:103F40004C593A200000000052583A20200000004E
:103F500052593A2020200000504F5745523A202015
:103F60002000000010B5102200210846FEF724F9B9
:103F7000112200211020FEF71FF906220021202027
:103F8000FEF71AF9072200213020FEF715F910BDBF
:103F900008B5162200213020FEF70EF91722002165
:103FA0004020FEF709F9042200215020FEF704F911
:103FB000052200216020FEF7FFF8182202213020A0
:103FC000FEF7FAF8192202214020FEF7F5F8042244
:103FD00002215020FEF7F0F8052202216020FEF7B2
:103FE000EBF81C2204213020FEF7E6F81D22042104
:103FF0004020FEF7E1F81E2204215020FEF7DCF8F5
:104000001F2204216020FEF7D7F81348007801280A
:1040100004D002280BD003281BD111E00F48022343
:104020001822002100901020FDF7A8FF12E00B4895
:1040300002231822194600901020FDF79FFF09E087
:10404000064802231822042100901020FDF796FF55
:1040500000E000BF00BF08BD2D1500207205002044
:1040600010B5162200210846FEF7A6F817220021F7
:104070001020FEF7A1F81A2200212020FEF79CF85C
:104080001B2200213020FEF797F810233A2200214E
:104090004020FEF7C5F810BD10B5182200210846D3
:1040A000FEF78AF8192200211020FEF785F81A225F
:1040B00000212020FEF780F81B2200213020FEF78F
:1040C0007BF810233A2200214020FEF7A9F810BD0A
:1040D00008B52A480078012808D12948022310226F
:1040E000194600903820FDF749FF07E025480223D4
:1040F0001022194600903820FDF740FF1F48007835
:10410000022808D11E4802231022042100904820D2
:10411000FDF734FF07E01B48022310220421009022
:104120004820FDF72BFF15480078032808D11448D4
:1041300002231022042100902820FDF71FFF07E032
:10414000104802231022042100902820FDF716FFBA
:104150000A480078042808D10948022310220621C1
:1041600000903820FDF70AFF07E0064802231022DE
:10417000062100903820FDF701FF08BD281500201A
:10418000420600206206002010B51C2200210846CD
:10419000FEF712F81D2200211020FEF70DF81E2256
:1041A00000212020FEF708F81F2200213020FEF712
:1041B00003F8102308A202210020FEF7CBF81023F9
:1041C00007A204210020FEF7C5F8102306A206214D
:1041D0000020FEF7BFF810BD50696374683A000014
:1041E000526F6C6C3A2000005961773A2020000031
:1041F00008B5242200213020FDF7DEFF2522002112
:104200004020FDF7D9FF002211465020FDF7D4FFD2
:10421000012200216020FDF7CFFF08480078012827
:1042200008D1074802231822002100901020FDF732
:10423000A5FE00E000BF00BF08BD00002D15002056
:104240007205002008B5312200210846FDF7B4FFB1
:10425000322200211020FDF7AFFF04220021202090
:10426000FDF7AAFF052200213020FDF7A5FFFE483B
:10427000007816287ED2DFE800F07D0B0C0D2F3081
:1042800031828384D3D4D5FDFCFBFAF9F8F7F6F537
:1042900000BF00BF332202211020FDF78DFF342222
:1042A00002212020FDF788FF10233A22022130202E
:1042B000FDF7B6FF102004230090EC4802210268AD
:1042C0003820FEF703F810233B2202215820FDF787
:1042D000A7FF01F08BF803E200BF00BF1023E4A2A8
:1042E00000214020FEF736F8262202211020FDF79B
:1042F00063FF282202212020FDF75EFF10235022B9
:1043000002213020FDF78CFF10233A2202213820B1
:10431000FDF786FF262204211020FDF74DFF2822FD
:1043200004212020FDF748FF1023492204213020DA
:10433000FDF776FF10233A2204213820FDF770FFA5
:10434000262206211020FDF737FF282206212020F3
:10435000FDF732FF1023442206213020FDF760FFD5
:1043600010233A2206213820FDF75AFFC24B5A6922
:10437000196900E0B3E1D86801F0F8F8B0E100BFD6
:1043800000BF1023BDA200214020FDF7E3FF26223D
:1043900002211020FDF710FF282202212020FDF726
:1043A0000BFF1023502202213020FDF739FF10238C
:1043B0003A2202213820FDF733FF26220421102063
:1043C000FDF7FAFE282204212020FDF7F5FE102338
:1043D000492204213020FDF723FF10233A22042133
:1043E0003820FDF71DFF262206211020FDF7E4FEF0
:1043F000282206212020FDF7DFFE1023442206217B
:104400003020FDF70DFF10233A2206213820FDF75A
:1044100007FF994BDA6A996A586A01F0A7F85FE1D9
:1044200000BF00BF102392A200214020FDF792FFA1
:10443000272202211020FDF7BFFE28220221202082
:10444000FDF7BAFE1023502202213020FDF7E8FECE
:1044500010233A2202213820FDF7E2FE2722042110
:10446000102008E0DBE0D9E0D7E087E085E083E0DA
:1044700033E031E02FE0FDF79FFE282204212020C9
:10448000FDF79AFE1023492204213020FDF7C8FED3
:1044900010233A2204213820FDF7C2FE27220621EC
:1044A0001020FDF789FE282206212020FDF784FE3A
:1044B0001023442206213020FDF7B2FE10233A22B9
:1044C00006213820FDF7ACFE6B4B9A6859681868D6
:1044D00001F04CF804E100BF00BF102367A20021E7
:1044E0004020FDF737FF272202211020FDF764FE50
:1044F000282202212020FDF75FFE102350220221F6
:104500003020FDF78DFE10233A2202213820FDF7DE
:1045100087FE272204211020FDF74EFE28220421C9
:104520002020FDF749FE1023492204213020FDF709
:1045300077FE10233A2204213820FDF771FE27224E
:1045400006211020FDF738FE282206212020FDF745
:1045500033FE1023442206213020FDF761FE102394
:104560003A2206213820FDF75BFE434B1A6AD969CF
:10457000986900F0FBFFB3E000BF00BF102341A229
:1045800000214020FDF7E6FE262202211020FDF743
:1045900013FE282202212020FDF70EFE10235022B8
:1045A00002213020FDF73CFE10233A220221382060
:1045B000FDF736FE262204211020FDF7FDFD2822FE
:1045C00004212020FDF7F8FD10234922042130208A
:1045D000FDF726FE10233A2204213820FDF720FEA5
:1045E000262206211020FDF7E7FD282206212020A3
:1045F000FDF7E2FD1023442206213020FDF710FED6
:1046000010233A2206213820FDF70AFE1A4B5A6C75
:10461000196CD86B00F0AAFF62E000BF00BF102346
:1046200018A200214020FDF795FE2722022110202C
:10463000FDF7C2FD282202212020FDF7BDFD102339
:10464000502202213020FDF7EBFD10233A220221F7
:104650003820FDF7E5FD272204211020FDF7ACFDF1
:104660002822042120200FE02D150020981500207D
:1046700050697463680000008C160020526F6C6CE7
:104680000000000059415700FDF796FD1023492214
:1046900004213020FDF7C4FD10233A2204213820E4
:1046A000FDF7BEFD272206211020FDF785FD2822FB
:1046B00006212020FDF780FD102344220621302012
:1046C000FDF7AEFD10233A2206213820FDF7A8FDA4
:1046D000244B9A6B596B186B00F048FF00E000BF49
:1046E00000BF21480078162839D2DFE800F0380BE7
:1046F0001A290C1B2A0D1C2B0E1D2C0F1E2D101FF2
:104700002E11202F00BF00BF00BF00BF00BF00BFA1
:10471000164802231022194600900020FDF72EFCB7
:104720001EE000BF00BF00BF00BF00BF00BF0F48BA
:1047300002231022042100900020FDF71FFC0FE04F
:1047400000BF00BF00BF00BF00BF00BF074802237B
:104750001022062100900020FDF710FC00E000BFB1
:1047600000BF08BD8C1600202D1500202206002059
:1047700000BF054A128802F04002002AF9D0C2B2F6
:10478000014B1B1D1A8070470048004010B50020E7
:10479000FCF7CAFF054908700846007810B10120EF
:1047A000034908700A20FFF783F810BD2815002080
:1047B00000000020FCF75CFE17E00A20FFF778F805
:1047C000FFF79CF80020FCF7AFFF08490870084687
:1047D000007840B1002006490860FDF7AFFB0348B0
:1047E0000078FDF77FF9FFF71BF8E6E728150020B2
:1047F000988121422DE9F04F8DB004A8FDF7A6FA6B
:1048000000287CD19DF810004D28FAD19DF81100A8
:104810005028F6D19DF812005528F2D18848DDF8CD
:10482000131001608748DDF8171001608648DDF835
:104830001B100160006801F077FC04460D468148BA
:10484000006801F071FC06460F467D48006801F0E3
:104850006BFC804642460B467CA0CDE90067CDE963
:104860000245FBF7E3FC7648006801F0F7FC82465E
:10487000504601F00FFD064671480168304601F0D0
:1048800021FE0546744901F051FD044601F0E6FCA5
:104890008346BAF1000001DB014600E041428A464E
:1048A000BBF1000001DB014600E041428B460021E4
:1048B0006348006801F006FD06D210232D22022174
:1048C0003020FDF7ADFC05E010232022022130202E
:1048D000FDF7A6FC10200323524602210090382049
:1048E000FDF7F4FC10232E2202215020FDF798FC46
:1048F000102003235A4602210090582000E09BE03C
:10490000FDF7E4FC4F48006801F0A8FC82465046E1
:1049100001F0C0FC06464B480168304601F0D2FD6C
:1049200005464D4901F002FD044601F097FC83461F
:10493000BAF1000001DB014600E041428A46BBF1CA
:10494000000001DB014600E041428B4600213D486A
:10495000006801F0B7FC06D210232D22042130207C
:10496000FDF75EFC05E01023202204213020FDF736
:1049700057FC102003235246042100903820FDF7F5
:10498000A5FC10232E2204215020FDF749FC102005
:1049900003235A46042100905820FDF797FC2A482B
:1049A000006801F05BFC8246504601F073FC06464D
:1049B00025480168304601F085FD0546264901F08D
:1049C000B5FC044601F04AFC8346BAF1000001DB65
:1049D000014600E041428A46BBF1000001DB01468E
:1049E00000E041428B4600211748006801F06AFC54
:1049F00006D210232D2206213020FDF711FC05E000
:104A00001023202206213020FDF70AFC102003236A
:104A10005246062100903820FDF758FC10232E2224
:104A200006215020FDF7FCFB102003235A460621E7
:104A300000905820FDF74AFC0DB0BDE8F08F000053
:104A40005C150020601500206415002025662C25CB
:104A5000662C25660A00000000007A4410B57F48E5
:104A6000007805280ED130207D4948707D480068C7
:104A700008B9012000E000207A4908607848FDF775
:104A8000B7F9A8E0754800780628FAD17548001DE6
:104A9000006808B9012000E000207249091D086083
:104AA00071480078012816DB6F480078032812DC73
:104AB00033206B49487008466C490968C0F80210F9
:104AC0006B490968C0F806106A490968C0F80A10FD
:104AD000FDF78EF97FE064480078042826DB624801
:104AE0000078092822DC31205D4948700846624977
:104AF000C968C0F8021001465F480069C1F80600A5
:104B00005D484069C1F80A005B48406AC1F80E0080
:104B10005948806AC1F812005748C06AC1F81600A7
:104B2000452088760846FDF763F954E04E48007842
:104B30000A2826DB4C4800780F2822DC322048491E
:104B4000487008464C490968C0F802104A4949684B
:104B5000C0F8061048498968C0F80A1046498969B2
:104B6000C0F80E1001464448C069C1F8120042481E
:104B7000006AC1F81600452088760846FDF738F926
:104B800029E039480078102825DB374800781528B7
:104B900021DC3420324948703748C06BC1F802002C
:104BA0003548006CC1F806003348406CC1F80A0073
:104BB00008463149096BC0F80E1001462E48406B7B
:104BC000C1F812002C48806BC1F816004520887689
:104BD0000846FDF70DF9FEF739FA28480078012854
:104BE0000BD127480078012807D11F480078FDF72E
:104BF00047FF0020224908702EE020480078032853
:104C00000BD11F480078012807D117480078FDF71D
:104C1000F5FB00201A4908701EE0184800780428A7
:104C20000BD117480078012807D10F480078FDF70D
:104C300053FD0020124908700EE010480078022849
:104C40000AD10F480078012806D107480078FEF7FE
:104C500003F800200A49087010BD00002815002044
:104C600068150020988121422D15002098150020FC
:104C70009C150020A01500208C1600208A1500200D
:104C80008C1500202DE9FC5FD448007805280BD155
:104C9000D348006808B9012000E00020D04908602E
:104CA0004D20D049887032E0CC48007806280DD1DC
:104CB000CB48001D006808B9012000E00020C84969
:104CC000091D08604120C749887020E0C34800786A
:104CD00001280BD1C248006808B9012000E000207B
:104CE000BF4908604420BF49087010E0BB48007805
:104CF00004280CD1BA48001D006808B9012000E062
:104D00000020B749091D08604120B6490870B54820
:104D10008278102300217020FDF782FA0121032000
:104D2000FCF7B4FCB049088001210820FCF7AEFC78
:104D3000AE49088001210220FCF7A8FCAC4908809C
:104D400001210846FCF7A2FCAA490880A648008871
:104D5000B0F57A7F0FDDA448008840F6B83188426C
:104D600009DAA248008840F6C411884203DD012018
:104D7000A149087042E09C480088B0F57A7F0EDDBA
:104D80009948008840F6B831884208DA9748008888
:104D90004910884203DA0320974908702EE09248B0
:104DA000008840F2DC5188420DDA90480088B0F566
:104DB0007A7F08DD8D4800884900884203DA0220A6
:104DC0008D4908701AE08848008840F6C41188426E
:104DD0000EDD86480088B0F57A7F09DD83480088BB
:104DE00040F6B831884203DA04208349087005E0B0
:104DF0000520814908700120804908707C4800889E
:104E0000B0F57A7F0DDD7A48008840F6B8318842E7
:104E100007DA78480088884203DD01207849087065
:104E200040E073480088B0F57A7F0EDD7048008856
:104E300040F6B831884208DA6E480088B0F57A7FCB
:104E400003DA03206E4908702CE069480088B0F549
:104E50007A7F0EDA67480088B0F57A7F09DD654809
:104E6000008840F6B831884203DA022064490870AD
:104E700018E05F48008840F6B83188420CDD5D4894
:104E80000088B0F57A7F07DD5A480088884203DA47
:104E900004205B49087005E005205949087001208D
:104EA000584908705448007801281ED14F4800889E
:104EB00000F033FF0022544BCDE9000101F04AF825
:104EC00080460022514B00F073FD06460022504BF5
:104ED00000F036FF044600224E4B00F0C1FC824633
:104EE00000F0BEFE4C49086026E0434800780328E5
:104EF0001ED13E48008800F010FF06460022434BBA
:104F000001F01CF880460022404B00F051FD0446A1
:104F10000022424B00F014FF824600223D4B01F07C
:104F20000DF8CDE9000100F09BFE3B49086003E06D
:104F30004FF41670384908602F480078022803D1D2
:104F40003748384908600AE02B480078042803D124
:104F500035483449086002E000203249086028489A
:104F60000078012803D13148314908600AE024481B
:104F70000078032803D12F482D49086002E0002063
:104F80002B4908601E480078022803D127482A4987
:104F900008600AE01A480078042803D12548264909
:104FA000086002E00020244908601B4800680028CF
:104FB00002DA0020184908600A4817490968416068
:104FC0001B49096881601C490968C1601549096865
:104FD0000161FCF70DFFBDE8FC9F000028150020D3
:104FE000988121422E1500208E150020901500205A
:104FF00092150020941500208A1500208C150020A1
:105000008B1500208D1500200088A340007097406C
:105010000000694000C082409815002000005940FF
:105020000000A0C1581500200000A0410000204150
:1050300050150020000020C1541500202DE9F04F2C
:1050400087B01824002501210420FCF71FFB7D49AF
:1050500008800846008800F060FE00227A4BCDE907
:10506000000100F0A5FC07460022784B00F068FE26
:105070004FF06632764BCDE9020100F061FECDE9DA
:10508000040100F0BBFB8146484601F04DF807469D
:10509000704A714B00F05EFF00224FF08043CDE973
:1050A000000100F085FC00226C4BCDE9020100F00C
:1050B00047FECDE9040100F003FE00F0FF0BBBF159
:1050C000640F01DD4FF0640B484601F02DF80746F0
:1050D000604A614B00F03EFF00224FF08043CDE973
:1050E000000100F065FC00225D4BCDE9020100F0FB
:1050F00027FECDE9040100F0E3FDC6B2422E00DD3B
:105100004226484601F0AAF80690069801F0C2F837
:105110004946059001F0D6F98046524901F006F95A
:10512000074601F09BF882464F4801235022022196
:1051300000902046FCF722FF4C4801235022042116
:1051400000902046FCF71AFF494804F14A010090FC
:10515000C8B2012304220321FCF710FF4548611C5B
:105160000090C8B201231A460321FCF707FF41480B
:10517000A11C0090C8B201231A460321FCF7FEFED1
:1051800000250BE03B48A11D29440090C8B2012333
:105190001A460321FCF7F2FE681CC5B2B542F1DBEA
:1051A00035460BE03448A11D29440090C8B20123C4
:1051B0001A460321FCF7E2FE681CC5B2422DF1DB62
:1051C000202206210020FCF7F7FF212206211020D3
:1051D000FCF7F2FF222206212020FCF7EDFF23221C
:1051E00006213020FCF7E8FF10233A220621402058
:1051F000FDF716F810200123009006215020069A92
:10520000FDF764F810232E2206215820FDF708F838
:10521000102002235246062100906020FDF756F828
:10522000102003235A46002100904820FDF74EF835
:105230001023252200216020FCF7F2FF07B0BDE813
:10524000F08F0000961500200000B04000000840DC
:1052500066660A409A9999999999054000005940C3
:10526000008050400000C84282060020D206002084
:1052700024070020220700202307002010B58AB051
:105280002422204901A8FBF711F800208DF8240002
:105290001D480078012833D11C48006808B9012056
:1052A00000E00020194908601948D0F89C0108B9AD
:1052B000012000E000201549091D086001A8FCF745
:1052C00097FD0446202C0CD1102312A206210020A9
:1052D000FDF740F8102301AA02210020FDF73AF85B
:1052E0000EE0102C06D110230FA206210020FDF79E
:1052F00031F805E0102311A206210020FDF72AF85D
:105300000AB010BDE86D00082815002098812142E0
:105310000080214253756363657373212020202030
:1053200020202020000000004D41585F54582120CB
:1053300020202020202020200000000053656E64E3
:10534000204661696C656421202020200000000057
:1053500000B589B06846FCF7F9FC70B900208DF8FB
:105360002000102306A200215020FCF7F3FF102399
:105370006A4602210020FCF7EDFF09B000BD0000E5
:105380004F4B210010B50246012000E050430B1E98
:10539000A1F10104E1B2F9D110BD000000201049D3
:1053A000C86000210E4841614162C162C16341642D
:1053B00000200B4908604860886088610021084827
:1053C000C16101620020064908630021044841636D
:1053D00081630020034908600349086070470000AA
:1053E0008C1600209C150020A01500202DE9F84304
:1053F000102357A204211846FCF7ACFF10233A22D1
:1054000004214020FCF70CFF5348006800F026FF01
:105410000446204600F03EFF80464F480168404663
:1054200001F050F807464D4900F080FF064600F0B5
:1054300015FF0546201E01DB014600E041420C46F7
:10544000281E01DB014600E041420D460021424892
:10545000006800F037FF06D210232D2204214820D7
:10546000FCF7DEFE05E01023202204214820FCF793
:10547000D7FE102003232246042100905020FCF781
:1054800025FF10232E2204216820FCF7C9FE1020DE
:1054900001232A46042100907020FCF717FF1023F7
:1054A0002FA206211846FCF755FF10233A220621A9
:1054B0004020FCF7B5FE2C48006800F0CFFE044603
:1054C000204600F0E7FE804627480168404600F08D
:1054D000F9FF0746214900F029FF064600F0BEFE0D
:1054E0000546201E01DB014600E041420C46281E15
:1054F00001DB014600E041420D4600211A480068E8
:1055000000F0E0FE06D210232D2206214820FCF7F1
:1055100087FE05E01023202206214820FCF780FEAC
:10552000102003232246062100905020FCF7CEFED7
:1055300010232E2206216820FCF772FE1020012382
:105540002A46062100907020FCF7C0FEBDE8F883D3
:10555000616C742E6B7000009C15002000002041CF
:10556000616C742E6B690000A01500202DE9F84FC6
:10557000074688461646384600F070FE0446204628
:1055800000F088FE8346394600F09CFF824665495C
:1055900000F0CCFE814600F061FE0546201E01DBD6
:1055A000014600E041420C46281E01DB014600E0B6
:1055B00041420D460021384600F084FE06D21023F9
:1055C0002D2202214020FCF72BFE05E01023202293
:1055D00002214020FCF724FE102003232246022152
:1055E00000905020FCF772FE10232E22022168202A
:1055F000FCF716FE102001232A460221009070209D
:10560000FCF764FE404600F029FE0446204600F008
:1056100041FE8346414600F055FF8246414900F075
:1056200085FE814600F01AFE0546201E01DB01467C
:1056300000E041420C46281E01DB014600E04142E9
:105640000D460021404600F03DFE06D210232D22DB
:1056500004214020FCF7E4FD05E010232022042172
:105660004020FCF7DDFD102003232246042100909A
:105670005020FCF72BFE10232E2204216820FCF77B
:10568000CFFD102001232A46042100907020FCF752
:105690001DFE304600F0E2FD0446204600F0FAFD13
:1056A0008346314600F00EFF82461E4900F03EFE62
:1056B000814600F0D3FD0546201E01DB014600E0D7
:1056C00041420C46281E01DB014600E041420D46E6
:1056D0000021304600F0F6FD06D210232D220621CF
:1056E0004020FCF79DFD05E01023202206214020EC
:1056F000FCF796FD1020032322460621009050203F
:10570000FCF7E4FD10232E2206216820FCF788FD1B
:10571000102001232A46062100907020FCF7D6FDB8
:10572000BDE8F88F0000204110B586B00446012185
:105730000820FDF701FC01218804FDF7EDFB4FF483
:105740008060ADF8140003208DF8160018208DF845
:10575000170005A91C48FBF7E6FE4FF40060ADF802
:10576000140004208DF8170005A91748FBF7DBFE8D
:1057700027208DF8000003208DF801008DF802002D
:1057800001208DF803006846FCF796FB0194002089
:10579000ADF80800ADF80A00ADF80C00ADF8100047
:1057A0000C20ADF80E0001A90848FDF749FF0122C1
:1057B00040F225510548FDF71DFF01210348FDF783
:1057C000E3FE06B010BD0000000C014000480040A0
:1057D00010B500290AD00878002807D00548784479
:1057E000FBF700F9002801D0002010BD02487844E2
:1057F00010BD0000E2160000DA16000021F00042A1
:10580000A2F16052B2F5801F01F0004328BFD2F12F
:105810007F6C0BD95FEA001C43EAC20242EB507076
:1058200018BF704728BF20F001007047B2F5801FF5
:10583000BCBF184670474FEA410C1CF5001F02D24E
:10584000084600F03ABE70B500F024FB0000008965
:10585000FFF7F6BF4FF00040A0F580007047000052
:1058600010B591EA030F48BF83F0004300F17A833B
:10587000841A71EB030C05D2121943EB0C03001BC5
:1058800061EB0C01DFF824E14FEA1154A4EB135C47
:105890001EEA430F18BF9EEA445F73D023EA0E034B
:1058A000DCF1200E21EA045143F4801332D322FAB2
:1058B0000CFE10EB0E0023FA0CFE41EB0E01CCF1B6
:1058C000200E03FA0EFE10EB0E0051F10001B1F5AF
:1058D000801FCCF1200E32D201EB045112FA0EF2ED
:1058E000BDE8104058BF7047401C38BF5FEA420215
:1058F00018BF7047002814BF20F0010041F10001DB
:105900004FEA410313F5001F38BF7047A1F1C041B2
:1059100000F00EBB012A43EB0302ACF1200CDCF1DA
:105920001F0E32BF4FF0000E23FA0CF310EB0300F2
:1059300041EB0451B4EB115FD0D0A1EB045101F560
:10594000801149085FEA300001EB04510ED350F199
:10595000000038BF12FA0EFE08D1BDE81040C9E7BA
:10596000401C38BF5FEA4202CAD1C3E7BDE810401D
:105970004FEA410313F5001F38BF7047A1F1C04142
:1059800000F0D6BA9EEA445F08D011EA5E0FBDE887
:10599000104004BF01F0004100207047BDE81040F6
:1059A00070B500F077FA00BF64FBBE3E0000E0FF78
:1059B0002DE9C04130B4DFF8A0C23CEA111418BF91
:1059C0003CEA131400F0EC8081EA03051CEA111490
:1059D00044EAD57418BF1CEA131500F0C780A4EB85
:1059E00005044FF0004545EAC12145EAC32341EAD9
:1059F000505143EA525304F17F74994204F5003444
:105A00004FEAC0204FEAC22208BF904200F09C80BB
:105A10004FEA13650FF24016765D4FEA134506FB19
:105A200005F7C7F1807706FB07F74FEAD737A7FBE3
:105A300003687642C8F58038A7FB06CE38BFA8F1C8
:105A4000010807FB08E64FF0000EA6FB028CE6FB00
:105A500003CEDCF1000CCEF1004E38BFAEF1010EEA
:105A6000A6FB0C584FF000074FF00005E6FB0E8731
:105A7000A1FB08C6A0FB07CE16EB0E0645F10005FC
:105A8000E1FB076515F1E04E7EBFA4F580345FEAC7
:105A900046066D4116F1800745F100054FEA1727CC
:105AA0004FEA066647EA0567A6F1DE46B6F1805F73
:105AB0004FEA15251FD9384624F0010C05EBC471B7
:105AC000BCF1FE6F01EB0C1102D8F0BCBDE8008107
:105AD00024425CBF01F5801E9EEAC47F02D4F0BC64
