:020000040800F2
:1000000080090020892200086103000863030008BA
:10001000670300086B0300086F030008000000007E
:100020000000000000000000000000007303000852
:10003000750300080000000077030008A1220008F3
:10004000A3220008A3220008A3220008A32200087C
:10005000A3220008A3220008A3220008A32200086C
:10006000A3220008A3220008A3220008A32200085C
:10007000A3220008A3220008A3220008A32200084C
:10008000A3220008A3220008A3220008A32200083C
:10009000A3220008A3220008A3220008A32200082C
:1000A000A3220008A3220008A3220008A32200081C
:1000B000A32200086D180008A3220008A32200084C
:1000C000A3220008A3220008A3220008A3220008FC
:1000D000A3220008AF450008A3220008A3220008BD
:1000E000A3220008A3220008A322000800F002F8BF
:1000F00000F03AF80AA090E8000C82448344AAF188
:100100000107DA4501D100F02FF8AFF2090EBAE885
:100110000F0013F0010F18BFFB1A43F0010318473B
:10012000F86B0000186C0000103A24BF78C878C142
:10013000FAD8520724BF30C830C144BF04680C60ED
:10014000704700000023002400250026103A28BF35
:1001500078C1FBD8520728BF30C148BF0B60704739
:100160001FB51FBD10B510BD04F020FD1146FFF7EF
:10017000F7FF00F0B9F804F03EFD03B4FFF7F2FF1B
:1001800003BC04F0B9F9000010B54FF4A06002F010
:100190009BF801F05AF800F0DFF904F043F94FF44E
:1001A0007A7004F07CF900F06FFA00F009FC40F678
:1001B000C41001F025F800F08BFC04F0BDFC00F049
:1001C000B5FD00F0D8FD00F030FF01215F4803F0DD
:1001D0004BFE002010BD10B55D4800F03DFB20280F
:1001E00001D1012010BD0020594981F8200000BF35
:1001F000F8E710B5564800F05EFB002857D1544888
:1002000080785349497801EBC10202EB011100EB00
:100210008100A0F5985088384E4908604C48007914
:100220004B49C97801EBC10202EB011100EB8100DF
:10023000A0F5985088384749486045488079444936
:10024000497901EBC10202EB011100EB8100A0F53D
:10025000985088383F4988603D48017AC07900EB62
:10026000C00202EB001001EB8000A0F59850883826
:100270003849C8603648807A3549497A01EBC1026D
:1002800002EB011100EB8100A0F59850883831494C
:10029000086100202E4981F820002F48006808B925
:1002A000012000E000202C490860012010BD6420DE
:1002B00004F0D1F80020F9E770B50446012C03D111
:1002C000FFF789FFC5B204E0022C02D1FFF791FFCE
:1002D000C5B2284670BD10B50A21012000F0C9FB47
:1002E0001E490880002010BDFFF74EFF01220A21A1
:1002F000052000F04AF94FF4C8721146002000F0C2
:1003000044F900F0F5FA20E0FFF7E5FF12481C3051
:10031000006808B9012000E000200F491C31086086
:100320000220FFF7C9FF00F04EFA20B9012107486B
:1003300003F09AFD09E00021044803F095FD002335
:100340001A461946184600F090FCDDE7000400400C
:10035000E0000020040100209481214200000020E0
:10036000704700BFFEE700BFFEE700BFFEE700BF2B
:10037000FEE77047704770470CB500200190009071
:100380006C48006840F480306A49086000BF6948E2
:10039000006800F4003000900198401C0190009823
:1003A00018B90198B0F5A06FF1D16248006800F467
:1003B000003010B10120009001E000200090009872
:1003C000012843D15C48006840F010005A49086099
:1003D0000846006820F0030008600846006840F006
:1003E0000200086053484068524948600846406827
:1003F00048600846406840F48060486008464068AD
:1004000020F47C1048600846406840F4E8104860DA
:100410000846006840F08070086000BF45480068EA
:1004200000F000700028F9D04248406820F0030036
:10043000404948600846406840F00200486000BFFC
:100440003C48406800F00C000828F9D10CBD10B5FC
:10045000FFF792FF10BD10B53648006840F001006C
:1004600034490860084640683449084031494860CA
:1004700008460068324908402E490860084600686E
:1004800020F4802008600846406820F4FE004860A0
:100490004FF41F008860FFF7DAFF4FF00060294932
:1004A000086010BD10B5002100200022214B5B68C0
:1004B00003F00C0121B1042906D0082928D107E056
:1004C000214B224C236027E01F4B204C236023E06C
:1004D000184B5B6803F47010164B5B6803F48032B2
:1004E000022303EB904022B9194B4343174C23607E
:1004F0000DE0104B5B6803F4003323B1144B43430E
:10050000124C236003E0104B4343104C236003E084
:100510000D4B0E4C236000BF00BF064B5B68C3F35E
:1005200003130C4CE15C094B1B68CB40074C236068
:1005300010BD000000100240002002400000FFF843
:10054000FFFFF6FE08ED00E000127A000400002034
:1005500000093D000800002008B50121082002F034
:100560003DFA4FF22000ADF8000010208DF8030096
:1005700003208DF802006946404801F073FF4FF2F6
:1005800020013E4802F01BF808BD70B504460D4638
:1005900016466CB901203A490860284603F07FFFEF
:1005A00000203849C1F89401304603F078FF64E038
:1005B000012C0ED1002032491C310860284603F07E
:1005C0006EFF01202F49C1F8B001304603F067FFEC
:1005D00053E0022C0ED10020294920310860284622
:1005E00003F05DFF01202749C1F8B401304603F054
:1005F00056FF42E0032C0ED100202149243108602F
:10060000284603F04CFF01201E49C1F8B8013046CE
:1006100003F045FF31E0042C0ED1002018492831A9
:100620000860284603F03BFF01201649C1F8BC01D1
:10063000304603F034FF20E001201149086000201B
:100640000F4928310860091F0860091F0860091F49
:100650000860284603F023FF0020094908600120B4
:10066000074928310860091F0860091F086005490B
:10067000C1F8B001304603F012FF70BD000C01401C
:10068000948121420080214200B587B001210C20D5
:1006900002F0A4F90220ADF8180010208DF81B001C
:1006A00003208DF81A0006A9BA4801F0DBFE0820E5
:1006B000ADF8180010208DF81B0003208DF81A00EB
:1006C00006A9B54801F0CEFE0120ADF8180028209B
:1006D0008DF81B0003208DF81A0006A9AD4801F023
:1006E000C1FE0321AB4801F06CFF0821AA4801F0CC
:1006F00068FF03F0C8FF0021A84802F0CAFE0020EE
:10070000ADF804004FF48270ADF806000020ADF89B
:100710000800ADF80A00ADF80C004FF40070ADF819
:100720000E001820ADF810000020ADF812000720D0
:10073000ADF8140001A9994802F006FE012197487E
:1007400002F0A7FE00209649086001209549C1F8F3
:10075000840107B000BD2DE9F04107460D4616465D
:10076000002091490860384603F066FF8046002467
:1007700005E0FF2003F060FF2855601CC4B2B442BE
:10078000F7DB0120884908604046BDE8F0812DE98B
:10079000F04107460C46154600208349086038465C
:1007A00003F04AFF8046002605E014F8010B03F031
:1007B00043FF701CC6B2AE42F7DB01207A490860E5
:1007C0004046BDE8F0811CB578A103C9CDE9000120
:1007D000082003F09CFF052269463020FFF7D7FF71
:1007E000052269461020FFF7B6FF002406E01DF839
:1007F0000400A52800D003E0601CC4B2052CF6DB81
:1008000000BF052C01D001201CBD0020FCE770B505
:1008100005460C46002064490860284603F00CFF9A
:100820000646204603F008FF01205E49C1F8840116
:10083000304670BD70B5044600205B490860204614
:1008400003F0FAFEFF2003F0F7FE054601205549AC
:10085000C1F88401284670BD70B50546102003F02C
:1008600056FF00204E49086020222946A020FFF7AD
:100870008EFF01204F49C1F88C0100BF4A488438DF
:1008800000680028FAD10720FFF7D4FF044621466C
:100890002720FFF7BCFF04F0100028B1FF21E12062
:1008A000FFF7B5FF102070BD04F0200008B1202034
:1008B000F9E7FF20F7E770B50446102003F027FFA3
:1008C0000720FFF7B7FF054629462720FFF79FFFC0
:1008D00005F0400050B1202221466120FFF73BFF88
:1008E000FF21E220FFF793FF002070BD0120FCE70D
:1008F00010B500202A49086005222F492A20FFF759
:1009000046FF01212120FFF782FF01212220FFF76E
:100910007EFF28212520FFF77AFF20213120FFF7D5
:1009200076FF0F212620FFF772FF0F212020FFF70F
:100930006EFF01201F49C1F88C0110BD10B50020C9
:100940001749086005221D493020FFF720FF0522C6
:1009500019492A20FFF71BFF01212120FFF757FF2C
:1009600001212220FFF753FF1A212420FFF74FFF18
:1009700028212520FFF74BFF0F212620FFF747FFF7
:100980000E212020FFF743FF01200A49C1F88C0106
:1009900010BD0000000C0140000801400030014083
:1009A0008C0121420080214284812142A5A5A5A578
:1009B000A500000000002142FF6A0008FA6A000852
:1009C00000B587B001214FF4017002F007F84FF431
:1009D000004001F067FF0220ADF8040000208DF810
:1009E000070001A9364801F03DFD364802F05EFAE5
:1009F000002002908DF80C008DF80D004FF460205F
:100A000004900020059001208DF8180002A92D48BF
:100A100002F073FA01212B4802F09BFA294802F0F8
:100A2000BAFA00BF274802F0BBFA0028FAD12548DD
:100A300002F0C0FA00BF234802F0C1FA0028FAD140
:100A400007B000BD10B504460723012221461D480A
:100A500002F0EBFA01211B4802F0BBFA00BF0221B1
:100A6000184802F027FC0028F9D0164802F044FB91
:100A700010BD2DE9F05F83460C464FF00009CA46D1
:100A80000AE05846FFF7DEFF8144052003F007FD2A
:100A90000AF1010000F0FF0AA245F2DB484605F02A
:100AA00013FA0746084A094B05F022FA054605F0F5
:100AB000C7F98146B9FBF4F080B2BDE8F09F0000B1
:100AC0000008014000240140273108AC1C5AFA3FBD
:100AD00000B58DB0012140F60C0001F07FFF4FF40E
:100AE0008070ADF8300003208DF8320018208DF8AA
:100AF00033000CA98B4801F0B5FC4FF40070ADF841
:100B0000300003208DF8320018208DF833000CA936
:100B1000844801F0A7FC4FF48060ADF8300003205A
:100B20008DF8320018208DF833000CA97D4801F0B3
:100B300099FC4FF40060ADF8300003208DF83200CE
:100B400018208DF833000CA9764801F08BFC4FF487
:100B50008071744801F033FD4FF40071714801F069
:100B60002EFD4FF480616F4801F029FD4FF40061C4
:100B70006C4801F024FD40F2E730ADF82800472032
:100B8000ADF824000020ADF82A00ADF826008DF85D
:100B90002C0009A9644802F00BFE7020ADF8140087
:100BA0003220ADF81A000220ADF81C000120ADF88B
:100BB00016000020ADF82000ADF8220005A95A4823
:100BC00002F033FE05A9584802F071FE05A9564807
:100BD00002F0BAFE05A9544802F001FF0020ADF86A
:100BE0000400ADF80600ADF808009020ADF80A004A
:100BF0000020ADF80C004FF40050ADF80E0040009E
:100C0000ADF8100001A9484803F0EEF80821464865
:100C100003F05AFA0821444803F05FFA08214248D9
:100C200003F068FA0821404803F06DFA01213E48BC
:100C300003F01AFA01213C4803F016F94FF47A71D7
:100C4000394803F0A7FB0021374803F0A5FB00213A
:100C5000354803F0A3FB0021334803F0A1FB00213A
:100C6000314803F09FFB0DB000BD2DE9F041054672
:100C70000E461746984640F25234002D05DA002100
:100C8000294803F089FB00250BE0A54205DDA1B250
:100C9000254803F081FB254603E0A9B2224803F072
:100CA0007BFB002E05DA00211F4803F077FB0026AE
:100CB0000BE0A64205DDA1B21B4803F06FFB264600
:100CC00003E0A9B2184803F069FB002F05DA002100
:100CD000154803F065FB00270BE0A74205DDA1B234
:100CE000114803F05DFB274603E0A9B20E4803F06C
:100CF00057FBB8F1000F06DA00210B4803F052FB56
:100D00004FF000080BE0A04505DDA1B2064803F056
:100D100049FBA04603E0A9B2034803F043FB0020CF
:100D2000BDE8F08100080140002C014010B5002210
:100D30006B21D02003F03AFE07221921D02003F0C6
:100D400035FE03221A21D02003F030FE4222372143
:100D5000D02003F02BFE40226A21D02003F026FE93
:100D600010221B21D02003F021FE09221C21D020BB
:100D700003F01CFE10BD10B500247521D02003F037
:100D8000F4FD0446682C01D1012000E0002018B1D8
:100D90000121FE4801F015FC10BD10B53B21D0200B
:100DA00003F0E3FDFA4908703C21D02003F0DDFD9B
:100DB000F74948703D21D02003F0D7FDF4498870F1
:100DC0003E21D02003F0D1FDF149C8703F21D02051
:100DD00003F0CBFDEE4908714021D02003F0C5FDA2
:100DE000EB4948714321D02003F0BFFDE849087268
:100DF0004421D02003F0B9FDE54948724521D020B7
:100E000003F0B3FDE24988724621D02003F0ADFD26
:100E1000DF49C8724721D02003F0A7FDDC490873E1
:100E20004821D02003F0A1FDD949487310BD2DE918
:100E3000F05FFFF7B2FFD6484078D549097840EA1D
:100E40000120D449498A401A00B2D2490880D048CA
:100E5000C078CF49897840EA0121CE48808A081AB3
:100E600000B2CC494880CA484079C949097940EA6A
:100E7000012000B2C7498880C548407AC449097A30
:100E800040EA012000B2C3498884C148C07AC04901
:100E9000897A40EA012001B2BE48C184BC48407B47
:100EA000BB49097B40EA012001B2BA4801850146ED
:100EB000B1F9360004F0F1FF0646B74AB74B05F02A
:100EC00017F880468946B349B1F9240004F0E5FFDC
:100ED0000646B14AB14B05F00BF8824642464B46F6
:100EE00005F0F6F9044604F041FDAA49C863B1F9DA
:100EF000380004F0D2FF0646A74AA84B04F0F8FFDA
:100F000004460D46A349B1F9260004F0C6FF064683
:100F1000A14AA24B04F0ECFF804622462B4605F086
:100F2000D7F9824604F022FD01469A480164014641
:100F3000B1F93A0004F0B1FF0646974A974B04F026
:100F4000D7FF04460D469349B1F9280004F0A5FFE8
:100F50000646914A914B04F0CBFF804622462B4631
:100F600005F0B6F9824604F001FD01468948416466
:100F70008B480078002856D08A48007880B9002035
:100F800084494882002183488182C18200208649A9
:100F90000860864908608649086001208149087018
:100FA0007C48B0F900008049096808447E4908601F
:100FB0007848B0F902007D49096808447B49086017
:100FC0007448B0F904007A4909680844784908600F
:100FD00074480078C82821D173480068714909789D
:100FE00090FBF1F000B26B494882704800686D498F
:100FF000097890FBF1F001B2664881826C48006884
:101000006849097890FBF1F001B26248C182002082
:101010006449087062490870BDE8F09F6148007833
:10102000401C6049087000BFF6E72DE9FE4F00271D
:101030006424642564264FF000084FF00009002066
:10104000029000215348C1860187418770E0002447
:1010500000250026642766E0FFF79FFE4C48407A93
:101060004B49097A40EA012000B24A49888448483D
:10107000C07A4749897A40EA012001B24548C184D3
:101080004348407B4249097B40EA012001B2414884
:1010900001850146B1F92410A1EB080005F0ECFA36
:1010A000009000F039FD8346204605F0E5FA5946E8
:1010B000019005F023FA824605F0C2FA044635494C
:1010C000B1F92610A1EB090005F0D6FA009000F066
:1010D00023FD8346284605F0CFFA5946019005F0D6
:1010E0000DFA824605F0ACFA05462A49B1F92820E6
:1010F0000299501A05F0C0FA009000F00DFD8346E9
:10110000304605F0B9FA5946019005F0F7F98246E4
:1011100005F096FA06461F48B0F92480B0F92690EB
:10112000B0F928000290381EA7F101018FB293D1C7
:10113000642C8CDA642D8ADA642E88DA0024002587
:1011400000264FF4FA673CE0FFF727FE1048407A8C
:101150000F49097A40EA012000B20E4988840C4800
:10116000C07A0B49897A40EA012001B20948C1845A
:101170000748407B0649097B40EA012001B2054847
:101180000185B0F924000444024813E0000801403E
:101190006001002018010020D9999DA0A8C7413FF7
:1011A0004400002054000020480000204C00002093
:1011B00050000020B0F9260005441048B0F928007E
:1011C0000644381EA7F101018FB2BDD14FF4FA6079
:1011D00094FBF0F001B20948C1864FF4FA6095FB28
:1011E000F0F001B2054801874FF4FA6096FBF0F089
:1011F00001B202484187BDE8FE8F000018010020BF
:101200003EB504460121022001F0F5FB214802F021
:10121000FBF9ADF804404720ADF800000020ADF820
:101220000600ADF8020069461A4802F0C1FA012131
:10123000184803F0DFF801221146164802F02FFE8D
:101240000021144802F010FE3EBD08B54FF4A06026
:1012500001F03AF81D208DF8000002208DF8010001
:1012600000208DF8020001208DF80300684601F08F
:1012700030F825208DF8000001208DF801000020B5
:101280008DF8020001208DF80300684601F021F876
:1012900008BD00000004004007B592B0FE48406859
:1012A00000EB800040001090FC48007802287DDBB5
:1012B000F94880680E9005F0DFF90F90139905F05A
:1012C0001DF91390F54800690F90139905F016F970
:1012D000F2490861084640690F90084600690E907F
:1012E0000F9905F0E1FA03D2EC484169016112E07F
:1012F000EA48406980F000400F90E84800690146E4
:101300000E900F9805F0D0FA05D2E448406980F0BD
:101310000041E2480161E2480168139805F000FBD2
:101320000D90DE48C06801460C900D9805F0F0F96C
:101330000F90DA4800690B90D84880680A900B99A2
:1013400005F0E6F90D90D54840680B90139905F02B
:10135000DFF90C900D9905F0D1F80E900F9905F07A
:10136000CDF8CE494862CE4913980860CA48C06893
:101370000E9005F081F90F90129905F0BFF81290C8
:10138000C648806D01460F90129805F0B7F8C34922
:1013900088650846C06D0F900846806D0E900F99C5
:1013A00005F082FA05D2BD48C16D00E06BE08165B1
:1013B00012E0BA48C06D80F000400F90B748806DD1
:1013C00001460E900F9805F06FFA05D2B348C06D34
:1013D00080F00041B1488165B2480168129805F07B
:1013E0009FFA0D90AD48406D01460C900D9805F0A8
:1013F0008FF90F90A948806D0B90A848006D0A9056
:101400000B9905F085F90D90A448C06C01460B902E
:10141000129805F07DF90C900D9905F06FF80E907B
:101420000F9905F06BF89D49C8669E4912980860AF
:101430009D48B0F928000C9005F01EF90D909748D2
:10144000D0F89C0001460C900D9805F061F90F90C2
:101450009248D0F894004FF07E510B9005F058F967
:101460000D908D4800690B9005F006F90C900D99D0
:1014700005F044F80E900F9905F040F88749C1F83F
:10148000B4000020087085480078401C834908702B
:101490008548C06B039005F005F8844A844BCDE97C
:1014A000040104F025FDCDE908017C48C06E0590DB
:1014B00004F0F8FFCDE90601DDE9082304F088FA1D
:1014C000CDE90C017548006F099004F0EBFFCDE900
:1014D0000A01DDE90C2304F00BFDCDE90E0104F057
:1014E00045FA01466D48C0F884106F48B0F92410E1
:1014F000B0F93000081A0E9005F0BEF80F9067485A
:10150000806F01460E900F9805F002F9014663487E
:10151000C0F88C106448006C039004F0C3FF634A69
:10152000634BCDE9040104F0E3FCCDE908015B481D
:10153000406A059004F0B6FFCDE90601DDE9082315
:1015400004F046FACDE90C015448806A099004F091
:10155000A9FFCDE90A01DDE90C2304F0C9FCCDE9BE
:101560000E0104F003FA01464C48C1634E48B0F93D
:101570002610B0F93200081A0E9005F07DF80F9091
:101580004648006B01460E900F9805F0C1F80146E1
:10159000424841644448406C039004F083FF434A4E
:1015A000434BCDE9040104F0A3FCCDE908013B481D
:1015B000D0F8B400059004F075FFCDE90601DDE92F
:1015C000082304F005FACDE90C013448D0F8B8003E
:1015D000099004F067FFCDE90A01DDE90C2304F06E
:1015E00087FCCDE90E0104F0C1F901462B48C0F893
:1015F000CC102D48B0F92810B0F93400081A0E901C
:1016000005F03AF80F902548D0F8C00001460E903A
:101610000F9805F07DF801462048C0F8D410D0F8A6
:101620008C000F901D48D0F884000E900F9904F0A4
:1016300065FF01461948C0F89010406C0F9017489C
:10164000C06B0E900F9904F059FF01461348816456
:10165000D0F8D4000F901148D0F8CC000E900F991C
:1016600004F04CFF01460D48C0F8D8100E48818C9C
:101670000186C18C4186018D8186109828287CDDE9
:101680000C480068059004F00DFF084A084BCDE9AE
:10169000060104F04DFA0FE0040100207001002063
:1016A00068000020640000201801002031B3CF63DF
:1016B00094A94C404C020020CDE9080104F0E2F866
:1016C000CDE90C017B484068019004F0EBFE7A4ABA
:1016D0007A4BCDE9020104F02BFACDE9040104F0C4
:1016E000D1F8CDE90801109804F0D7FBCDE9060147
:1016F000DDE9082304F01CFACDE90A01DDE90C2339
:1017000004F016FACDE90E0104F06AFB109010986F
:1017100004F0B2FF0C906A48D0F8900001460B909C
:101720000C9804F0EBFE0D906548806C01460C901F
:101730000D9805F0F5F80E906148D0F8D8000146F4
:101740000D900E9805F0ECF80F9004F079FF00B2C0
:101750005C490880109804F08FFF0C905848D0F82E
:10176000900001460B900C9804F0C8FE0D90544870
:10177000806C01460C900D9800E057E004F0BEFE2E
:101780000E904F48D0F8D80001460D900E9804F006
:10179000B5FE0F9004F054FF00B24A4948801098FB
:1017A00004F06AFF0C904648D0F8900001460B9078
:1017B0000C9805F0B5F80D904148806C01460C90EE
:1017C0000D9804F09BFE0E903D48D0F8D8000146DD
:1017D0000D900E9805F0A4F80F9004F031FF00B2C0
:1017E00038498880109804F047FF0C903448D0F8AE
:1017F000900001460B900C9805F092F80D9030483F
:10180000806C01460C900D9805F08AF80E902C48DB
:10181000D0F8D80001460D900E9804F06FFE0F909E
:1018200004F00EFF00B22749C88009E000202549D6
:10183000C880888048800880002121480161816536
:101840002048B0F900000F901E48B0F906000E9035
:101850001C48B0F902000D901A48B0F904000C9031
:101860000DA90EC9FFF701FA15B000BD10B5164855
:10187000008800F00100B8B114480088401C1349EA
:10188000088000F087FC00F081F900F04BFC094A69
:10189000116850680022FFF7FFFC0C4800880428FC
:1018A00002D10020094908804FF6FE7006490880E1
:1018B00010BD00004C02002031B3CF6394A94C400E
:1018C000700100205800002010040040600000203B
:1018D0002DE9FF5F8EB014461D46DDE91CABCDE956
:1018E0000CABCDE90A4500BFFE4803C8CDE90801AD
:1018F000FD49DDE90A2303C904F06AF880468946F8
:1019000040464946DDE90C2304F062F802460B46E6
:10191000CDE902014046494604F00AF9CDE9040147
:10192000DDE90823DDE90E0104F0D2FCCDE9000178
:10193000DDE9042304F0DCFACDE90201DDE9082346
:1019400004F046F806460F460020E849DDE9042386
:1019500004F0BEFC42464B46CDE9020104F0C8FA51
:10196000CDE90601E04ADDE9060103C2DD48C0C059
:101970003046394612B0BDE8F09F2DE9FF5F8EB0CA
:1019800014461D46DDE91CABCDE90CABCDE90A459B
:1019900000BFD74803C8CDE90801D649DDE90A23CD
:1019A00003C904F015F88046894640464946DDE9FA
:1019B0000C2304F00DF802460B46CDE90201404627
:1019C000494604F0B5F8CDE90401DDE90823DDE975
:1019D0000E0104F07DFCCDE90001DDE9042304F0F3
:1019E00087FACDE90201DDE9082303F0F1FF06469D
:1019F0000F460020BD49DDE9042304F069FC42469E
:101A00004B46CDE9020104F073FACDE90601B94A6B
:101A1000DDE9060103C2B648C0C03046394612B0FF
:101A2000BDE8F09F2DE9FF5F8EB014461D46DDE94D
:101A30001CABCDE90CABCDE90A4500BFAE4803C8ED
:101A4000CDE90801AD49DDE90A2303C903F0C0FF70
:101A50008046894640464946DDE90C2303F0B8FF3D
:101A600002460B46CDE902014046494604F060F8C3
:101A7000CDE90401DDE90823DDE90E0104F028FCCD
:101A8000CDE90001DDE9042304F032FACDE90201D9
:101A9000DDE9082303F09CFF06460F46002093492A
:101AA000DDE9042304F014FC42464B46CDE9020173
:101AB00004F01EFACDE90601904ADDE9060103C2F1
:101AC0008D48C0C03046394612B0BDE8F09F2DE9C0
:101AD000F05F04464FF07F594FF07C51204604F0F0
:101AE00017FE824625462E468548A0EB66063546FB
:101AF0002946504604F00CFE8346294604F008FEB1
:101B00008046494604F001FF0746294604F000FEDE
:101B100005462846BDE8F09F10B504460021204642
:101B200004F0C2FD02D284F0004010BD2046FCE764
:101B30002DE9F05F82464FF0000B0021504604F083
:101B4000B3FD01D28AF0004A6E49504604F0ACFE63
:101B500001D2DFF8B0A1504604F0A4FC80466A4AE6
:101B60006A4B04F0C5F906460022604B04F0BEFA49
:101B7000044603F0FBFE83460021584604F094FD22
:101B800001D24FF0000B5846BDE8F09F2DE9FC4113
:101B9000FFF74DF95E49B1F9000004F07EF9064601
:101BA0000F4600215B485C4A5C4BCDE90010304693
:101BB0003946FFF78DFE044604F012F900B254498D
:101BC000C880B1F9020004F068F906460F4600210A
:101BD0005048514A514BCDE9001030463946FFF785
:101BE000CCFE044604F0FCF801B2494801810146EC
:101BF000B1F9040004F051F906460F4600214548AA
:101C0000454A464BCDE9001030463946FFF70AFFFA
:101C1000044604F0E5F801B23D484181BDE8FC818D
:101C20000FB59BB03E480168006804F071FD139049
:101C30003C4801683A48006804F06AFD12903A484E
:101C400001683748006804F063FD11903548016869
:101C5000006804F05DFD1090344801683148006868
:101C600004F056FD0F9030480168006804F050FD04
:101C70000E902E4801682C48006804F049FD0D9034
:101C80002A480168006804F043FD0C9020991E98D2
:101C900004F03EFD0A90219904F03AFD00210B90DA
:101CA00004F09AFC01D11FB000BD2199084604F050
:101CB0002FFD0A902099084604F02AFD08901E99ED
:101CC000084604F025FD0790089904F017FC0990D8
:101CD0000A9904F013FC0B90FFF7F9FE1A901A9979
:101CE0001E9825E090000020980000200000F03FA2
:101CF000A0000020A8000020B0000020B8000020B4
:101D0000DF59375F9A99193F79E9263108ACFA3FD4
:101D100018010020000020407B14AE47E17A943F78
:101D200074000020780000207C000020800000204B
:101D300004F0EEFC1E901A99209804F0E9FC209023
:101D40001A99219804F0E4FC219011990F9804F05D
:101D5000E7FD4FF080410B9004F0DAFC19900D99EB
:101D6000129804F0CBFB4FF080410B9004F0D0FCB4
:101D700018901099139804F0D3FD0A900E9904F06E
:101D8000CFFD0B900C9904F0B9FB1790189921988E
:101D900004F0BEFC0B901799209804F0B9FC0A904F
:101DA0000B9904F0BDFD169017991E9804F0B0FC35
:101DB0000B901999219804F0ABFC0A900B9904F050
:101DC000AFFD15901999209804F0A2FC0B9018997A
:101DD0001E9804F09DFC0A900B9904F0A1FD14904C
:101DE0001698FFF7A5FE0990169904F091FCDC49BE
:101DF0000A9004F08DFC0B90DA4801680B9804F00F
:101E00007DFBD84908601598FFF792FE0990159957
:101E100004F07EFCD2490A9004F07AFC0B90D24880
:101E200001680B9804F06AFBCF4908601498FFF72B
:101E30007FFE0990149904F06BFCC9490A9004F0E4
:101E400067FC0B90C94801680B9804F057FBC74921
:101E500008601698FFF76CFE4FF08041089004F080
:101E600057FC0990169904F053FC0A901B9904F052
:101E700045FB0B90BB4801680B9804F03FFB1B909F
:101E80001598FFF755FE4FF08041089004F040FC94
:101E90000990159904F03CFC0A901C9904F02EFB63
:101EA0000B90B14801680B9804F028FB1C90149823
:101EB000FFF73EFE4FF08041089004F029FC0990A6
:101EC000149904F025FC0A901D9904F017FB0B905F
:101ED000A64801680B9804F011FB1D90A4481D99B9
:101EE000006804F015FC0990A2481C99006804F0F1
:101EF0000FFC0790A048006880F0004005901B99F7
:101F000004F006FC0690079904F00AFD0890099970
:101F100004F006FD99490A9004F0FAFB0B909848EA
:101F200001680B9804F0EAFA9549086090481C99FA
:101F3000006804F0EDFB09908E481D99006804F0DC
:101F4000E7FB07908E4801681B9804F0E1FB0690C0
:101F5000079904F0D3FA0890099904F0E1FC874945
:101F60000A9004F0D5FB0B90834801680B9804F0AD
:101F7000C5FA814908607E4801681B9804F0C8FBD7
:101F800009907D481D99006804F0C2FB07907C48C9
:101F90001C99006804F0BCFB0690079904F0C0FC93
:101FA0000890099904F0AAFA74490A9004F0B0FB69
:101FB0000B90704801680B9804F0A0FA6D49086016
:101FC000084601681B9804F0A3FB09906A481C9915
:101FD000006804F09DFB079069481D99006804F0B3
:101FE00097FB0690079904F089FA0890099904F084
:101FF00097FC62490A9004F08BFB0B905C480168E7
:102000000B9804F07BFA5A4908601099139804F071
:1020100075FA09900E9904F071FA0A900C9904F07F
:102020006DFA0B90FFF753FD1A9055481A99006806
:1020300004F06EFB524908604F481A99006804F09A
:1020400067FB4D4908604B481A99006804F060FB33
:102050004849086046481A99006804F059FB444909
:1020600008604FF080400E9904F052FB01904FF051
:102070004040109904F04CFB0090019904F050FC92
:102080004FF07E51029004F039FA039004F00AFAFE
:10209000CDE906014FF08040129904F039FB02901F
:1020A0004FF080400D9904F033FB0190029904F049
:1020B00025FA039004F0F6F9CDE90401DDE90623E1
:1020C00003F020FB2F4A304BCDE9080103F010FF4D
:1020D000CDE90A0103F04AFC2C4948604FF08040EA
:1020E000119904F015FB04904FF040400F9904F053
:1020F0000FFB0390049904F001FA059004F0D2F963
:10210000CDE9060103F0B6F81E4A1F4BCDE90801E0
:1021100003F0EEFECDE90A0103F028FC1B4908603C
:1021200000BFC0E57CB51A49B1F90A0004F0A4FA71
:1021300004461749B1F9080004F09EFA054614490F
:10214000B1F9060004F098FA0646114BCDE90054A7
:102150005A6C196CD86B3346FFF762FD7CBD0000EA
:102160006F12833A84000020880000208C00002039
:10217000800000207C000020780000200AD7A33ACD
:102180007400002031B3CF6394A94C404C0200206E
:102190001801002070B5344C4FF08240334948603C
:1021A000002132488160C160314981623149016357
:1021B0004FF082402D49C86400212C4801654165DB
:1021C0002B4901672B49816700202849C1F89400F9
:1021D00000212648C0F89C102749C0F8B8102749AC
:1021E000C0F8C01026494161C16500201F49087030
:1021F0002449098841F28832501A04F03DFA064613
:102200001A48816A304604F083FA0546214604F0F4
:102210007FFA164988621B49098841F28832501AB0
:1022200004F02AFA06461148016F304604F070FAAD
:102230000546214604F06CFA0C49086711490988E3
:1022400041F28832501A04F017FA06460748D0F8CF
:10225000B810304604F05CFA0546214604F058FAFE
:102260000249C1F8B80070BDFAED6B3A7001002068
:1022700000007040AE47A13F85EB11C0CDCC8C3F34
:1022800000004843000000200948804709480047F3
:10229000FEE7FEE7FEE7FEE7FEE7FEE7FEE7FEE716
:1022A000FEE7FEE704480549054A064B7047000073
:1022B00057040008ED00000880030020800900207A
:1022C000800500208005002031490143314A11601A
:1022D000704770B5002100230F22C47804B32D4C41
:1022E000246804F4E064C4F5E064210AC1F1040345
:1022F000CA40447804FA03F1847814402143090168
:10230000254C0678A155047804F01F050124AC4043
:1023100005786D11AD0005F1E025C5F8004109E033
:10232000047804F01F050124AC401C4D067876119A
:1023300045F8264070BD1A4A0A400243154B1B1F40
:102340001A60704739B1134A121D12680243114BCB
:102350001B1D1A6006E00F4A121D126882430D4BC6
:102360001B1D1A607047042808D14FF0E02109694D
:1023700041F004014FF0E022116107E04FF0E0214D
:10238000096921F004014FF0E0221161704700005B
:102390000000FA050CED00E000E400E080E100E060
:1023A00080FFFF1F10B50446CC48844208D10121AC
:1023B000042000F02DFB0021042000F029FB46E062
:1023C000C748844208D10121082000F021FB0021E8
:1023D000082000F01DFB3AE0C248844208D10121E8
:1023E000102000F015FB0021102000F011FB2EE062
:1023F000BD48844208D10121202000F009FB0021C2
:10240000202000F005FB22E0B848844208D10121D9
:10241000402000F0FDFA0021402000F0F9FA16E01B
:10242000B348844208D10121802000F0F1FA002154
:10243000802000F0EDFA0AE0AE48844207D1012185
:10244000801500F0E5FA0021A01500F0E1FA10BDBA
:1024500010B50121084600F0DBFA0021012000F050
:10246000D7FA10BD2DE9F0410246002500260020D4
:1024700000230024002791F803C00CF00F0591F809
:1024800003C00CF0100CBCF1000F03D091F802C097
:102490004CEA050591F800C0BCF1000F31D014687A
:1024A00000202BE04FF0010C0CFA00F3B1F800C053
:1024B0000CEA03069E4220D183004FF00F0C0CFA69
:1024C00003F7BC4305FA03FC4CEA040491F803C08B
:1024D000BCF1280F06D14FF0010C0CFA00FCC2F839
:1024E00014C00AE091F803C0BCF1480F05D14FF0C9
:1024F000010C0CFA00FCC2F810C0401C0828D1D313
:102500001460B1F800C0BCF1FF0F34DD5468002046
:102510002EE000F1080C4FF0010808FA0CF3B1F8B6
:1025200000C00CEA03069E4221D183004FF00F0C3D
:102530000CFA03F7BC4305FA03FC4CEA040491F8D7
:1025400003C0BCF1280F05D100F1080C08FA0CF803
:10255000C2F8148091F803C0BCF1480F07D100F114
:10256000080C4FF0010808FA0CF8C2F81080401C63
:102570000828CED35460BDE8F0814FF6FF7101808A
:10258000022181700421C1707047024600209368C7
:102590000B400BB1012000E0002070470146886825
:1025A00080B2704702460020D3680B400BB1012077
:1025B00000E0002070470146C86880B270470161A2
:1025C0007047416170470AB1016100E041617047A5
:1025D000C16070474FF480320A4382618161826139
:1025E00082698269704702460020434B18684FF6A3
:1025F0008073184040EA021008433F4B1860704750
:102600003E49C8617047F0B50A4600230024002106
:10261000002500F00046B6F1004F02D1364EF169B8
:1026200001E0354E7168C0F3034583B200F44016F3
:10263000B6F5401F08D121F070612F4E766826F064
:1026400070662D4F7E6012E000F48016B6F5801F94
:1026500006D1032606FA05F4A14341F0706106E0B5
:10266000460D360103FA06F6B14341F0706122B11E
:10267000460D360103FA06F6314300F00046B6F186
:10268000004F02D11C4EF16101E01B4E7160F0BDA4
:1026900030B500228B071C0F0F2303FA04F2164BF0
:1026A00008338C1053F824309343134C08348D10A6
:1026B00044F8253023468C1053F824308C07240F1F
:1026C00000FA04F423430C4C08348D1044F82530F0
:1026D00030BD0A49DC310860704700000008014045
:1026E000000C01400010014000140140001801409E
:1026F000001C014000200140000001400000204279
:10270000DF48006840F00100DD4908600846406885
:10271000DC490840DA49486008460068DA49084060
:10272000D74908600846006820F480200860084601
:10273000406820F4FE0048604FF41F008860704736
:10274000CF49096821F48031CD4A116011460968EA
:1027500021F480211160B0F5803F03D0B0F5802FC7
:102760000ED106E0C649096841F48031C44A1160BF
:1027700007E0C349096841F4A021C14A116000E0A3
:1027800000BF00BF704710B50146002200230020A3
:102790004A11012A02D1BA4C236806E0022A02D16A
:1027A000B74C236A01E0B64C636A01F01F020124B2
:1027B00094401C400CB1012000E0002010BD38B551
:1027C000002000900024002500BF3120FFF7DBFF30
:1027D00005460098401C00900098B0F5A06F01D00D
:1027E000002DF2D03120FFF7CEFF08B1012400E028
:1027F0000024204638BD01460020A14A106820F080
:10280000F80040EAC10010607047A04908607047B6
:10281000024600209A4B586820F47C1042EA0103DB
:102820001843974B586070479849086670470146AF
:102830000020934A506820F003000843506070471E
:102840008F48406800F00C007047014600208C4A19
:10285000506820F0F00008435060704701460020A7
:10286000874A506820F4E060084350607047014692
:102870000020834A506820F4605040EAC100506054
:10288000704729B17E4A527A02437D4B5A7204E066
:102890007B4A527A82437A4B5A7270477B49D831CD
:1028A0000860704701460020754A506820F4404097
:1028B0000843506070470021714A20321170704AFD
:1028C00082F82010012802D004280AD104E0012156
:1028D0006B4A2032117005E00521694A20321170DF
:1028E00000E000BF00BF7047694908607047644955
:1028F000096A0143624A11627047654944390860B8
:10290000704730B500210022002400235C4D6D6823
:1029100005F00C0121B1042905D0082923D105E0D7
:102920005C4D056022E05B4D05601FE0544D6D6815
:1029300005F47012524D6D6805F48034022505EBE4
:1029400092421CB9544D554305600BE04C4D6D68E7
:1029500005F400351DB1504D5543056002E04D4D65
:102960005543056002E04B4D056000BF00BF444D7C
:102970006D6805F0F0010909484D6B5C0568DD40A4
:1029800045603F4D6D6805F4E061090A434D6B5C9D
:102990004568DD4085603A4D6D6805F46051C90AAF
:1029A0003E4D6B5C4568DD40C560354D6D6805F496
:1029B0004041890B3A4D6B5CC568B5FBF3F5056189
:1029C00030BD29B12E4A526902432D4B5A6104E0B1
:1029D0002B4A526982432A4B5A61704729B1284ACF
:1029E00092690243264B9A6104E0254A9269824328
:1029F000234B9A61704729B1214AD2690243204B87
:102A0000DA6104E01E4AD26982431D4BDA617047E5
:102A100029B11B4AD2680243194BDA6004E0184A14
:102A2000D2688243164BDA60704729B1144A1269A2
:102A30000243134B1A6104E0114A12698243104B9E
:102A40001A61704712494039086070470F49C864DD
:102A500070470B49C87170470948406A40F0807060
:102A600007494862704701460020054A92680A40BB
:102A70000AB1012000E000207047014988727047C8
:102A8000001002400000FFF8FFFFF6FE0000424287
:102A90008004424200127A0000093D00C00000207C
:102AA000D000002010B50446FB48844209D1012122
:102AB0008803FFF7ADFF00214FF48040FFF7A8FF28
:102AC00032E0F648844209D101214804FFF7ADFF06
:102AD00000214FF40030FFF7A8FF25E0F0488442C2
:102AE00009D101218804FFF7A0FF00214FF48020C5
:102AF000FFF79BFF18E0EB48844209D10121C8048D
:102B0000FFF793FF00214FF40020FFF78EFF0BE04B
:102B1000E548844208D101210805FFF786FF00211E
:102B20004FF48010FFF781FF10BD2DE9F04786B00C
:102B300005460E460024A24600BFA1460027B089E4
:102B400000B100BF2F462C8A4CF6FF700440F0887D
:102B500004432C82AC894EF6F3100440B0883189CE
:102B60000843718908430443AC81AC8A4FF6FF40A7
:102B70000440B0890443AC8201A8FFF7C2FEC648F6
:102B8000874202D1DDF810A001E0DDF80CA0A88991
:102B900000F4004040B10AEBCA0000EB0A103168B3
:102BA0004900B0FBF1F807E00AEBCA0000EB0A109D
:102BB00031688900B0FBF1F86420B8FBF0F0040143
:102BC0002009642101FB1089A88900F4004040B16C
:102BD000322000EBC900B0FBF1F000F00700044325
:102BE00008E0322000EB09106421B0FBF1F000F0A6
:102BF0000F0004432C8106B0BDE8F0874FF4165156
:102C0000016000218180C18001810C21418100216E
:102C10008181704710B502460020108A4FF2FF03F1
:102C200018400B884C8823438C882343CC8823434B
:102C30001843108210BD0021018041808180C18035
:102C4000704721B1828942F40052828104E0828976
:102C50004DF6FF731A4082817047F0B50346002499
:102C600000260025002040F66A17B94200D100BFB7
:102C70001846C1F3421401F01F06012707FA06F5B2
:102C8000012C01D10C3004E0022C01D1103000E005
:102C900014301AB107682F43076002E00768AF439A
:102CA0000760F0BD1AB1838A0B43838202E0838AF6
:102CB0008B4383827047028A4FF6F0731A40028278
:102CC000028A0A430282704782894FF2FF731A40D8
:102CD000828182890A438281704721B1828942F0D0
:102CE0000202828104E082894FF6FD731A408281DC
:102CF0007047028A4FF6DF731A400282028A0A4343
:102D00000282704721B1028A42F48042028204E0CA
:102D1000028A4BF6FF731A4002827047C1F3080221
:102D20008280704701468888C0F308007047818917
:102D300041F0010181817047028BD2B20283028B84
:102D400042EA012202837047028B02F47F4202832F
:102D5000028B0A430283704721B1828A42F020022B
:102D6000828204E0828A4FF6DF731A4082827047C3
:102D700021B1828A42F01002828204E0828A4FF6F8
:102D8000EF731A408282704721B1828A42F00802B2
:102D9000828204E0828A4FF6F7731A40828270477B
:102DA00021B1828942F40042828103E08289C2F328
:102DB0000E028281704721B1828A42F400628282CF
:102DC00004E0828A4FF2FF731A4082827047828A3F
:102DD0004FF6FB731A408282828A0A4382827047CE
:102DE00021B1828A42F00202828204E0828A4FF696
:102DF000FD731A408282704702460020B1F5007FC1
:102E000000D100BF13880B400BB1012000E000206F
:102E1000704701F40072B2F5007F00D100BFCA43D1
:102E20000280704770B50246002400230025002070
:102E300040F66A16B14200D100BFC1F3421501F05D
:102E40001F03012606FA03F3012D02D196893340B0
:102E500006E0022D02D1168A334001E0968A334003
:102E60000C12012606FA04F41688344013B10CB192
:102E7000012000E0002070BD10B50022002340F6C4
:102E80006A14A14200D100BF0A1201249440A3B2E7
:102E9000DC43048010BD00000038014000440040C5
:102EA00000480040004C00400050004010B504466F
:102EB000FA48844208D101214015FFF7A9FD0021FD
:102EC0006015FFF7A5FD17E0F548844208D1012100
:102ED0000015FFF79DFD00212015FFF799FD0BE080
:102EE000F048844208D10121C803FFF791FD002179
:102EF0004FF40040FFF78CFD10BD30B502460020B6
:102F000000235068E84C20400D790C6844EA052401
:102F1000204350609068E54C2040D1E902542C4396
:102F20004D7944EA450420439060D06A20F4700053
:102F30000C7C641EE4B2234340EA0350D06230BDEF
:102F400000210160017141718160C1600121017442
:102F5000704721B1826842F00102826003E082681A
:102F600022F001028260704721B1826842F48072CF
:102F7000826003E0826822F480728260704710B53C
:102F80000023CBB21AB144681C43446002E0446899
:102F90009C43446010BD816841F008018160704726
:102FA000014600208A6802F008020AB1012000E010
:102FB00000207047816841F004018160704701463C
:102FC00000208A6802F004020AB1012000E000201B
:102FD000704721B1826842F4A002826003E08268F7
:102FE00022F4A00282607047014600208A6802F441
:102FF00080020AB1012000E00020704710B50A46A7
:1030000000210023416821F46041531E41EA43310D
:10301000416010BD21B1426842F40062426003E0A9
:10302000426822F4006242607047F0B504460D46E3
:1030300000200021092D11DDE068A5F10A0606EB4C
:103040004607072606FA07F18843A5F10A0606EBAC
:10305000460603FA06F10843E0600CE0206905EB40
:103060004507072606FA07F1884305EB450603FAEC
:1030700006F108432061072A0FDA606B561E06EB43
:1030800086071F2606FA07F18843561E06EB8606BA
:1030900005FA06F10843606322E00D2A0FDA206B7F
:1030A000D61F06EB86071F2606FA07F18843D61FB0
:1030B00006EB860605FA06F10843206310E0E06A95
:1030C000A2F10D0606EB86071F2606FA07F18843D4
:1030D000A2F10D0606EB860605FA06F10843E0624A
:1030E000F0BD21B1826842F48012826003E0826800
:1030F00022F48012826070470146C86C80B270472B
:1031000066484C300068704721B1426842F48062E2
:10311000426003E0426822F480624260704721B15D
:10312000426842F48052426003E0426822F48052D6
:10313000426070470A460021816821F4E041114352
:103140008160704721B1826842F40042826003E0EE
:10315000826822F400428260704721B1826842F4A2
:103160000212826003E0826822F4021282607047D9
:10317000014600208A6802F400120AB1012000E032
:1031800000207047F0B504461546002000220026B6
:10319000092911DDE068A1F10A0707EB470C0727B1
:1031A00007FA0CF29043A1F10A0707EB470703FA6D
:1031B00007F21043E0600CE0206901EB410C0727A7
:1031C00007FA0CF2904301EB410703FA07F21043B0
:1031D0002061A06BC0F30156EF1C06F1010CA7EBB8
:1031E0000C0707EB870C1F2707FA0CF29043EF1C24
:1031F00006F1010CA7EB0C0707EB870701FA07F2B2
:103200001043A063F0BD10B50A4600210023816B76
:1032100021F44011531E41EA0351816310BD08B5EA
:10322000002300930090009B0B440093009B1A60C6
:1032300008BD08B5024600200090009201F1280068
:10324000009B184400900098006880B208BD0A46B0
:1032500000214168164B194011434160704741629B
:10326000826270470A460021416821F01F01114324
:103270004160704740B109490831096841F40001D3
:10328000064A0832116007E004490831096821F450
:103290000001024A0832116070470000002401401A
:1032A00000280140003C0140FFFEF0FFFDF7F1FF68
:1032B000FFFD3FFF0246002013680B400BB10120C9
:1032C00000E000207047CA430260704770B50246B4
:1032D0000020002300240B125568CEB205EA060434
:1032E00015681D4015B10CB1012000E0002070BD33
:1032F00000220A12D34303607047000010B5044651
:10330000BE48844208D101218014FFF781FB0021CF
:10331000A014FFF77DFB16E0B948844208D10121D3
:103320000014FFF782FB00212014FFF77EFB0AE068
:10333000B448844207D10121C013FFF776FB002176
:10334000E013FFF772FB10BD10B50022028802F4F3
:1033500041520B884C8823438C882343CC882343D9
:103360000C8923434C8923438C892343CC892343F1
:103370001A430280838B4FF2FF74234083830B8AAE
:10338000038210BD2DE9F04F85B005460C464FF085
:10339000000902274FF000084FF0010B0026B2464B
:1033A000A88B4FF240010840A88302202884B5F87A
:1033B0001C90A068022801D100BF38E0A08810B995
:1033C0004FF0010B01E04FF0020B8D48854200D118
:1033D00000E000BF6846FFF794FADDF800A0E0883F
:1033E000B0F5007F0AD14FEA1A2000EB80004000C0
:1033F000A168B0FBF1F0401D86B20BE04FEA4B1024
:10340000BAFBF0F000EB80004000A168B0FBF1F0E7
:10341000401D86B20A20B6FBF0F606F00108A6EBC6
:103420000800C0F34F074FF6FF7000EA0828022F8C
:1034300001DBFF2F02DD02274FF00008E08840EAA1
:10344000080038432884A088A1890843618808437C
:103450002188084340F4006040EA0909A5F81C905F
:1034600005B0BDE8F08F0021018041808180C180DE
:10347000018141818181C181072101827047002141
:10348000018041808180C180022181600021818191
:10349000704721B1028842F04002028004E00288B5
:1034A0004FF6BF731A400280704721B1828B42F4FD
:1034B0008062828304E0828B4FF6FF331A4082835E
:1034C000704730B5002400230C110125A540ABB294
:1034D0001AB185881D43858002E085889D438580DB
:1034E00030BD1AB183880B43838002E083888B430D
:1034F00083807047818170470146888970474FF605
:10350000FF62914204D0028842F48072028004E09B
:1035100002884FF6FF631A400280704721B182880B
:1035200042F00402828004E082884FF6FB731A4066
:103530008280704702884FF2FF731A40028002882F
:103540000A4302807047018841F48051018070472E
:1035500021B1028842F40052028004E002884DF654
:10356000FF731A400280704702460020012901D0F3
:10357000108B00E0908A70470146088A7047B1F5C9
:10358000804F04D1028842F48042028004E0028825
:103590004BF6FF731A4002807047024600201389E1
:1035A0000B400BB1012000E000207047CA430281AC
:1035B0007047F0B50246002000240023002501F0EA
:1035C0000F070126BE40B4B20B1101269E40B3B2D4
:1035D000968806EA03051689264016B10DB101202A
:1035E00000E00020F0BD10B5002201F00F0401231F
:1035F000A3409AB2D343038110BD000000300140C4
:1036000000380040003C004010B50446FE488442AB
:1036100008D10121C014FFF7FBF90021E014FFF7E6
:10362000F7F9C4E0B4F1804F08D101210846FFF753
:10363000FCF900210120FFF7F8F9B8E0F3488442D3
:1036400008D101210220FFF7F0F900210220FFF745
:10365000ECF9ACE0EE48844208D101210420FFF7E8
:10366000E4F900210420FFF7E0F9A0E0E9488442F2
:1036700008D101210820FFF7D8F900210820FFF721
:10368000D4F994E0E448844208D101211020FFF7E6
:10369000CCF900211020FFF7C8F988E0DF48844208
:1036A00008D101212020FFF7C0F900212020FFF7D9
:1036B000BCF97CE0DA48844208D101214014FFF7CC
:1036C000A7F900216014FFF7A3F970E0D548844200
:1036D00009D10121C804FFF79BF900214FF4002014
:1036E000FFF796F963E0D048844209D1012108052B
:1036F000FFF78EF900214FF48010FFF789F956E0AB
:10370000CA48844209D101214805FFF781F9002107
:103710004FF40010FFF77CF949E0C548844208D116
:1037200001214020FFF781F900214020FFF77DF9BA
:103730003DE0C048844208D101218020FFF775F99F
:1037400000218020FFF771F931E0BB48844208D1A5
:1037500001218015FFF769F90021A015FFF765F930
:1037600025E0B648844209D101210804FFF750F949
:1037700000214FF48030FFF74BF918E0B048844245
:1037800009D101214804FFF743F900214FF400302B
:10379000FFF73EF90BE0AB48844208D101218804D1
:1037A000FFF736F900214FF48020FFF731F910BD03
:1037B00000220288944B98420ED0994B98420BD02D
:1037C000B0F1804F08D0914B984205D0904B984271
:1037D00002D0904B984204D14FF68F731A404B8819
:1037E0001A438D4B984207D08C4B984204D04FF629
:1037F000FF431A40CB881A4302808B8883850B884D
:103800000385814B98420BD0854B984208D08B4B57
:10381000984205D08A4B984202D08A4B984201D1F7
:103820000B7A038601238382704770B5002400223F
:103830000023058C4FF6FE7635400584028C838884
:10384000048B4FF68F752C40B51E2C400D882C43F1
:10385000751E2A400D892A434D882A436A4DA84285
:103860000BD06F4DA84208D0744DA84205D0744DBE
:10387000A84202D0734DA84213D14FF6F7752A40E3
:103880004D892A434FF6FB752A408D882A434FF60F
:10389000FF652B404FF6FF552B408D892B43CD897B
:1038A0002B4383800483CD888586028470BD70B5E8
:1038B000002400220023058C4FF6EF763540058466
:1038C000028C8388048B48F6FF752C404FF6FF4529
:1038D0002C400D884FF6FF7606EA05252C434FF65F
:1038E000DF752A400D8906EA05152A434D8806EA48
:1038F00005152A43444DA84202D0494DA8421DD186
:103900004FF67F752A404D894FF6FF7606EA05157A
:103910002A434FF6BF752A408D8806EA05152A43CB
:103920004FF6FF352B404FF2FF752B408D8906EA8D
:1039300085052B43CD8906EA85052B4383800483C7
:10394000CD880587028470BD70B500240022002355
:10395000058C4FF6FF6635400584028C8388848B86
:103960004FF68F752C404FF6FC752C400D882C437C
:103970004FF6FF552A400D894FF6FF7606EA0525DA
:103980002A434D8806EA05252A431F4DA84202D046
:10399000234DA8421DD14FF2FF752A404D894FF6A5
:1039A000FF7606EA05252A434FF6FF352A408D8823
:1039B00006EA05252A434EF6FF752B404DF6FF75A6
:1039C0002B408D8906EA05152B43CD8906EA05159E
:1039D0002B4383808483CD888587028470BD70B536
:1039E000002200230024058C4EF6FF763540058426
:1039F000038C8488828B48F6FF752A404FF6FF457A
:103A00002A400D8820E00000002C01400004004006
:103A100000080040000C004000100040001400406E
:103A200000340140004C014000500140005401406E
:103A300000180040001C00400020004000400140F1
:103A400000440140004801404FF6FF7606EA052594
:103A50002A434DF6FF752B400D8906EA05352B43A9
:103A60004D8806EA05352B43FA4DA84202D0FA4D9F
:103A7000A84208D14BF6FF752C408D894FF6FF7692
:103A800006EA85152C4384808283CD88A0F84050B7
:103A9000038470BD828B4FF2FF331A408283828B86
:103AA0004FF6FF7303EA01231A4382837047F0B590
:103AB0000C461546002200210026078C4EF6FF7C9E
:103AC00007EA0C070784828B018C4FF6FF7707EA21
:103AD000043640F6FF473A404FF6FF7707EA0527DE
:103AE0003A434FF6FF7707EA03373A43D94FB842D4
:103AF0000ED0D94FB8420BD0B0F1804F08D0D74F7D
:103B0000B84205D0D64FB84202D0D64FB84206D1FF
:103B10004DF6FF77394046F48057394305E047F6C4
:103B2000FF57394044F48057394382830184F0BD04
:103B3000828B4FF6F3731A408283828B0A4382830F
:103B40007047F0B50C461546002200210026078C70
:103B50004FF6FF6C07EA0C070784828B018C4FF647
:103B6000FF7707EA04264FF60C773A404FF6FF77C7
:103B700007EA03172F433A43B64FB8420ED0B64F69
:103B8000B8420BD0B0F1804F08D0B44FB84205D046
:103B9000B34FB84202D0B34FB84206D14FF6FF57E9
:103BA000394046F48077394305E04FF2FF573940FA
:103BB00044F48077394382830184F0BD028B4FF255
:103BC000FF331A400283028B4FF6FF7303EA01238F
:103BD0001A4302837047F0B50C46154600220021B7
:103BE0000026078C4FF6EF7C07EA0C070784028B50
:103BF000018C4FF6FF7707EA041640F6FF473A407C
:103C00004FF6FF7707EA03373A434FF6FF7707EAA5
:103C100005273A438F4FB8420ED08F4FB8420BD092
:103C2000B0F1804F08D08D4FB84205D08C4FB842CC
:103C300002D08C4FB84206D14FF6DF77394046F0BC
:103C40001007394305E04FF65F77394044F010071D
:103C5000394302830184F0BD028B4FF6F3731A409F
:103C60000283028B0A4302837047F0B50C46154667
:103C700000220021068C4FF6FE773E400684028B20
:103C8000018C4FF60C7632407E1C06EA03162E435A
:103C90003243704EB0420ED06F4EB0420BD0B0F1F6
:103CA000804F08D06D4EB04205D06D4EB04202D06C
:103CB0006C4EB04206D14FF6FD76314044F001061D
:103CC000314305E04FF6F576314044F001063143CB
:103CD00002830184F0BD70B505460C465D488542FF
:103CE0000ED05D4885420BD0B5F1804F08D05B48BF
:103CF000854205D05A48854202D05A48854200D1B3
:103D000000E000BF208850B92389A2886188284636
:103D1000FFF7ABFFE1882846FFF79EFF25E02088EC
:103D200004280AD12389A28861882846FFF753FF17
:103D3000E1882846FFF742FF17E0208808280AD1CB
:103D40002389A28861882846FFF7FBFEE188284680
:103D5000FFF7EEFE09E02389A28861882846FFF775
:103D6000A6FEE1882846FFF795FE70BD2DE9F041DB
:103D700005460C4600260127608808B9022600E0A7
:103D80000026A088012801D1022700E00127208811
:103D9000A0B92389A28861882846FFF766FFE188D9
:103DA0002846FFF759FF23893A4631462846FFF750
:103DB00012FFE1882846FFF701FF13E02389A2885C
:103DC00061882846FFF707FFE1882846FFF7F6FEDF
:103DD00023893A4631462846FFF747FFE1882846BF
:103DE000FFF73AFFBDE8F0810A884B881A438B88B9
:103DF0001A43CB881A430B891A434B891A438B8980
:103E00001A43A0F8442070474FF6FF7181800021CB
:103E10000180C18041800172704700210180418092
:103E20008180C180018141818181C18170470021F0
:103E300001804180012181800021C1800181704782
:103E40000021018041808180C18001814181818187
:103E500070470000002C0140003401400004004085
:103E600000080040000C004021B1028842F001022D
:103E7000028004E002884FF6FE731A400280704709
:103E800031B1B0F8442042F40042A0F8442005E0EB
:103E9000B0F84420C2F30E02A0F8442070471AB1D3
:103EA00083890B43838102E083898B43838170473D
:103EB0008182704741EA0203A0F8483070471AB186
:103EC00083890B43838102E083898B43838170471D
:103ED00001894FF6F8721140018170470A460021AE
:103EE00001894FF68F73194011430181704730B536
:103EF00004460D4629462046FFF7F0FF208940F092
:103F00000700208130BD2DE9F04104460D461646DC
:103F10001F46602D06D13B46012231462046FFF761
:103F20005AFE05E03B46012231462046FFF79DFE42
:103F300029462046FFF7D2FF208940F00700208164
:103F4000BDE8F08130B50C4600210189C9B24FF6B9
:103F5000FF7505EA0325154325432943018130BD3B
:103F60002DE9F04105460E46174698460024434683
:103F70003A4631462846FFF7E5FF2C894FF6F870A0
:103F8000044044F007044FF68F70044044F070047E
:103F90002C81BDE8F081F0B504460D4616461F465B
:103FA0003B46324629462046FFF7CCFF208940F4A5
:103FB00080402081F0BD0185828270470A46002141
:103FC00001884FF68F731940114301807047F0B597
:103FD0000C4615461E460021002200230189028B53
:103FE000038C4FF6F877394021434FF6FC473A40AF
:103FF00040F201173A434FF6DD773B404FF6FF772B
:1040000007EA06172F433B43018102830384F0BD77
:104010000A460021018B4FF68F731940114301832B
:1040200070470A460021018B48F6FF7319404FF68E
:10403000FF7303EA02231943018370470A460021F4
:10404000818B4FF68F7319401143818370470A4665
:104050000021818B48F6FF7319404FF6FF7303EA86
:10406000022319438183704721B1028842F0800204
:10407000028004E002884FF67F731A400280704786
:1040800021B1828842F00402828004E082884FF6E7
:10409000FB731A408280704721B1828842F0080287
:1040A000828004E082884FF6F7731A40828070475E
:1040B00021B1828842F00102828004E082884FF6BA
:1040C000FE731A40828070470A460021018B4FF62A
:1040D000F77319401143018370470A460021018B91
:1040E0004FF2FF7319404FF6FF7303EA022319439F
:1040F000018370470A460021818B4FF6F773194000
:104100001143818370470A460021818B4FF2FF7370
:1041100019404FF6FF7303EA022319438183704766
:104120000A460021018B4FF6FB73194011430183AE
:1041300070470A460021018B4FF6FF3319404FF6B6
:10414000FF7303EA02231943018370470A460021E3
:10415000818B4FF6FB7319401143818370470A46E8
:104160000021818B4FF6FF3319404FF6FF7303EAAE
:1041700002231943818370470A460021018B4FF6C1
:104180007F7319401143018370470A460021018B58
:10419000C1F30E014FF6FF7303EA022319430183B3
:1041A00070470A460021818B4FF67F7319401143F7
:1041B000818370470A460021818BC1F30E014FF6BF
:1041C000FF7303EA02231943818370470A460021E3
:1041D000018C4FF6FD7319401143018470470A4664
:1041E0000021018C4FF6F773194011430184704789
:1041F0000A460021018C4FF6DF7319404FF6FF731A
:1042000003EA02131943018470470A460021018C16
:104210004FF67F7319404FF6FF7303EA02131943F9
:10422000018470470A460021018C4FF6FF53194064
:104230004FF6FF7303EA02231943018470470A46CD
:104240000021018C4FF2FF7319404FF6FF7303EA10
:1042500002231943018470470A460021018C4DF660
:10426000FF7319404FF6FF7303EA023319430184C9
:10427000704730B5002301248C40A3B2048C9C43CA
:104280000484048C02FA01F5ADB22C43048430BDE1
:1042900030B5002304248C40A3B2048C9C430484D6
:1042A000048C02FA01F5ADB22C43048430BD70B524
:1042B0000346002000241846183001258D40ACB27A
:1042C0001D8CA5431D8409B1082909D100EB6100AB
:1042D000056825F0700505600568154305600EE06A
:1042E0000D1FC5F34E052844056825F4E04505601B
:1042F00005684FF6FF7606EA02263543056070BD75
:1043000021B1028842F00202028004E002884FF6E6
:10431000FD731A400280704721B1028842F0040206
:10432000028004E002884FF6FB731A400280704757
:1043300021B1828842F08002828004E082884FF6B8
:104340007F731A408280704702884FF6F7731A40D5
:10435000028002880A430280704782884FF68F737A
:104360001A40828082880A438280704702894FF611
:10437000F8731A40028102890A4302817047028958
:104380004FF67F731A40028102890A430281704707
:1043900081847047818570478186704701877047A7
:1043A00081877047A0F84010704702884FF6FF439E
:1043B0001A40028002880A43028070470146888EB4
:1043C00070470146088F70470146888F7047014645
:1043D000B1F8400070470146888C70470146088D4F
:1043E000704702460020138A0B400BB1012000E009
:1043F00000207047CA430282704730B50246002051
:1044000000230024158A05EA0103958905EA0104C1
:1044100013B10CB1012000E0002030BDCA4302827C
:104420007047000010B56FF00400FDF79CFF2E48A8
:1044300000682E49B0FBF1F02D490870084600785D
:1044400000EB4001C1EBC0104FF6FF7101EAC00064
:104450002849088010BD0146254A12784A434FF08A
:10446000E0235A6100229A611A46126942F0010261
:104470001A6100BF4FF0E022106900F001021AB18A
:1044800000F48032002AF5D04FF0E022126922F0C9
:1044900001024FF0E0231A6100229A617047014641
:1044A000144A12884A434FF0E0235A6100229A616D
:1044B0001A46126942F001021A6100BF4FF0E02271
:1044C000106900F001021AB100F48032002AF5D020
:1044D0004FF0E022126922F001024FF0E0231A614E
:1044E00000229A61704700000400002000127A0048
:1044F000D4000020D6000020014600BF704700BF56
:10450000494A128802F04002002AF9D0C2B2464B52
:104510001B1D1A80704710B586B00446012144F275
:104520000400FEF75BFA4FF40070ADF814000320AE
:104530008DF8160018208DF8170005A93B48FDF7E7
:1045400091FF4FF48060ADF8140004208DF817003F
:1045500005A93648FDF786FF25208DF800000320C9
:104560008DF801008DF8020001208DF803006846E7
:10457000FDF7AFFE01940020ADF80800ADF80A0089
:10458000ADF80C00ADF810000C20ADF80E0001A93C
:104590002548FEF7CAFA012240F225512248FEF7CB
:1045A0005CFB01212048FEF74CFB06B010BD10B5A6
:1045B00040F225511C48FEF735FC10B31A48FEF7AF
:1045C000B1FBC4B21A48008800F40040C8B91848CA
:1045D000008800F4804060B10A2C03D00020144908
:1045E000088020E01248008840F40040104908800C
:1045F00019E00D2C06D10E48008840F480400C498B
:10460000088010E00A480088C0F30D0009490C54E6
:1046100007480088401C0649088008460088C728CB
:1046200001DD0020088010BD003801400008014075
:10463000DC0000205802002070B50546002405E08B
:10464000601CC4B2C82C01DD002070BD02213948B5
:10465000FEF7A3FF0028F3D029463648FEF74AFFAD
:10466000002405E0601CC4B2C82C01DD0020ECE78A
:1046700001213048FEF791FF0028F3D02D48FEF7C6
:104680003BFFC0B2E1E700B587B001210420FEF78F
:10469000A5F901210803FEF7A1F9E020ADF8180003
:1046A00018208DF81B0003208DF81A0006A9224857
:1046B000FDF7D8FEE0212048FDF781FF0020ADF88E
:1046C00004004FF48270ADF806000020ADF8080039
:1046D0000220ADF80A000120ADF80C004002ADF850
:1046E0000E003820ADF810000020ADF812000720B1
:1046F000ADF8140001A90F48FEF726FE01210D4870
:10470000FEF7C7FEFF20FFF797FF07B000BD10B50B
:104710000446084800884FF6C771084005490880DC
:10472000084600882043088001210248FEF7B1FEB8
:1047300010BD00000030014000080140002100E0F1
:10474000491C8142FCD370470A2000BF011EA0F122
:104750000100FBD1704710B58021F648FDF72FFF0F
:10476000FFF7F2FF4021F348FDF729FFFFF7ECFFC9
:104770008021F048FDF725FFFFF7E6FF4021ED48D7
:10478000FDF71FFFFFF7E0FF10BD10B58021E948DE
:10479000FDF717FFFFF7D8FF4021E648FDF70FFFB1
:1047A000FFF7D2FF8021E348FDF709FFFFF7CCFFB9
:1047B00010BD2DE9F0410446264600251EE006F016
:1047C00080077006060E4021DA48FDF7FAFEFFF773
:1047D000BBFF802F04D18021D648FDF7F0FE03E017
:1047E0008021D448FDF7EDFEFFF7AEFF4021D14810
:1047F000FDF7E5FEFFF7A8FF681CC5B2082DDEDB5C
:104800004021CC48FDF7DDFEFFF79EFF8021C9481F
:10481000FDF7D5FEFFF798FFBDE8F08138B50446F7
:104820006CB98020ADF8000014208DF8030003203F
:104830008DF802006946BF48FDF714FE0BE0012C1D
:1048400009D18020ADF8000048208DF803006946AA
:10485000B848FDF707FE38BD70B500254021B548C2
:10486000FDF7AFFEFFF770FF8021B248FDF7A7FE0E
:104870000120FFF7D3FF002419E0FFF765FF402177
:10488000AC48FDF79CFEFFF75FFF8021A948FDF7CC
:104890007CFE012801D1012600E0002646EA450001
:1048A000C5B24021A348FDF78CFE601CC4B2082CA1
:1048B000E3DB0020FFF7B2FFFFF746FF284670BD9D
:1048C00010B500240120FFF7A9FF40219948FDF70A
:1048D00076FEFFF739FF00E0641C80219548FDF764
:1048E00054FE012803D141F288308442F4D34021A0
:1048F0009048FDF766FEFFF727FF0020FFF78EFFC9
:1049000010BD10B540218B48FDF75BFEFFF71CFF83
:1049100080218848FDF755FEFFF716FF40218548A6
:10492000FDF74DFEFFF710FF40218248FDF749FEDD
:10493000FFF70AFF10BD10B540217E48FDF741FE8C
:10494000FFF702FF80217B48FDF739FEFFF7FCFEF1
:1049500040217848FDF733FEFFF7F6FE4021754809
:10496000FDF72FFEFFF7F0FE10BD70B504460D46B3
:10497000FFF7F1FE2046FFF71CFFFFF7A1FF2846D7
:10498000FFF717FFFFF79CFFFFF7E5FE611CC8B2BA
:10499000FFF70FFFFFF794FFFFF75EFF0646FFF7F5
:1049A000F4FE3220FFF7CAFE304670BD70B50646F1
:1049B0000C461546FFF7CFFE3046FFF7FAFEFFF72D
:1049C0007FFF2046FFF7F5FEFFF77AFF2846FFF747
:1049D000F0FEFFF775FFFFF7D8FEFA20FFF7AEFEF7
:1049E00070BD70B505460C46FFF7B5FE2846FFF7CB
:1049F000E0FEFFF765FF2046FFF7DBFEFFF760FFF5
:104A0000FFF7C3FEFA20FFF799FE70BD2DE9F041D4
:104A100006460F4615469846FFF79DFE3046FFF7BF
:104A2000C8FEFFF74DFF3846FFF7C3FEFFF748FF0C
:104A3000FFF791FE711CC8B2FFF7BBFEFFF740FF06
:104A400000240DE0FFF708FF08F80400601CA842EE
:104A500002DAFFF756FF01E0FFF76DFF601CC4B2FA
:104A6000AC42EFDBFFF791FEFA20FFF767FEBDE8EF
:104A7000F0812DE9F04104460D46FFF76CFE20461B
:104A8000FFF797FEFFF71CFF2846FFF792FEFFF7A0
:104A900017FFFFF760FE611CC8B2FFF78AFEFFF741
:104AA0000FFFFFF7D9FE0646FFF72BFFFFF7D4FEF7
:104AB0000746FFF740FFFFF768FEFA20FFF73EFECC
:104AC00047EA06284046BDE8F0812DE9F047044654
:104AD0000D46FFF740FE2046FFF76BFEFFF7F0FEA6
:104AE0002846FFF766FEFFF7EBFEFFF734FE611C7A
:104AF000C8B2FFF75EFEFFF7E3FEFFF7ADFE074625
:104B0000FFF7FFFEFFF7A8FE0646FFF7FAFEFFF7E6
:104B1000A3FE8046FFF70FFFFFF737FEFA20FFF7EF
:104B20000DFEC7EB074000EB062000EB08094846E6
:104B3000BDE8F087000C014008B501210820FDF711
:104B40004DFF4020ADF8000014208DF80300032035
:104B50008DF8020069460848FDF784FC8020ADF816
:104B6000000014208DF8030003208DF80200694630
:104B70000148FDF777FC08BD000C01407047704705
:104B800070477047704710B500F008F8006810BD16
:104B900010B5044600F002F8046010BD00487047EC
:104BA0002003002000487047200300207546FFF7CF
:104BB000F9FFAE4605006946534620F007008546DA
:104BC00018B020B5FDF76EFBBDE820404FF00006A1
:104BD0004FF000074FF000084FF0000B21F00701E5
:104BE000AC46ACE8C009ACE8C009ACE8C009ACE828
:104BF000C0098D46704710B50446AFF300802046CB
:104C0000BDE81040FBF7B9BA490050EAC12018BF0F
:104C100004204A0D18BF40F0010040F2FF72B2EBD1
:104C2000515F08BF40F00200012808BF052070470F
:104C30002DE9F74F144694B00021C4E902111599EB
:104C4000079121F00045C9498D4206DC1599C4E958
:104C5000000117B00020BDE8F08FC549DFF814A3AC
:104C6000A9423CDD0799C44E0029C44FC44A159996
:104C7000534619DD01F02CFB554506D0C14AC24B05
:104C800001F026FBC4E900010AE04FF0D352BE4B0D
:104C900001F01EFB32463B4601F01AFBC4E900015D
:104CA00017B00120BDE8F08F00F092FE554506D008
:104CB000B44AB54B00F08CFEC4E900010AE04FF0A5
:104CC000D352B14B00F084FE32463B4600F080FEEA
:104CD000C4E9000117B04FF0FF30BDE8F08FAB49D9
:104CE000A942159978DB21F0004183468846A84AFD
:104CF000A84B01F0FDF80022A74B00F069FE01F07F
:104D00006FF8099001F0C9F806460F469C4A5346D1
:104D100001F0EEF843465A4601F0E8F980468A462B
:104D2000984A994B3046394601F0E2F82A0D0125A0
:104D30000B924246534601F0D9F9032DC4E9000114
:104D400039D00B98C1F30A51401A05EB45111139BE
:104D5000814230DA9148C346784400EB0510CDF823
:104D60000CA00C90D0E900233046394601F0C0F881
:104D700002460B46049106905846039901F0A8FAA2
:104D800080468A4602460B465846039901F0A0FA2F
:104D9000049B069A01F09CFA83460C9803913946CD
:104DA000D0E90223304601F0A3F85A46039B01F0F4
:104DB0008FFA6D1CBDE707980028A2BF099817B0AD
:104DC000BDE8F08F616881F000416160099817B01B
:104DD0004042BDE8F08FFFE784461598C1F3130108
:104DE000C0F30A50A0F2F5304FEA601800F01F0639
:104DF000C6F12000139000200690079041F4801E19
:104E000005206D4676B1664A08EB00017A4452F8F7
:104E1000213002EB8101B3404A68139922FA01F173
:104E2000194305E05F4908EB0002794451F822106C
:104E3000A1FB0E27A1FB0C131A449A4234BF012395
:104E4000002303EB070A05EB8003D3E901B70F4406
:104E50008F4234BF0121002193448B4411B193450B
:104E600002D903E0934501D2012100E00021C3E90A
:104E700001B7514445F82010011EA0F10100C1DC2A
:104E80000298059F00F10050800F12900298DDE912
:104E90000356800001F001F8834628460D9101F089
:104EA00013F86FF01D0201F0E2FDCDE90E0130466E
:104EB00001F00AF86FF03D0201F0D9FD80468A4604
:104EC000384601F001F86FF05D0201F0D0FD0746B1
:104ED00042465346119100F07BFDDDE90E2300F0C0
:104EE00077FD5A460D9B00F073FD00250E465A468D
:104EF00028460D9B01F0ECF9DDE90E2301F0E8F9FD
:104F00004246534601F0E4F93A46119B01F0EEF8AF
:104F1000DFF898A0244A534600F0EAFF0746884687
:104F2000234A244B3146284600F0E2FF3A464346E6
:104F300000F04EFD074688464FF0A84253463146E2
:104F4000284600F0D5FF3A46434600F041FD159A49
:104F500012F0004F04D0129A81F000415242129296
:104F6000C4E90001129817B0BDE8F08FFB21E93FBA
:104F70007CD90240FB21F93F7370032E8A19A33BB1
:104F8000000040543163621A61B4D03DFB213941C5
:104F900083C8C96D305FE43F0000E03FCC1E0000D5
:104FA000481E00002A1E0000182D4454FB21F93D24
:104FB0003326A611460B113C2DE9FF4D21F0004888
:104FC00007460C46B8F1795F08DA00F009FF0028BF
:104FD00001BF0020324904B0BDE8F08D3A462346B7
:104FE0001046194600F084FF054602462D480E463D
:104FF0000B460621784400F05DF82A46334600F05F
:1050000077FFDDE9022382468B463846214600F0D1
:105010006FFF04460F4652465B462846314600F075
:1050200067FF22463B4601F053F907468A464FF098
:10503000FF322846314601F01AFD1B4A90450ADA34
:105040003A46534601F044F904B00022BDE8F04D61
:10505000134B01F04BB8154A4245A8BFA8F50015FF
:105060004FF00004B8BF124D22462B4601F030F934
:105070000646884622462B460020094901F028F9B9
:1050800004460D463A4653463046414601F020F963
:1050900004B022462B46BDE8F04D01F027B80000D1
:1050A0000000F03FF81B00003333D33F0000E93F1E
:1050B0000000D23F2DE9F0414F1E00EBC70104462E
:1050C000D1E9000115461E4637F006020DD02A46EA
:1050D000334600F00DFF7F1E04EBC703D3E9002326
:1050E00000F076FC37F00602F1D1022F25D0042F14
:1050F00013D0062F18BFBDE8F0812A46334600F0D2
:10510000F7FED4E90A2300F063FC2A46334600F098
:10511000EFFED4E9082300F05BFC2A46334600F09A
:10512000E7FED4E9062300F053FC2A46334600F09C
:10513000DFFED4E9042300F04BFC2A46334600F09E
:10514000D7FED4E9022300F043FC2A46334600F0A0
:10515000CFFED4E90023BDE8F04100F039BC0000E7
:105160002DE9FF4D054621F0004084B00C46B0F11A
:10517000795F0BDA2846FFF747FD042808BF00F0E7
:1051800071F8284608B02146BDE8F08D2A460B4646
:10519000104600F0ADFE06460F462A46234600F0B4
:1051A000A7FE804626488A4632463B46052178447B
:1051B000FFF780FF83461098029160B3214A224B8B
:1051C0004046514600F094FECDE900015A46404663
:1051D0005146029B00F08CFE82468846DDE90601BE
:1051E0004FF0FF3201F043FC5246434601F070F8A5
:1051F00032463B4600F07CFEDDE9062301F068F80C
:10520000DDE9002301F064F808B02A462346BDE832
:10521000F04D00F06BBF0B465A463046394600F061
:1052200067FE084A084B00F0D3FB4246534600F0A5
:105230005FFE08B02A462346BDE8F04D00F0C8BB2B
:105240003E1B0000495555555555C5BF012201F07B
:105250000EBC00F0BDBB002213461046114600F004
:1052600067BC0000024A0020110701F000BC0000EA
:1052700001FDFFFF2DE9F04D8D4F21F0004A86B072
:1052800005460C46BA452ADBAAEB070028430AD09C
:105290008848824501DC1AD1CDB106B02846BDE868
:1052A000F04DFFF7D3BF844A844B284600F020FE20
:1052B00007460E46824A834B2846214600F018FED8
:1052C00006B03A463346BDE8F04D00F081BB012000
:1052D000FFF75EFC06B0BDE8F04DFFF7BCBF7A48B3
:1052E000824542DABAF1795F0BDA2846FFF78CFC87
:1052F000042808BFFFF7B6FF284606B02146BDE8E0
:10530000F08D2A460B46104600F0F2FD8346024619
:105310006E480E460B4606217844FFF7CBFE5A46F0
:10532000334600F0E5FD804669488A465A463346D2
:1053300004217844FFF7BEFE5A46334600F0D8FDFC
:1053400000223B4600F044FB02460B4640465146D5
:1053500000F0EEFB2A46234600F0CAFD06B02A46BE
:105360002346BDE8F04D00F033BB284624F0004151
:1053700000223D463B4600F0B9FE4FF0FF3201F0FF
:1053800076FB0646024653480F460B4606217844F4
:10539000FFF790FE32463B4600F0AAFDCDE9000142
:1053A0004D4832463B4604217844FFF783FE32469F
:1053B0003B4600F09DFD00222B4600F009FB834692
:1053C00002913046394600F0ABFA804643480D461C
:1053D000504517DCDDE900015A46029B00F0A8FBAE
:1053E00042462B4600F084FD42462B4600F0F0FA80
:1053F000012201F03CFB304A304B00F069FF304A9B
:10540000304B4CE04FF0000A52460B46404600F04D
:10541000DFFACDE9031052462B461046194600F03C
:1054200067FD32463B4600F061FEDDE9033200F0E5
:105430007FFB06460F46DDE900015A46029B00F05D
:1054400077FB8346009101223046394601F00FFB7D
:10545000194A1A4B00F04AFE06460F460122404602
:10546000294601F004FB5A46009B00F041FD3246FC
:105470003B4600F02DFF06460F46012250462946C6
:1054800001F0F5FA0E4DDFF858802A46434600F049
:105490002DFE32463B4600F029FE2A46434600F0E8
:1054A00025FE002CD8BF81F0004106B0BDE8F08D8C
:1054B0000000F03F0000F07F075C143326A6913C0B
:1054C000182D4454FB21F93F0000E03FEC17000089
:1054D00002180000761700008C1700003333EF3FEE
:1054E000FB21E93F2DE9F84F04460D4621F000402D
:1054F00000917349814211DC7249884201DC06D176
:105500002CB120462946BDE8F84FFFF79FBE6E48F4
:10551000002DCCBF6D496E49BDE8F88F6D498142C1
:1055200011DD6D498142D8BF4FF0FF366DDD204659
:105530002946FFF769FB042808BFFFF793FE2046C2
:105540002946BDE8F88F6549654F25F00045814241
:1055500033DD6449814219DD002632464FF0804335
:105560002046294600F034FA80468A460122204629
:10557000294601F07CFA00223B4600F0A9FE424693
:10558000534600F0D5FA04460D463EE001260022BF
:10559000BA463B462046294600F01AFA80460F4696
:1055A000002253462046294600F092FE42463B46E2
:1055B00000F0BEFA04460D4627E04B4981421BDD50
:1055C000DFF828A10226002253462046294600F093
:1055D0008FFC00223B4600F0FBF980460F4600227C
:1055E00053462046294600F073FE42463B4600F0F3
:1055F0009FFA04460D4608E0032622462B4600206B
:105600003B4900F095FA04460D4622462B461046CB
:10561000194600F06DFC8B46824602460B4600F0B0
:1056200067FC07460246334888460B460621784405
:10563000FFF740FD52465B4600F05AFC82462E487A
:105640008B463A46434605217844FFF733FD3A46F8
:10565000434600F04DFC02460B46002E504659468C
:105660000CDA00F0B5F922462B4600F041FC01B0FF
:1056700022462B46BDE8F04F00F038BD00F0A8F9F7
:1056800022462B4600F034FC1C4A7A4402EBC60347
:10569000D3E9002300F01CFE22462B4600F018FE42
:1056A000174A7A4402EBC603D3E9002300F01EFD3B
:1056B000009A002AB8BF81F00041BDE8F88F0000D1
:1056C000000010440000F07F182D4454FB21F93FE6
:1056D000FB21F9BF0000DC3F0000203E0000F33F4B
:1056E0000000F03F0000E63F008003400000F83F6C
:1056F0000000F0BF8E1500004C150000EA140000F9
:10570000B21400002DE9F04D9446CCF1000423F0D2
:1057100000464CEA0404524F46EAD4749A4688463E
:1057200021F00042BC4206D8454240EA050442EA64
:10573000D474BC4204D9BDE8F04D6246FFF789BD80
:10574000AAF14055A5F17F6555EA0C040BD002245F
:1057500004EAAA74434DDFF810E144EAD87452EA2F
:10576000000B04D00CE0BDE8F04DFFF7BBBE002CF1
:1057700014BF012CBDE8F08D022C30D0032C32D0A8
:1057800056EA0C0B0AD0BE4220D1BA4209D126F00B
:10579000804622F080423346114617E000291ADB8A
:1057A00025E0DFF8C8B0FB44002C04BFDBE90001B2
:1057B000BDE8F08D012C02BFDBE9000181F0004162
:1057C000BDE8F08D022C0AD0032C0CD0BA4212D1C5
:1057D000B8F1000F0BDA23482549BDE8F08D2846C3
:1057E0002449BDE8F08D28467146BDE8F08D1D487E
:1057F0002149BDE8F08D921B12153C2AC4BF1948FF
:105800001D490EDCBAF1000FBEBF12F13C0F0020A3
:10581000014606DB624600F08BF921F00041FFF7FC
:1058200061FE002C08BFBDE8F08D012C04BF81F0A3
:105830000041BDE8F08D114A114B022C07D000F059
:1058400047FD2A46BDE8F04D0A4B00F041BD00F08F
:105850003FFD2A46BDE8F04D064B00F047BC000076
:105860000000F07F182D4454FB2109C0761400007D
:10587000FB21F9BFFB210940FB21F93F075C1433F1
:1058800026A6A13C00B5244B21F0004287B09A42E5
:10589000DCBF0022134629DD204B9A4208D140B9D3
:1058A0004FF00100FFF774F9FFF7D5FC07B000BD1A
:1058B00003DBFFF7CBFC07B000BD02AAFFF7B8F986
:1058C00010F0030104BF0DF1080C9CE80F000DD08F
:1058D000012001290ED0022914D00DF1080C0090EE
:1058E0009CE80F00FFF73CFC07B000BDFFF764FB2E
:1058F00007B000BD0DF1080C00909CE80F00FFF709
:105900002FFC05E00DF1080C9CE80F00FFF754FB9D
:1059100007B081F0004100BDFB21E93F0000F07FAE
:105920002DE9F04106460F4600F0ECFB041E0D4643
:1059300018BF0120284320F00040C0F17F6000F133
:10594000E040C00F0ED0301C18BF0120384320F0BB
:105950000040C0F17F6000F1E040C00F04BF0120B3
:10596000FFF716F920462946BDE8F08121F00042F4
:10597000A2F16052B2F5801F01F0004328BFD2F1BE
:105980007F6C0BD95FEA001C43EAC20242EB507005
:1059900018BF704728BF20F001007047B2F5801F84
:1059A000BCBF184670474FEA410C1CF5001F02D2DD
:1059B000084600F074BF70B500F044FB0000008999
:1059C000FFF7F6BF4FF00040A0F5800070470000E1
:1059D00010B591EA030F48BF83F0004300F18084C3
:1059E000841A71EB030C05D2121943EB0C03001B54
:1059F00061EB0C01DFF824E14FEA1154A4EB135CD6
:105A00001EEA430F18BF9EEA445F73D023EA0E03D9
:105A1000DCF1200E21EA045143F4801332D322FA40
:105A20000CFE10EB0E0023FA0CFE41EB0E01CCF144
:105A3000200E03FA0EFE10EB0E0051F10001B1F53D
:105A4000801FCCF1200E32D201EB045112FA0EF27B
:105A5000BDE8104058BF7047401C38BF5FEA4202A3
:105A600018BF7047002814BF20F0010041F1000169
:105A70004FEA410313F5001F38BF7047A1F1C04141
:105A800000F02EBB012A43EB0302ACF1200CDCF149
:105A90001F0E32BF4FF0000E23FA0CF310EB030081
:105AA00041EB0451B4EB115FD0D0A1EB045101F5EF
:105AB000801149085FEA300001EB04510ED350F128
:105AC000000038BF12FA0EFE08D1BDE81040C9E749
:105AD000401C38BF5FEA4202CAD1C3E7BDE81040AC
