:020000040800F2
:10000000E00A0020C9010008F91E0008491600088E
:10001000CD1E0008950A00081F31000800000000EE
:10002000000000000000000000000000AD260008F5
:100030000112000800000000CD23000899270008E5
:10004000E3010008E3010008E3010008E301000800
:10005000E3010008E3010008E3010008E3010008F0
:10006000E3010008E3010008E3010008E3010008E0
:10007000E3010008E3010008E3010008E3010008D0
:10008000E3010008E3010008E3010008E3010008C0
:10009000E3010008E3010008E3010008E3010008B0
:1000A000E3010008E3010008E3010008E3010008A0
:1000B0007128000841290008E3010008E301000855
:1000C000E3010008E3010008E3010008E301000880
:1000D000E3010008E3010008E30100080D2F000818
:1000E000E3010008E3010008E301000800F002F862
:1000F00000F05AF80AA090E8000C82448344AAF168
:100100000107DA4501D100F04FF8AFF2090EBAE865
:100110000F0013F0010F18BFFB1A43F0010318473B
:1001200048500000685000000A444FF0000C10F8DE
:10013000013B13F0070408BF10F8014B1D1108BF65
:1001400010F8015B641E05D010F8016B641E01F805
:10015000016BF9D113F0080F1EBF10F8014BAD1C55
:100160000C1B09D16D1E58BF01F801CBFAD505E073
:1001700014F8016B01F8016B6D1EF9D59142D6D3CD
:10018000704700000023002400250026103A28BFF5
:1001900078C1FBD8520728BF30C148BF0B607047F9
:1001A0001FB51FBD10B510BD00F046F81146FFF792
:1001B000F7FF03F0C3FC00F064F803B4FFF7F2FFAD
:1001C00003BC03F061F80000094880470948004774
:1001D000FEE7FEE7FEE7FEE7FEE7FEE7FEE7FEE7F7
:1001E000FEE7FEE704480549054A064B7047000054
:1001F000A9270008ED000008E0040020E00A002024
:10020000E0060020E0060020704770477047704706
:10021000704710B500F008F8006810BD10B504462E
:1002200000F002F8046010BD004870478004002010
:1002300000487047800400207546FFF7F9FFAE467E
:1002400005006946534620F00700854618B020B5E2
:10025000FFF7C8FFBDE820404FF000064FF0000751
:100260004FF000084FF0000B21F00701AC46ACE85E
:10027000C009ACE8C009ACE8C009ACE8C0098D46CB
:10028000704710B50446AFF300802046BDE810402B
:10029000FFF793BF2DE9F047002400250026C8276B
:1002A00000201C49488200211A488182C1820DE049
:1002B00001F096FC1748B0F9000004441548B0F965
:1002C000020005441348B0F904000644381EA7F1A3
:1002D00001018FB2ECD1C82094FBF0F000B20D49BF
:1002E0004882C82095FBF0F001B20A488182C820FC
:1002F00096FBF0FA504604F077FC8146064904F07C
:10030000C7FD804604F054FC01B20248C182BDE83A
:10031000F087000030020020C2877A460FB597B000
:1003200000201590FE480168006804F0A9FCFD4912
:100330000860FD480168FA48006804F0A1FCFB4928
:100340000860FB480168F648006804F099FCF94928
:100350000860F9480168F248006804F091FCF74928
:100360000860F1480168006804F08AFCF4490860FC
:10037000EF480168EC48006804F082FCF14908602D
:10038000ED480168E848006804F07AFCEE4908602E
:10039000E7480168006804F073FCEC490860E6482F
:1003A0000168E348006804F06BFCE9490860E24832
:1003B0000168006804F064FCE64908601C991A981A
:1003C00004F05EFC0C901D9904F05AFC00210D9085
:1003D00004F0BAFB01D11BB000BD1D99084604F022
:1003E0004FFC0C901C99084604F04AFC0A901A999C
:1003F000084604F045FC09900A9904F075FA0B9040
:100400000C9904F071FA0D9001F0E2FF1490149928
:100410001A9804F035FC1A9014991C9804F030FCDA
:100420001C9014991D9804F02BFC1D90C148016884
:10043000C548006804F02CFD4FF080410D9004F099
:100440001FFC1390C2480168B848006804F04CFAD9
:100450004FF080410D9004F013FC1290B8480168F1
:10046000B048006804F014FD0C90B84801680C987E
:1004700004F00EFD0D90B74801680D9804F034FAB1
:10048000119012991D9804F0FBFB0D9011991C9886
:1004900004F0F6FB0C900D9904F0FAFC1090119901
:1004A0001A9804F0EDFB0D9013991D9804F0E8FBE9
:1004B0000C900D9904F0ECFC0F9013991C9804F02B
:1004C000DFFB0D9012991A9804F0DAFB0C900D994D
:1004D00004F0DEFC0E90109802F024FE9E490B9072
:1004E00004F0CEFB0C90109904F0CAFB0D909B48D1
:1004F00001680D9804F0F8F9984908600F9802F027
:1005000011FE95490B9004F0BBFB0C900F9904F081
:10051000B7FB0D90924801680D9804F0E5F99049F9
:1005200008600E9802F0FEFD8B490B9004F0A8FBCA
:100530000C900E9904F0A4FB0D908A4801680D9868
:1005400004F0D2F987490860109802F0EBFD864963
:100550000A9004F095FB0B90109904F091FB0C901D
:10056000179904F0C1F90D907C4801680D9804F0CA
:10057000BBF917900F9802F0D5FD7B490A9004F063
:100580007FFB0B900F9904F07BFB0C90189904F003
:10059000ABF90D90724801680D9804F0A5F9189018
:1005A0000E9802F0BFFD70490A9004F069FB0B90B1
:1005B0000E9904F065FB0C90199904F095F90D90D3
:1005C000684801680D9804F08FF919905A481999F4
:1005D000006804F055FB0B9055481899006804F02A
:1005E0004FFB09905048006880F000400790179931
:1005F00004F046FB0890099904F04AFC0A900B9914
:1006000004F046FC59490C9004F03AFB0D90444824
:1006100001680D9804F068F9414908604648189946
:10062000006804F02DFB0B9041481999006804F014
:1006300027FB09903A480168179804F021FB0890BD
:10064000099904F051F90A900B9904F021FC4749EB
:100650000C9004F015FB0D90334801680D9804F0E0
:1006600043F93149086034480168179804F008FBE1
:100670000B902D481999006804F002FB0990284856
:100680001899006804F0FCFA0890099904F000FC3D
:100690000A900B9904F028F934490C9004F0F0FA10
:1006A0000D90234801680D9804F01EF92049086058
:1006B00008460168179804F0E3FA0B901A48189955
:1006C000006804F0DDFA099015481999006804F0F3
:1006D000D7FA0890099904F007F90A900B9904F0E9
:1006E000D7FB22490C9004F0CBFA0D901248016818
:1006F0000D9804F0F9F8104908601148016809489C
:10070000006804F0F1F80B90104801680B9804F0B1
:10071000EBF80C900F4801680C9804F0E5F827E01E
:10072000A4000020C0000020A8000020C400002079
:10073000AC000020C8000020B0000020CC00002049
:10074000D0000020D4000020D8000020DC000020D1
:10075000E0000020E40000206F12033CB400002001
:10076000B8000020BC000020000020410AD7A33BB5
:100770000D9001F02DFE1490B2481499006804F019
:100780007FFAB0490860B0481499006804F078FA1C
:10079000AD490860AD481499006804F071FAAB499E
:1007A0000860AB481499006804F06AFAA849086028
:1007B000A84801684FF0804004F062FA0690A6480D
:1007C00001684FF0404004F05BFA0590069904F090
:1007D0008BF8079004F05CF8CDE9080102F058FDB1
:1007E0009E4A9F4BCDE90A0103F078FDCDE90C014B
:1007F00003F0F4FA9B4908609B4801684FF0804081
:1008000004F03EFA0190994801684FF0404004F02E
:1008100037FA0090019904F03BFB4FF07E510290B3
:1008200004F062F8039004F033F8CDE90601904833
:1008300001684FF0804004F023FA02908D4801686F
:100840004FF0804004F01CFA0190029904F04CF83B
:10085000039004F01DF8CDE90401DDE9062302F060
:100860005FFF7E4A7E4BCDE9080103F037FD002291
:10087000814BCDE90A0103F021FFCDE90C0103F022
:10088000ADFA784948607D4801684FF0804004F037
:10089000F7F90390744801684FF0404004F0F0F914
:1008A0000290039904F0F4FA4FF07E51049004F0A2
:1008B0001BF8059003F0ECFFCDE9080170480168D2
:1008C0004FF0804004F0DCF904906E4801684FF06E
:1008D000804004F0D5F90390049904F005F80590E0
:1008E00003F0D6FFCDE90601DDE9082302F018FF89
:1008F0005A4A5B4BCDE90A0103F0F0FCCDE90C014B
:1009000003F06CFA57498860584801685E480068EF
:1009100003F0EAFF0C90544801680C9804F0B8FA10
:100920000D90564801680D9804F0B2FA57490860D6
:10093000534801685348006803F0D6FF4FF08041E8
:100940000D9004F09DF951494860424801684248C1
:10095000006804F09DFA4FF080410D9004F090F98A
:100960004A498860464801684648006804F090FAA1
:100970004FF080410D9004F083F94449C8603B4832
:1009800001684148006804F083FA0C903648016819
:100990000C9803F0A9FF0D90384801680D9804F0F9
:1009A00077FA3A490861324801683248006803F032
:1009B0009BFF4FF080410D9004F062F9334948618C
:1009C000244801682448006803F08EFF4FF08041FE
:1009D0000D9004F055F92D49886125480168254896
:1009E000006804F055FA4FF080410D9004F048F98A
:1009F0002649C8611D4801682348006804F048FA88
:100A00000C90194801680C9804F042FA0D901B48AC
:100A100001680D9803F068FF1C49086200201590DA
:100A20000AE01A49159851F82010194A42F8201086
:100A30001598401CC0B2159015980928F1DB00BF2D
:100A4000C9E40000A4000020A8000020AC000020A1
:100A5000B0000020C8000020D800002031B3CF63D0
:100A600094A94C409C020020DC000020D000002013
:100A7000C4000020E00000200000F03FE40000205F
:100A8000CC000020D4000020C00000208000002006
:100A9000A802002000BFFEE707B586B0FE48006848
:100AA00001460590069804F0F3F9FC490860FA48FD
:100AB000806F01460590079804F0EAF9F84908604C
:100AC000F548D0F8F00001460590089804F0E0F9E8
:100AD000F4490860F04880690590F048016805987D
:100AE00003F002FFEC4988610846D0F890000590B9
:100AF000EB480168059803F0F7FEE749C1F890005C
:100B00000846D0F808010590E6480168059803F00A
:100B1000EBFEE149C1F808010846C06905900846A6
:100B200080690490059904F077F904D2DA48C06925
:100B3000D949886112E0D848C06980F0004005902A
:100B4000D548806901460490059804F065F905D2FE
:100B5000D148C06980F00040CF498861CE488068A4
:100B600001460290CD48006804F092F90390CA480B
:100B7000806A01460290039804F082F80590C64806
:100B800080690190C448406A0090019904F078F8A7
:100B90000390C148006A0190C0480168019804F0C0
:100BA0006FF80290039903F09FFE0490059903F0FB
:100BB0009BFEB9498863B948006888600846D0F848
:100BC000940005900846D0F890000490059904F030
:100BD00023F905D2B048D0F89410C0F8901016E070
:100BE000AD48D0F8940080F000400590AA48D0F8B5
:100BF000900001460490059804F00EF907D2A6482B
:100C0000D0F8940080F00041A348C0F89010A248AA
:100C1000D0F8800001460290A148006804F038F93D
:100C200003909D48D0F8A00001460290039804F07C
:100C300027F805909848D0F8900001909648D0F891
:100C40009C000090019904F01BF803909248D0F8A2
:100C50009800019092480168019804F011F8029000
:100C6000039903F041FE0490059903F03DFE8A4983
:100C7000C1F8B0008A4801688748C0F88010D0F8F1
:100C80000C0105908448D0F808010490059904F0FF
:100C9000C3F805D28048D0F80C11C0F8081116E04E
:100CA0007D48D0F80C0180F0004005907A48D0F8DB
:100CB000080101460490059804F0AEF807D2764882
:100CC000D0F80C0180F000417348C0F80811724858
:100CD000D0F8F800014602907248006804F0D8F895
:100CE00003906D48D0F8180101460290039803F074
:100CF000C7FF05906848D0F8080101906648D0F811
:100D000014010090019903F0BBFF03906248D0F8F2
:100D10001001019063480168019803F0B1FF02904F
:100D2000039903F0E1FD0490059903F0DDFD5A49B4
:100D3000C1F828015B4801685748C0F8F810D0F89E
:100D4000B40004905848806C0390049904F0A0F813
:100D500005905148D0F8CC0001460490059803F066
:100D6000C3FD01464C48C0F8CC10D0F8D000059027
:100D70004948D0F8CC000490059904F04DF805D20C
:100D80004548D0F8D010C0F8CC1016E04248D0F852
:100D9000D00080F0004005903F48D0F8CC000146DC
:100DA0000490059804F038F807D23B48D0F8D000FA
:100DB00080F000413848C0F8CC103748C06B049030
:100DC0003948C06C0390049904F062F805903248E9
:100DD000406D01460490059803F086FD2E49486554
:100DE0000846806D05900846406D0490059904F012
:100DF00013F803D22848816D416512E02648806DC2
:100E000080F0004005902448406D0146049005980C
:100E100004F002F805D22048806D80F000411E48A1
:100E200041651D48D0F82C0104901F48006D0390C7
:100E3000049904F02DF805901748D0F844010146B4
:100E40000490059803F050FD01461348C0F8441182
:100E5000D0F8480105901048D0F844010490059955
:100E600003F0DAFF05D20C48D0F84811C0F844115D
:100E700021E00948D0F8480180F00040059006487C
:100E8000D0F8440101460490059803F0C5FF12D242
:100E90000148D0F8480109E0CC02002034010020CC
:100EA000380100203C0100203002002080F0004189
:100EB000CF48C0F84411CF48806C0490CC48D0F89B
:100EC000D4000390049903F0DBFE0590C848D0F8E5
:100ED000B00001460490059803F006FD0146C448A1
:100EE000C0F8E010D0F8CC000590C148D0F8D80088
:100EF0000490059903F0C4FE0146BD48C0F8E41013
:100F0000BC48B0F93C00039003F06EFE0490B94871
:100F1000806C01460390049803F0AFFF0590B4483D
:100F2000D0F8DC0001460490059803F0A9FE0146C4
:100F3000AF48C0F8E810AF48C06C0490AC48C06D32
:100F40000390049903F09CFE0590A948806B01462C
:100F50000490059803F0C8FCA54988660846406DD2
:100F600005900846006E0490059903F089FEA0499B
:100F7000C866A048B0F93E00039003F035FE049027
:100F80009C48C06C01460390049803F076FF0590DE
:100F90009748406E01460490059803F071FE94490D
:100FA00008679448006D04900846D0F84C010390FF
:100FB000049903F065FE05908D48D0F8280101469C
:100FC0000490059803F090FC01468948C0F8581138
:100FD000D0F8440105908648D0F850010490059956
:100FE00003F04EFE01468248C0F85C118148B0F91A
:100FF0004000039003F0F8FD04907E48006D014628
:101000000390049803F039FF05907948D0F8540113
:1010100001460490059803F033FE01467448C0F879
:1010200060117448806C059003F0C2FD01B27148F4
:101030008187C06C059003F0BBFD01B26D48C1878C
:10104000006D059003F0B4FD01B26A48A0F84010AD
:101050006748D0F8E40004906548D0F8E0000390B9
:10106000049903F041FC05906148D0F8E80001467E
:101070000490059803F038FC01465D48C0F8EC1078
:10108000C06E04905A48806E0390049903F02CFCC3
:1010900005905748006F01460490059803F024FC22
:1010A000534948670846D0F85C0104900846D0F8D8
:1010B00058010390049903F017FC05904C48D0F8B0
:1010C000600101460490059803F00EFC0146484873
:1010D000C0F864114848006803F086FD0290444857
:1010E000406F01460190029803F0FEFB03904048D8
:1010F000D0F8EC0001460290039803F0F5FB049051
:101100003B48D0F8640101460390049803F0C0FE08
:10111000059003F04DFD394908603748006803F039
:1011200063FD02903248406F01460190029803F03F
:10113000DBFB03902E48D0F8EC00014602900398A8
:1011400003F0A6FE04902A48D0F8640101460390FB
:10115000049803F0C9FB059003F02AFD2749486075
:101160002548006803F040FD02902148406F014689
:101170000190029803F08CFE03901D48D0F8EC001B
:1011800001460290039803F083FE04901848D0F8BB
:10119000640101460390049803F07AFE059003F081
:1011A00007FD164988601448006803F01DFD029091
:1011B0000F48406F01460190029803F069FE0390CA
:1011C0000B48D0F8EC0001460290039803F08CFB2A
:1011D00004900748D0F8640101460390049803F096
:1011E00083FB059003F0E4FC0449C86009B000BD2E
:1011F000CC02002030020020200100203404002016
:10120000704710B504460021204603F005FD02D2C8
:1012100084F0004010BD2046FCE72DE9F041024675
:1012200000250026002000230024002791F803C099
:101230000CF00F0591F803C00CF0100CBCF1000F7E
:1012400003D091F802C04CEA050591F800C0BCF14A
:10125000000F31D0146800202BE04FF0010C0CFA85
:1012600000F3B1F800C00CEA03069E4220D18300CF
:101270004FF00F0C0CFA03F7BC4305FA03FC4CEAE1
:10128000040491F803C0BCF1280F06D14FF0010C03
:101290000CFA00FCC2F814C00AE091F803C0BCF1DB
:1012A000480F05D14FF0010C0CFA00FCC2F810C039
:1012B000401C0828D1D31460B1F800C0BCF1FF0F66
:1012C00034DD546800202EE000F1080C4FF00108D6
:1012D00008FA0CF3B1F800C00CEA03069E4221D1D3
:1012E00083004FF00F0C0CFA03F7BC4305FA03FC24
:1012F0004CEA040491F803C0BCF1280F05D100F1B9
:10130000080C08FA0CF8C2F8148091F803C0BCF17C
:10131000480F07D100F1080C4FF0010808FA0CF84B
:10132000C2F81080401C0828CED35460BDE8F0817C
:10133000416170470161704700B585B0684601F0B2
:101340008FF804490098B0FBF1F00349086005B03C
:1013500000BD000040420F00140000202DE9FC47B2
:1013600000F03EFC6049B1F9000002F0A0FF064623
:101370000F4600215D480A464302CDE90010304681
:10138000394600F065FA044602F062FF00B25649A1
:10139000C880B1F9020002F08AFF06460F4600211C
:1013A00052480A464302CDE900103046394600F063
:1013B000ABFA044602F04CFF01B24B4801810146F2
:1013C000B1F9040002F073FF06460F4600214748BA
:1013D0000A464302CDE900103046394600F0F0FAE3
:1013E000044602F035FF01B23F4841810146B1F9A0
:1013F000060003F0F9FB81464FF08D4103F0E2FA5D
:10140000044603F045FA07460022394B02F066FF16
:10141000054602F0E3FC34498861B1F9080003F0A5
:10142000E3FB81464FF08D4103F0CCFA044603F014
:101430002FFA074600222E4B02F050FF054602F01D
:10144000CDFC2949C861B1F90A0003F0CDFB814602
:101450004FF08D4103F0B6FA044603F019FA07463F
:101460000022234B02F03AFF054602F0B7FC1E496A
:101470000862B1F90A0003F0B7FB05461A49B1F951
:10148000080003F0B1FB04461749B1F9060003F068
:10149000ABFB0646144BCDE90045DA6D996D586DEE
:1014A0003346FEF73BFF104A116A124A106A03F0F6
:1014B000E7FB05460C4AD1690E4A506903F0E0FB90
:1014C0000646094A91690B4A906803F0D9FB074622
:1014D000314603F009FA0446294603F005FA0649A5
:1014E0000860BDE8FC8700003002002000002040BA
:1014F00000002440A8020020480000202DE9FE4FF3
:1015000000276424642564264FF000084FF000098A
:101510000020029000214B48A0F84210A0F844108F
:10152000A0F8461055E000240025002664274BE073
:1015300000F056FB4349B1F93010A1EB080003F06D
:1015400053FB0090FFF75DFE8346204603F04CFB03
:101550005946019003F0C8F9824603F029FB04467E
:101560003849B1F93210A1EB090003F03DFB0090BE
:10157000FFF747FE8346284603F036FB59460190A5
:1015800003F0B2F9824603F013FB05462D49B1F989
:1015900034200299501A03F027FB0090FFF731FE28
:1015A0008346304603F020FB5946019003F09CF936
:1015B000824603F0FDFA06462248B0F93080B0F9C1
:1015C0003290B0F934000290381EA7F101018FB2B9
:1015D000AED1642CA7DA642DA5DA642EA3DA002438
:1015E000002500264FF4FA670DE000F0F9FA1548DF
:1015F000B0F9300004441348B0F9320005441148F2
:10160000B0F934000644381EA7F101018FB2ECD1C5
:101610004FF4FA6094FBF0F001B20A48A0F84210CF
:101620004FF4FA6095FBF0F001B20648A0F84410C0
:101630004FF4FA6096FBF0F001B20248A0F84610B1
:10164000BDE8FE8F3002002000BFFEE700B500209D
:101650000A49086002F089F900200949C1F89C0193
:1016600002F083F901200549086002F07EF90020AC
:101670000349C1F8980102F078F900BD9881214230
:101680000080214208B50121082000F0D9FEC020C9
:10169000ADF8000014208DF8030003208DF802003F
:1016A00069460448FFF7B9FDC0210248FFF742FE32
:1016B00008BD0000000C014000B500200A49086088
:1016C00002F053F901200949C1F89C0102F04DF9DB
:1016D00001200549086002F048F900200349C1F8DB
:1016E000980102F042F900BD988121420080214218
:1016F00070B504460D4602F0B5F9204602F0EAF94D
:1017000002F058F9284602F0E5F902F053F902F028
:10171000A9F9611CC8B202F0DDF902F04BF902F040
:101720006DF9064602F0BAF90A2002F0D5F8304603
:1017300070BD2DE9F04106460F461546984602F069
:1017400091F9304602F0C6F902F034F920B102F006
:10175000A5F90120BDE8F081384602F0BBF902F09E
:1017600029F902F07FF9711CC8B202F0B3F902F056
:1017700021F900240DE002F041F908F80400601C92
:10178000A84202DAFFF762FF01E0FFF795FF601C55
:10179000C4B2AC42EFDB02F081F9FA2002F09CF80F
:1017A0000020D7E770B506460C46154602F05AF9F8
:1017B000304602F08FF902F0FDF818B102F06EF930
:1017C000012070BD204602F085F902F0F3F82846AA
:1017D00002F080F902F0EEF818B102F05FF9012092
:1017E000EFE702F05BF9FA2002F076F80020E8E774
:1017F00010B54FF4A06000F0D7FD02F073F800F0D0
:101800003BF94FF4165002F095FA00F09FFB00BF31
:1018100000F074FB0028FBD100F0DAFC472140F215
:10182000E73000F0CBFD00F0B9FAFFF767FEFEF7F6
:1018300031FD02F0BBF9472142F20F7000F0E4FFE6
:10184000472141F2873001F047F800F043F910BD1D
:101850002DE9FF5F8EB014461D46DDE91CABCDE9D6
:101860000CABCDE90A4500BF244803C8CDE9080107
:101870002349DDE90A2303C902F0E2FA80468946DA
:1018800040464946DDE90C2302F0DAFA02460B46EF
:10189000CDE902014046494602F082FBCDE9040150
:1018A000DDE90823DDE90E0102F008FFCDE90001C2
:1018B000DDE9042302F012FDCDE90201DDE9082390
:1018C00002F0BEFA06460F4600200E49DDE9042369
:1018D00002F0F4FE42464B46CDE9020102F0FEFC66
:1018E000CDE90601064ADDE9060103C20348C0C08E
:1018F0003046394612B0BDE8F09F0000500000208D
:10190000580000200000F03F2DE9FF5F8EB0144624
:101910001D46DDE91CABCDE90CABCDE90A4500BFA6
:10192000244803C8CDE908012349DDE90A2303C996
:1019300002F086FA8046894640464946DDE90C2396
:1019400002F07EFA02460B46CDE9020140464946C6
:1019500002F026FBCDE90401DDE90823DDE90E01F3
:1019600002F0ACFECDE90001DDE9042302F0B6FC93
:10197000CDE90201DDE9082302F062FA06460F46CE
:1019800000200E49DDE9042302F098FE42464B4652
:10199000CDE9020102F0A2FCCDE90601064ADDE92B
:1019A000060103C20348C0C03046394612B0BDE844
:1019B000F09F000060000020680000200000F03F61
:1019C0002DE9FF5F8EB014461D46DDE91CABCDE965
:1019D0000CABCDE90A4500BF244803C8CDE9080196
:1019E0002349DDE90A2303C902F02AFA8046894621
:1019F00040464946DDE90C2302F022FA02460B4636
:101A0000CDE902014046494602F0CAFACDE9040197
:101A1000DDE90823DDE90E0102F050FECDE9000109
:101A2000DDE9042302F05AFCCDE90201DDE90823D7
:101A300002F006FA06460F4600200E49DDE90423AF
:101A400002F03CFE42464B46CDE9020102F046FC64
:101A5000CDE90601064ADDE9060103C20348C0C01C
:101A60003046394612B0BDE8F09F000070000020FB
:101A7000780000200000F03F08B50121082000F0A8
:101A8000DFFC4FF47040ADF8000010208DF803002B
:101A900003208DF8020069460448FFF7BEFB4FF4AF
:101AA00070410248FFF746FC08BD0000000C0140F1
:101AB0000120064908600649C1F8B401034908310C
:101AC00008600349C1F8BC0170470000B0812142A1
:101AD000008021420020064908600649C1F8B4018F
:101AE0000349083108600349C1F8BC017047000090
:101AF000B0812142008021421348006808B90120CA
:101B000000E00020104908601048D0F8B40108B97E
:101B1000012000E000200C49091D08600B48D0F8A6
:101B2000B80108B9012000E0002007490831086029
:101B30000648D0F8BC0108B9012000E000200249A5
:101B40000C31086070470000B081214200802142C2
:101B500010B50446B4F5617F02DD4FF4617402E014
:101B6000002C00DA0024A1B2014801F074F910BD84
:101B7000002C014010B50446B4F5617F02DD4FF43E
:101B8000617402E0002C00DA0024A1B2014801F0E7
:101B900064F910BD002C014010B50446B4F5617F16
:101BA00002DD4FF4617402E0002C00DA0024A1B2DF
:101BB000014801F054F910BD002C014010B5044655
:101BC000B4F5617F02DD4FF4617402E0002C00DAAD
:101BD0000024A1B2014801F044F910BD002C0140DD
:101BE000F0B587B004AA05A906A800F087F801AAF5
:101BF00002A903A800F0AAF83C48408ABDF81810D2
:101C0000081A00B2394908800846808ABDF81410C5
:101C1000081A00B2354948800846C08ABDF810103D
:101C2000081A00B231498880BDF90C000886BDF958
:101C300008102E484186BDF9041081860146B1F98D
:101C40003020B1F94210501A02F0CEFF0446284964
:101C500002F0B8FE25498864B1F93220B1F9441088
:101C6000501A02F0C1FF0446214902F0ABFE0146C2
:101C70001E48C1640146B1F93420B1F94610501A2A
:101C800002F0B2FF04461A4902F09CFE01461748D2
:101C900001650146886C02F0FBFD0646154A164BAD
:101CA00002F01CFB044602F099F810494865C86C24
:101CB00002F0EEFD06460F4A0F4B02F00FFB044602
:101CC00002F08CF80146094881650146086D02F072
:101CD000DFFD0646074A084B02F000FB044602F00F
:101CE0007DF801460148C16507B0F0BD3002002013
:101CF000333303425F40D42247DF913F2DE9FC415B
:101D000004460D4616466B4606223B21D020FFF7BF
:101D100010FD0746BFB99DF801009DF8001040EA8C
:101D2000012000B220809DF803009DF8021040EAD7
:101D3000012000B228809DF805009DF8041040EABB
:101D4000012000B230803846BDE8FC812DE9FC411D
:101D500004460D4616466B4606224321D020FFF767
:101D6000E8FC0746BFB99DF801009DF8001040EA65
:101D7000012000B220809DF803009DF8021040EA87
:101D8000012000B228809DF805009DF8041040EA6B
:101D9000012000B230803846BDE8FC8110B5012139
:101DA000084600F04DFBFFF76DFC642001F0CCFD10
:101DB00000226B21D020FFF7F5FC022000F041F853
:101DC000002000F035F8322000F062F800223821BF
:101DD000D020FFF7E7FC40226A21D020FFF7E2FC89
:101DE00000222321D020FFF7DDFC42223721D02022
:101DF000FFF7D8FC7521D020FFF77AFC0446682C49
:101E000012D101226B21D020FFF7CCFC00226C21E3
:101E1000D020FFF7C7FC322000F03AF80121034838
:101E2000FFF786FA002010BD0120FCE70008014002
:101E300010B50446E006020E1C21D020FFF7B2FCCC
:101E400010BD10B50446E006020E1B21D020FFF79E
:101E5000A9FC10BD70B504460025BC2C01DB012592
:101E600010E0622C01DB02250CE02A2C01DB0325AB
:101E700008E0142C01DB042504E00A2C01DB052515
:101E800000E006252A461A21D020FFF78BFC70BD02
:101E900070B50446B4F57A7F01DD4FF47A74042CF2
:101EA00000DA04244FF47A7090FBF4F0401EC5B2BF
:101EB0002A461921D020FFF775FC0546264604EB7B
:101EC000D671C1F34F00FFF7C5FF70BD00BFFEE73D
:101ED0002DE9F04107460C4615461E463846FFF7E9
:101EE00037FE2046FFF746FE2846FFF755FE3046F0
:101EF000FFF764FEBDE8F081704700001CB511A13A
:101F000003C9CDE90001082000F084FB05226946E1
:101F1000302000F0DBF905226946102000F084F93A
:101F2000002406E01DF80400A52800D003E0601C92
:101F3000C4B2052CF6DB00BF052C01D001201CBD6E
:101F40000020FCE7A5A5A5A5A500000000B587B069
:101F500001210C2000F074FA0220ADF818001020C6
:101F60008DF81B0003208DF81A0006A92B48FFF7F7
:101F700054F90820ADF8180010208DF81B0003203C
:101F80008DF81A0006A92648FFF747F90120ADF899
:101F9000180028208DF81B0003208DF81A0006A9D0
:101FA0001E48FFF73AF908211D48FFF7C1F9032140
:101FB0001A48FFF7BDF900F0BDFA0021194800F0FA
:101FC0003DFB0020ADF804004FF48270ADF8060030
:101FD0000020ADF80800ADF80A00ADF80C004FF491
:101FE0000070ADF80E001820ADF810000020ADF81C
:101FF00012000720ADF8140001A90A4800F038FBD0
:102000000121084800F01AFB002007490860012060
:102010000649C1F8840107B000BD0000000C014072
:1020200000080140003001408C0121420080214223
:1020300010B504462078412818D16078302815D191
:102040005E48616801605E48A1680160E16881677F
:102050002169C0F8F0105B48006802F0C5FD5A49DC
:102060000860FFF737FD01205849087020784128A3
:1020700004D16078312801D1FFF71AFD207841287A
:1020800004D16078322801D1FFF736FD207841284D
:1020900004D16078332801D1FFF72EFD2078442841
:1020A0000AD16078302807D1FFF702FD01F0F8FB74
:1020B0000020464908707FE0207844281FD16078CE
:1020C00031281CD1A07E452819D1FFF703FD3C48DB
:1020D00054F8021FC16561680166A1684166E16844
:1020E000C0F8D4102169C0F8D8106169A41EC0F8E6
:1020F000DC1001F0D5FB0120344908705CE0207849
:1021000044281FD1607832281CD1A07E452819D1DF
:10211000FFF7E0FC2A4854F8021F0162616841623F
:10212000A1688162E168C0F898102169C0F89C102C
:102130006169A41EC0F8A01001F0B2FB0120234980
:10214000087039E02078442814D16078332811D100
:10215000FFF7C0FC194854F8021F01601A48616873
:102160000162A168A41E816201F09AFB0120174957
:10217000087021E0207844281ED1607834281BD1D3
:10218000FFF7A8FC0E4854F8021FC0F84C11616814
:10219000C0F85011A168C0F85411E168C0F81011DE
:1021A0002169C0F814116169A41EC0F8181101F06A
:1021B00077FB01200549087010BD000024010020B4
:1021C000CC02002010010020440400201C0100204B
:1021D00010B5002011490860052211492A2000F09D
:1021E00075F80121212000F08FF80121222000F054
:1021F0008BF82821252000F087F82021312000F0DD
:1022000083F80F21262000F07FF80F21202000F016
:102210007BF801200349C1F88C0110BD8C012142DB
:102220006F500008000021422DE9F04107460D469D
:10223000164600200A490860384600F0C1F9804679
:10224000002405E0FF2000F0BBF92855601CC4B253
:10225000B442F7DB0120024908604046BDE8F08146
:102260008481214270B50446002007490860204659
:1022700000F0A6F9FF2000F0A3F90546012003496C
:10228000C1F88401284670BD84812142008021422A
:1022900070B50446102000F0BDF90720FFF7E2FFFB
:1022A00005462946272000F02FF805F0400050B1E0
:1022B000202221466120FFF7B7FFFF21E22000F036
:1022C00023F8002070BD0120FCE700002DE9F0415B
:1022D00007460C46154600200A490860384600F0BB
:1022E0006FF98046002605E014F8010B00F068F94C
:1022F000701CC6B2AE42F7DB0120024908604046BE
:10230000BDE8F0818481214270B505460C4600206D
:1023100007490860284600F053F90646204600F0B9
:102320004FF901200349C1F88401304670BD000017
:10233000848121420080214270B5002100230F22B8
:10234000C47804B3154C246804F4E064C4F5E06474
:10235000210AC1F10403CA40447804FA03F18478E5
:102360001440214309010E4C0678A155047804F06D
:102370001F050124AC4005786D11AD0005F1E02585
:10238000C5F8004109E0047804F01F050124AC40C1
:10239000044D0678761145F8264070BD0CED00E03E
:1023A00000E400E080E100E002490143024A1160DC
:1023B000704700000000FA050CED00E070B504461F
:1023C0000D462946204600F02BFB70BD70470000EB
:1023D0002DE9F05F04464FF07F594FF07C512046C5
:1023E00002F04EFC824625462E460C48A0EB6606BF
:1023F00035462946504602F043FC8346294602F002
:102400003FFC8046494602F038FD0746294602F067
:1024100037FC05462846BDE8F09F0000865A375F26
:1024200029B1064AD2690243044BDA6104E0034A47
:10243000D2698243014BDA6170470000001002400C
:1024400029B1064A92690243044B9A6104E0034AA7
:1024500092698243014B9A6170470000001002406C
:1024600030B500210022002400232D4D6D6805F0B9
:102470000C0121B1042905D0082923D105E0294DFB
:10248000056022E0274D05601FE0254D6D6805F4CD
:102490007012234D6D6805F48034022505EB9242DD
:1024A0001CB9214D554305600BE01D4D6D6805F4C9
:1024B00000351DB11C4D5543056002E0194D5543D3
:1024C000056002E0174D056000BF00BF144D6D6848
:1024D00005F0F0010909154D6B5C0568DD404560AC
:1024E0000F4D6D6805F4E061090A104D6B5C45689D
:1024F000DD4085600A4D6D6805F46051C90A0B4DD9
:102500006B5C4568DD40C560054D6D6805F4404174
:10251000890B074D6B5CC568B5FBF3F5056130BDF4
:102520000010024000127A0000093D001C0000204B
:102530002C00002000B587B0012141F20400FFF714
:102540007FFFE020ADF8180018208DF81B00032055
:102550008DF81A0006A91848FEF75FFEE02116481C
:10256000FEF7E8FE0020ADF804004FF48270ADF8ED
:1025700006000020ADF808000220ADF80A00012096
:10258000ADF80C004002ADF80E003820ADF8100098
:102590000020ADF812000720ADF8140001A907488B
:1025A00000F066F80121054800F048F8FF2000F02F
:1025B00007F807B000BD00000008014000300140EE
:1025C00070B50546002405E0601CC4B2C82C01DDCE
:1025D000002070BD02210E4800F03CF80028F3D026
:1025E00029460B4800F042F8002405E0601CC4B204
:1025F000C82C01DD0020ECE70121054800F02AF895
:102600000028F3D0024800F02EF8C0B2E1E7000045
:102610000030014010B50446074800884FF6C771E6
:1026200008400549088008460088204308800121A9
:10263000014800F003F810BD0030014021B10288CC
:1026400042F04002028004E002884FF6BF731A4055
:10265000028070470246002013890B400BB1012015
:1026600000E00020704701468889704781817047EB
:1026700010B50022028802F441520B884C88234393
:102680008C882343CC8823430C8923434C892343E0
:102690008C892343CC8923431A430280838B4FF2D6
:1026A000FF74234083830B8A038210BD704710B5EB
:1026B00000F002F810BD00000CB500200190009061
:1026C0003348006840F480303149086000BF30482A
:1026D000006800F4003000900198401C01900098C0
:1026E00018B90198B0F5A06FF1D12948006800F43D
:1026F000003010B10120009001E00020009000980F
:10270000012843D12348006840F0100021490860A7
:102710000846006820F0030008600846006840F0A2
:10272000020008601A484068194948600846406835
:1027300048600846406840F4806048600846406849
:1027400020F47C1048600846406840F4E810486077
:102750000846006840F08070086000BF0C480068C0
:1027600000F000700028F9D00948406820F003000C
:10277000074948600846406840F00200486000BFD2
:102780000348406800F00C000828F9D10CBD000097
:10279000001002400020024002480068401C01492D
:1027A000086070471800002010B51348006840F01A
:1027B00001001149086008464068104908400E4968
:1027C0004860084600680E4908400B490860084602
:1027D000006820F4802008600846406820F4FE006D
:1027E00048604FF41F008860FFF761FF4FF0006002
:1027F0000449086010BD0000001002400000FFF80E
:10280000FFFFF6FE08ED00E07FB505460C4601210E
:102810000846FFF705FEADF80850ADF8044000206B
:10282000ADF80600ADF80A008DF80C0001A94FF0D4
:10283000804000F019FB0121880700F085F9012292
:102840001146900700F0A3F91C208DF8000002202B
:102850008DF8010000208DF8020001208DF80300A2
:102860006846FFF769FD0121880700F073F97FBD15
:1028700010B50121880700F079F9012820D1FEF771
:102880006DFD1048006810490860104B9A6859683F
:102890001868FEF701F90E48007838B10D4CE3686E
:1028A000A26861682068FFF713FB05E000231A4661
:1028B00019461846FFF70CFB0121880700F047F97D
:1028C00010BD000024010020200100209C020020F7
:1028D0001C010020340400207FB505460C46012170
:1028E0000220FFF79DFDADF80850ADF80440002030
:1028F000ADF80600ADF80A008DF80C0001A90F48EC
:1029000000F0B2FA01210D4800F01EF90122114633
:102910000A4800F03CF91D208DF8000000208DF8D9
:1029200001008DF8020001208DF803006846FFF7D2
:1029300003FD0121014800F00DF97FBD00040040B6
:1029400010B501212D4800F011F9012855D12C486E
:102950000088401C2A4908802A480088401C2949D0
:10296000088029480088401C27490880274800889B
:10297000401C264908802248008800EBC00101EB7A
:102980000010C821B1EBC00F05DC00201C490880F5
:1029900001201F4908701B48008800EBC00101EBB3
:1029A0000010C821B1EB800F05DC0020154908801C
:1029B0000120184908701448008800EBC00101EBA1
:1029C0000010C821B1EB400F05DC00200E49088043
:1029D0000120114908700D48008800EB8000C821D3
:1029E000B1EB400F05DC00200849088001200B49AD
:1029F00008700121014800F0AAF810BD0004004051
:102A00003E00002040000020420000204400002042
:102A10003A0000203B0000203C0000203D00002048
:102A200030B58DB005460C46012140F60400FFF795
:102A300007FD4FF47060ADF8240018208DF82700D2
:102A400003208DF8260009A92F48FEF7E6FBADF814
:102A50002C50ADF828400020ADF82E00ADF82A002B
:102A60000AA92A4800F000FA6020ADF814000120FD
:102A7000ADF816000020ADF81C00ADF82000ADF850
:102A8000220005A9214800F08BF805A91F4800F095
:102A9000DDF805A91D4800F039F905A91B4800F02B
:102AA0008FF90020ADF80400ADF80600ADF808007D
:102AB0009020ADF80A000020ADF80C004FF4005053
:102AC000ADF80E004000ADF8100001A90F4800F06D
:102AD0002BF808210D4800F0AFF808210B4800F052
:102AE00007F90821094800F061F90821074800F0BA
:102AF000A5F90121054800F00BF80121034800F079
:102B000029F80DB030BD000000080140002C014044
:102B100021B1028842F08002028004E002884FF670
:102B20007F731A40028070470A884B881A438B884B
:102B30001A43CB881A430B891A434B891A438B8952
:102B40001A43A0F844207047CA4302827047CA4320
:102B50000282704721B1028842F00102028004E043
:102B600002884FF6FE731A400280704730B5024665
:102B7000002000230024158A05EA0103958905EA4F
:102B8000010413B10CB1012000E0002030BD1AB1E6
:102B900083890B43838102E083898B438381704760
:102BA00070B5002400220023058C4FF6FE763540D8
:102BB0000584028C8388048B4FF68F752C40B51EDC
:102BC0002C400D882C43751E2A400D892A434D88C0
:102BD0002A43144DA8420BD0134DA84208D0134DE0
:102BE000A84205D0124DA84202D0124DA84213D1DE
:102BF0004FF6F7752A404D892A434FF6FB752A4058
:102C00008D882A434FF6FF652B404FF6FF552B402A
:102C10008D892B43CD892B4383800483CD88858682
:102C2000028470BD002C014000340140004001408E
:102C300000440140004801400A460021018B4FF644
:102C4000F7731940114301837047000070B50024E9
:102C500000220023058C4FF6EF7635400584028C68
:102C60008388048B48F6FF752C404FF6FF452C40B7
:102C70000D884FF6FF7606EA05252C434FF6DF75E3
:102C80002A400D8906EA05152A434D8806EA0515EE
:102C90002A43154DA84202D0144DA8421DD14FF62B
:102CA0007F752A404D894FF6FF7606EA05152A43BF
:102CB0004FF6BF752A408D8806EA05152A434FF660
:102CC000FF352B404FF2FF752B408D8906EA8505B5
:102CD0002B43CD8906EA85052B4383800483CD8869
:102CE0000587028470BD0000002C014000340140C3
:102CF0000A460021018B4FF2FF7319404FF6FF7314
:102D000003EA0223194301837047000070B50024D1
:102D100000220023058C4FF6FF6635400584028CA7
:102D20008388848B4FF68F752C404FF6FC752C40B2
:102D30000D882C434FF6FF552A400D894FF6FF763C
:102D400006EA05252A434D8806EA05252A43154D3E
:102D5000A84202D0144DA8421DD14FF2FF752A405F
:102D60004D894FF6FF7606EA05252A434FF6FF35D3
:102D70002A408D8806EA05252A434EF6FF752B402A
:102D80004DF6FF752B408D8906EA05152B43CD893D
:102D900006EA05152B4383808483CD8885870284CA
:102DA00070BD0000002C0140003401400A460021A3
:102DB000818B4FF6F77319401143818370470000F0
:102DC00070B5002200230024058C4EF6FF763540B6
:102DD0000584038C8488828B48F6FF752A404FF661
:102DE000FF452A400D884FF6FF7606EA05252A435F
:102DF0004DF6FF752B400D8906EA05352B434D88AE
:102E000006EA05352B430B4DA84202D00A4DA842D5
:102E100008D14BF6FF752C408D894FF6FF7606EAF8
:102E200085152C4384808283CD88A0F8405003848C
:102E300070BD0000002C0140003401400A46002112
:102E4000818B4FF2FF7319404FF6FF7303EA0223A1
:102E50001943818370478186704701877047818756
:102E60007047A0F840107047002202881D4B98421E
:102E70000ED01D4B98420BD0B0F1804F08D01B4BA9
:102E8000984205D01A4B984202D01A4B984204D16E
:102E90004FF68F731A404B881A43174B984207D04E
:102EA000164B984204D04FF6FF431A40CB881A4382
:102EB00002808B8883850B8803850A4B98420BD050
:102EC000094B984208D00E4B984205D00D4B9842C2
:102ED00002D00D4B984201D10B7A038601238382E5
:102EE00070470000002C0140003401400004004005
:102EF00000080040000C004000100040001400409A
:102F000000400140004401400048014010B540F23B
:102F10002551164800F042F830B3144800F0FAF892
:102F2000C4B213480078F8B112480088C0F30D000D
:102F300011490C540F480088401C0E49088008466F
:102F40000088012810DD00200880094908700A481F
:102F500040780949097840EA012008490860084892
:102F6000007808B900F096FE10BD0000004800404F
:102F700030000020380000206501002010010020F2
:102F80001801002021B1828942F40052828104E0BC
:102F900082894DF6FF731A408281704770B50246F0
:102FA000002400230025002040F66A16B14200D11B
:102FB00000BFC1F3421501F01F03012606FA03F317
:102FC000012D02D19689334006E0022D02D1168AE6
:102FD000334001E0968A33400C12012606FA04F4CD
:102FE0001688344013B10CB1012000E0002070BD00
:102FF000F0B50346002400260025002040F66A179D
:10300000B94200D100BF1846C1F3421401F01F06B7
:10301000012707FA06F5012C01D10C3004E0022C3F
:1030200001D1103000E014301AB107682F43076057
:1030300002E00768AF430760F0BD00002DE9F047EC
:1030400086B005460E460024A24600BFA1460027D2
:10305000B08900B100BF2F462C8A4CF6FF700440A7
:10306000F08804432C82AC894EF6F3100440B088FB
:1030700031890843718908430443AC81AC8A4FF617
:10308000FF400440B0890443AC8201A8FFF7E8F98F
:103090001F48874202D1DDF810A001E0DDF80CA046
:1030A000A88900F4004040B10AEBCA0000EB0A1006
:1030B00031684900B0FBF1F807E00AEBCA0000EB09
:1030C0000A1031688900B0FBF1F86420B8FBF0F019
:1030D00004012009642101FB1089A88900F4004043
:1030E00040B1322000EBC900B0FBF1F000F0070066
:1030F000044308E0322000EB09106421B0FBF1F03A
:1031000000F00F0004432C8106B0BDE8F0870000FA
:103110000038014001468888C0F30800704700BFAE
:10312000FEE700002DE9F05F82464FF0000B002122
:10313000504601F071FD01D28AF0004A1049504614
:1031400001F06AFE01D2DFF838A0504601F0A0FB82
:1031500080460C4A0C4B01F0C1F8064600220B4B8E
:1031600001F0BAF9044600F039FE834600215846C2
:1031700001F052FD01D24FF0000B5846BDE8F09F20
:103180009A99193F79E9263108ACFA3F0000F03FDF
:10319000490050EAC12018BF04204A0D18BF40F072
:1031A000010040F2FF72B2EB515F08BF40F0020035
:1031B000012808BF052070472DE9F0414F1E00EBA4
:1031C000C7010446D1E9000115461E4637F0060244
:1031D0000DD02A46334601F081F87F1E04EBC70369
:1031E000D3E9002300F02CFE37F00602F1D1022FC4
:1031F00025D0042F13D0062F18BFBDE8F0812A4632
:10320000334601F06BF8D4E90A2300F019FE2A4690
:10321000334601F063F8D4E9082300F011FE2A4692
:10322000334601F05BF8D4E9062300F009FE2A4694
:10323000334601F053F8D4E9042300F001FE2A4696
:10324000334601F04BF8D4E9022300F0F9FD2A4699
:10325000334601F043F8D4E90023BDE8F04100F023
:10326000EFBD012201F0BBBE00F0EABD0022134613
:103270001046114600F094BE024A0020110701F0EA
:10328000AEBE000001FDFFFF014600BF7047000019
:103290002DE9F04D8D4F21F0004A86B005460C46D1
:1032A000BA452ADBAAEB070028430AD088488245A2
:1032B00001DC1AD1CDB106B02846BDE8F04DFFF7CC
:1032C000D0BF844A844B284601F008F807460E46D2
:1032D000824A834B2846214601F000F806B03A4660
:1032E0003346BDE8F04D00F0ABBD0120FCF796FF82
:1032F00006B0BDE8F04DFFF7B9BF7A48824542DA23
:10330000BAF1795F0BDA2846FFF742FF042808BFBD
:10331000FFF7B2FF284606B02146BDE8F08D2A46E9
:103320000B46104600F0DAFF834602466E480E4612
:103330000B4606217844FFF73FFF5A46334600F01C
:10334000CDFF804669488A465A4633460421784470
:10335000FFF732FF5A46334600F0C0FF00223B46DB
:1033600000F06EFD02460B464046514600F018FE46
:103370002A46234600F0B2FF06B02A462346BDE89F
:10338000F04D00F05DBD284624F0004100223D468E
:103390003B4601F0A1F84FF0FF3201F020FE064657
:1033A000024653480F460B4606217844FFF704FFB8
:1033B00032463B4600F092FFCDE900014D483246CF
:1033C0003B4604217844FFF7F7FE32463B4600F0C7
:1033D00085FF00222B4600F033FD834602913046E4
:1033E000394600F081FC804643480D46504517DCC5
:1033F000DDE900015A46029B00F0D2FD42462B4611
:1034000000F06CFF42462B4600F01AFD012201F04D
:10341000E6FD304A304B01F051F9304A304B4CE078
:103420004FF0000A52460B46404600F009FDCDE938
:10343000031052462B461046194600F04FFF324605
:103440003B4601F049F8DDE9033200F0A9FD0646EC
:103450000F46DDE900015A46029B00F0A1FD8346BC
:10346000009101223046394601F0B9FD194A1A4B44
:1034700001F032F806460F4601224046294601F087
:10348000AEFD5A46009B00F029FF32463B4601F054
:1034900015F906460F4601225046294601F09FFDC8
:1034A0000E4DDFF858802A46434601F015F83246A3
:1034B0003B4601F011F82A46434601F00DF8002C76
:1034C000D8BF81F0004106B0BDE8F08D0000F03FAC
:1034D0000000F07F075C143326A6913C182D44545D
:1034E000FB21F93F0000E03F401D0000561D000099
:1034F000CA1C0000E01C00003333EF3FFB21E93F12
:103500002DE9F84F04460D4621F000400091734923
:10351000814211DC7249884201DC06D12CB120467F
:103520002946BDE8F84FFFF79CBE6E48002DCCBF82
:103530006D496E49BDE8F88F6D49814211DD6D49D5
:103540008142D8BF4FF0FF366DDD20462946FFF798
:103550001FFE042808BFFFF78FFE20462946BDE85E
:10356000F88F6549654F25F00045814233DD644998
:10357000814219DD002632464FF08043204629461D
:1035800000F05EFC80468A4601222046294601F072
:1035900026FD00223B4601F091F84246534600F0DA
:1035A000FFFC04460D463EE001260022BA463B469B
:1035B0002046294600F044FC80460F460022534630
:1035C0002046294601F07AF842463B4600F0E8FCE6
:1035D00004460D4627E04B4981421BDDDFF828A158
:1035E0000226002253462046294600F077FE00229C
:1035F0003B4600F025FC80460F46002253462046FD
:10360000294601F05BF842463B4600F0C9FC0446FF
:103610000D4608E0032622462B4600203B4900F0D9
:10362000BFFC04460D4622462B461046194600F0C4
:1036300055FE8B46824602460B4600F04FFE07467B
:103640000246334888460B4606217844FFF7B4FD0E
:1036500052465B4600F042FE82462E488B463A4672
:10366000434605217844FFF7A7FD3A46434600F05C
:1036700035FE02460B46002E504659460CDA00F045
:10368000DFFB22462B4600F029FE01B022462B46E6
:10369000BDE8F04F00F020BF00F0D2FB22462B46E1
:1036A00000F01CFE1C4A7A4402EBC603D3E9002357
:1036B00001F004F822462B4601F000F8174A7A443C
:1036C00002EBC603D3E9002300F006FF009A002AAC
:1036D000B8BF81F00041BDE8F88F00000000104441
:1036E0000000F07F182D4454FB21F93FFB21F9BF66
:1036F0000000DC3F0000203E0000F33F0000F03FF0
:103700000000E63F008003400000F83F0000F0BFEB
:10371000E21A0000A01A00003E1A0000061A00007B
:103720002DE9F04D9446CCF1000423F000464CEA1C
:103730000404524F46EAD4749A46884621F0004267
:10374000BC4206D8454240EA050442EAD474BC4271
:1037500004D9BDE8F04D6246FFF786BDAAF1405599
:10376000A5F17F6555EA0C040BD0022404EAAA7483
:10377000434DDFF810E144EAD87452EA000B04D05C
:103780000CE0BDE8F04DFFF7BBBE002C14BF012CD0
:10379000BDE8F08D022C30D0032C32D056EA0C0B51
:1037A0000AD0BE4220D1BA4209D126F0804622F08A
:1037B00080423346114617E000291ADB25E0DFF886
:1037C000C8B0FB44002C04BFDBE90001BDE8F08D6C
:1037D000012C02BFDBE9000181F00041BDE8F08D62
:1037E000022C0AD0032C0CD0BA4212D1B8F1000F2F
:1037F0000BDA23482549BDE8F08D28462449BDE869
:10380000F08D28467146BDE8F08D1D482149BDE880
:10381000F08D921B12153C2AC4BF19481D490EDCBD
:10382000BAF1000FBEBF12F13C0F0020014606DBCB
:10383000624600F0B5FB21F00041FFF761FE002C6D
:1038400008BFBDE8F08D012C04BF81F00041BDE848
:10385000F08D114A114B022C07D000F02FFF2A46A1
:10386000BDE8F04D0A4B00F029BF00F027FF2A46C3
:10387000BDE8F04D064B00F02FBE00000000F07FC9
:10388000182D4454FB2109C09A190000FB21F9BFEF
:10389000FB210940FB21F93F075C143326A6A13C1C
:1038A00000200A49886100210848C0F89010C0F83B
:1038B00008114165C0F8CC10C0F84411002004493B
:1038C000886108600349087070470000CC0200203E
:1038D000440400201D010020002100E0491C814219
:1038E000FCD3704770B5FDF727FD144800684FF40E
:1038F0007A72B0FBF2F1B1F1807F00D31DE021F0CC
:103900007F40401E4FF0E022506150170F220028E8
:1039100007DA13071D0E0A4B00F00F04241F1D5574
:1039200003E013071C0E074B1C5400BF00204FF090
:10393000E02290610720106100BF70BD00000020F0
:1039400018ED00E000E400E070B5044600F00CF96A
:10395000054600BF00F008F9401B04EB4401C1EB31
:10396000C411B0EBC10FF5D370BD0A2000BF011E1A
:10397000A0F10100FBD1704758B90D49096821F049
:1039800070410B4A11601146096841F040511160C5
:103990000CE001280AD10649096821F07041044A67
:1039A00011601146096841F0004111607047000044
:1039B000000C014000B500230120FFF7DDFF0120CE
:1039C0000D490860FFF7D1FF06E05B1CFA2B03D915
:1039D00000F064F8012000BD07487C380068012829
:1039E000F3D0002004490860FFF7BFFF0020FFF775
:1039F000C3FF0020EFE700009881214230B500248A
:103A0000002016490860FFF7B0FF01201449C1F8F3
:103A10009C01FFF7B1FF002316E0FFF7A6FF01208E
:103A20000E490860FFF7A1FF0D48D0F81C010128DE
:103A300001D1012500E0002545EA4400C4B2002080
:103A400006490860581CC3B2082BE6DB0020FFF7CC
:103A500093FFFFF78AFF204630BD00009881214286
:103A60000080214200B501200A490860FFF77DFF70
:103A700001200949C1F89801FFF777FF00200549A7
:103A80000860FFF772FF00200349C1F89801FFF7B3
:103A90006CFF00BD9C8121420080214200B50020C6
:103AA0000A490860FFF761FF00200949C1F89C013D
:103AB000FFF75BFF012005490860FFF756FF012073
:103AC0000349C1F89C01FFF750FF00BD98812142D6
:103AD0000080214270B503461D4600241CE005F01D
:103AE00080066806050E002012490860FFF73DFFBA
:103AF000802E04D101200F49091D086003E0002039
:103B00000C49091D0860FFF730FF012009490860D2
:103B1000FFF72BFF601CC4B2082CE0DB0020054936
:103B20000860FFF722FF01200349C1F89C01FFF75D
:103B30001CFF70BD9881214200802142FDF758FE94
:103B40000CE00748008848B10648FEF7A1FB10B911
:103B50000448FEF76DFA002001490880F1E70000F3
:103B6000420000204401002000BF0E4801684FF0D1
:103B7000E02082690B4800688142F6D10A4800685B
:103B800000EB4003C3EBC010C2EBC000064B1B6848
:103B9000B0FBF3F001EB4103C3EBC11300EBC30037
:103BA00070470000180000201400002000B54FF0FE
:103BB0007E512F48C165002101664FF08241416668
:103BC0002C482B490862002048622B4888624FF03D
:103BD0007E512748C0F8D4100021C0F8D8104FF00B
:103BE0008241C0F8DC102349C0F898100021C0F8C9
:103BF0009C102149C0F8A0102049C0F84C110021A8
:103C0000C0F85011C0F85411C0F81011C0F81411C8
:103C1000C0F8181100201A490862486288621449E5
:103C2000C86300211248C0F8B410C0F82C1100205D
:103C30000F4908608867C1F8F00012490C48816597
:103C4000C0F8D010C0F848110F480949C8610146B2
:103C50000748C0F89410C0F80C110C480849C86116
:103C60000B490348C0F80C11FFF71AFE00BD000015
:103C7000CC020020CDCCCC3D9A99993E0000C040AA
:103C800044040020000020410000A0400000C84281
:103C90000000F0410F4800880F49098808440D4989
:103CA00008800E480078401C0C49087008460078CF
:103CB0000A280DD1074800880A2190FBF1F0054938
:103CC00008800846008806490860012005490870F8
:103CD000704700001A010020100100201901002087
:103CE00014010020180100202DE9F04106460F467E
:103CF00000F0FEFB041E0D4618BF0120284320F0F3
:103D00000040C0F17F6000F1E040C00F0ED0301CD9
:103D100018BF0120384320F00040C0F17F6000F15F
:103D2000E040C00F04BF0120FCF778FA2046294686
:103D3000BDE8F08110B586B0044601210820FEF7E9
:103D40007FFB01218804FEF76BFB4FF48060ADF828
:103D5000140003208DF8160018208DF8170005A90F
:103D60001C48FDF75AFA4FF40060ADF81400042027
:103D70008DF8170005A91748FDF74FFA27208DF891
:103D8000000003208DF801008DF8020001208DF85D
:103D900003006846FEF7D0FA01940020ADF8080051
:103DA000ADF80A00ADF80C00ADF810000C20ADF82D
:103DB0000E0001A90848FFF741F9012240F2255100
:103DC0000548FFF715F901210348FFF7DBF806B0B6
:103DD00010BD0000000C01400048004021F00042EE
:103DE000A2F16052B2F5801F01F0004328BFD2F16A
:103DF0007F6C0BD95FEA001C43EAC20242EB5070B1
:103E000018BF704728BF20F001007047B2F5801F2F
:103E1000BCBF184670474FEA410C1CF5001F02D288
:103E2000084600F0F4BF70B500F002FB0000008906
:103E3000FFF7F6BF4FF00040A0F58000704700008C
:103E400010B591EA030F48BF83F0004300F13E84B0
:103E5000841A71EB030C05D2121943EB0C03001BFF
:103E600061EB0C01DFF824E14FEA1154A4EB135C81
:103E70001EEA430F18BF9EEA445F73D023EA0E0385
:103E8000DCF1200E21EA045143F4801332D322FAEC
:103E90000CFE10EB0E0023FA0CFE41EB0E01CCF1F0
:103EA000200E03FA0EFE10EB0E0051F10001B1F5E9
:103EB000801FCCF1200E32D201EB045112FA0EF227
:103EC000BDE8104058BF7047401C38BF5FEA42024F
:103ED00018BF7047002814BF20F0010041F1000115
:103EE0004FEA410313F5001F38BF7047A1F1C041ED
:103EF00000F0ECBA012A43EB0302ACF1200CDCF138
:103F00001F0E32BF4FF0000E23FA0CF310EB03002C
:103F100041EB0451B4EB115FD0D0A1EB045101F59A
:103F2000801149085FEA300001EB04510ED350F1D3
:103F3000000038BF12FA0EFE08D1BDE81040C9E7F4
:103F4000401C38BF5FEA4202CAD1C3E7BDE8104057
:103F50004FEA410313F5001F38BF7047A1F1C0417C
:103F600000F0B4BA9EEA445F08D011EA5E0FBDE8E3
:103F7000104004BF01F0004100207047BDE8104030
:103F800070B500F055FA00BF64FBBE3E0000E0FFD4
:103F900002494FF0000000F0F0BF00BF0000F87FC2
:103FA0002DE9C04130B4DFF8A0C23CEA111418BFBB
:103FB0003CEA131400F0EC8081EA03051CEA1114BA
:103FC00044EAD57418BF1CEA131500F0C780A4EBAF
:103FD00005044FF0004545EAC12145EAC32341EA03
:103FE000505143EA525304F17F74994204F500346E
:103FF0004FEAC0204FEAC22208BF904200F09C80E6
:104000004FEA13650FF24016765D4FEA134506FB43
:1040100005F7C7F1807706FB07F74FEAD737A7FB0D
:1040200003687642C8F58038A7FB06CE38BFA8F1F2
:10403000010807FB08E64FF0000EA6FB028CE6FB2A
:1040400003CEDCF1000CCEF1004E38BFAEF1010E14
:10405000A6FB0C584FF000074FF00005E6FB0E875B
:10406000A1FB08C6A0FB07CE16EB0E0645F1000526
:10407000E1FB076515F1E04E7EBFA4F580345FEAF1
:1040800046066D4116F1800745F100054FEA1727F6
:104090004FEA066647EA0567A6F1DE46B6F1805F9D
:1040A0004FEA15251FD9384624F0010C05EBC471E1
:1040B000BCF1FE6F01EB0C1102D8F0BCBDE8008131
:1040C00024425CBF01F5801E9EEAC47F02D4F0BC8E
:1040D000BDE80081244238D4F0BCA1F1C041BDE864
:1040E000004100F0F3B94FEAD22242EA43524FEACC
:1040F000D323A7FB02864FEAD02040EA415007FBBA
:1041000003661EEA0E0F4FEAD12105FB026658BF77
:10411000A6EB0056B6EB00564FEA520E4EEAC37EAF
:1041200018EB0E0E56EB530EBDD518EB02085E4190
:104130007F1C55F10005B6E74FF480154FF00007DE
:104140004FF000064FF00008ADE7F0BC4FF0000064
:1041500001F1C04101F00041BDE8008111EA0C1FEE
:104160000CEA131500D00CE013EA0C1F00F02580B8
:104170004FF00000F0BC81EA030101F00041BDE80E
:104180000081F0BCBDE8004181EA030100F09EB966
:10419000F0BCBDE8004170B500F04AF9097EFC3E74
:1041A00000F007B881EA03014FF0000001F0004180
:1041B000704781EA030100F089B9F0BCBDE8004115
:1041C0004FF0000021497047FFFDFBF9F7F5F4F2CD
:1041D000F0EEEDEBE9E8E6E4E3E1E0DEDDDBDAD8A2
:1041E000D7D5D4D3D1D0CFCDCCCBCAC8C7C6C5C400
:1041F000C2C1C0BFBEBDBCBBBAB9B8B7B6B5B4B317
:10420000B2B1B0AFAEADACABAAA9A8A8A7A6A5A401
:10421000A3A3A2A1A09F9F9E9D9C9C9B9A999998C5
:104220009797969595949393929191908F8F8E8E68
:104230008D8C8C8B8B8A89898888878786858584F5
:1042400084838382828181800000FF070000F87FE1
:104250004FEA41034FEA5353A3F58063D3F11E03A2
:10426000C8BFD3F1210C0CDD4FF0004242EAC1225D
:1042700042EA505232FA03FC8CEAE17CACEBE1708A
:104280007047102BC4BF0020704703F5787CBCF149
:10429000FF3F04D06FF0004282EA2100704770B502
:1042A00000F0C6F84992248000207047F2E710F031
:1042B000004248BF4042B0FA80F310FA03F10AD03E
:1042C000C3F11D0303F580634FEA415002EB035233
:1042D00002EBD12170474FF000007047DFF848C172
:1042E00070B51CEA111E1EBF1CEA13159EEA0C0FC6
:1042F00095EA0C0F00F06F8081EA030423EA4C1367
:104300004EEAD47E21EA4C1141F4801143F480132B
:10431000AE44A1FB024CA0FB0365AEF17F7E3619D3
:1043200055EB0C05A1FB034C4CF10003A0FB021C58
:1043300016EB0C06654153F10003094218BF46F025
:10434000010613F4007F0BD14FEA03314FEA053029
:10435000340341EA155140EA16506FF003020AE0B7
:104360004FEAC3214FEAC520F40241EA555140EA21
:1043700056506FF0020202EB2E4201EB025585EA25
:10438000CE710AD05FEA440C18BF24F0004450F10B
:10439000000041F1000120EAD47040F2FE7C624549
:1043A00000D270BDA84214BF4FF080444FF040448B
:1043B000002E08BF0024BEF1806FA8BFA1F1C0414C
:1043C000BDE8704080F282804FF0000001F1C041F2
:1043D00001F0004170479EEA0C0F0CEA131518BF5C
:1043E00095EA0C0F06D04FF0000081EA030E0EF0A4
:1043F000004170BD00F01CF88900013E00F007B8D4
:1044000000F009B84FEA430C5FEA5C5C08D081EA2F
:10441000030100F05BB84FEA410C5FEA5C5CF6D147
:104420004FF00000014970470000FF070000F87FCF
:104430000EF1020E2EF0030E5EF8046B364205D428
:10444000012A43EB030515F5001F12D8012841EBA3
:10445000010C1CF5001F0CD80ED14FEAD17C15F5CC
:10446000001F0CEB4C0C0CF1020C08BF4CEBD37C86
:1044700004E04FF0080C01E04FEAD37C0CEB4C0554
:1044800026FA05F606F00706B6F1040C06D20EEB86
:10449000860CBDE870404CF0010C6047DFE80CF082
:1044A000090B02024FF000414FF00000A1F500217E
:1044B00070BD19461046012851EB010418BFD4F510
:1044C000001484BF002001F0004170BD0808A0F571
:1044D00000114FEA3101704791EA030F10B581F0E6
:1044E00000413FF5B5AC83F0004300F0EFB80000A9
:1044F0002DE9F04101F5801CBCF5001FC0F2C3801E
:104500004FEA115C21EA0C510CF1FD0C41F48011D1
:104510005FEA5C0C0CF5C07C01D3400049413DA42E
:10452000890241EA905187028E0E0A0CA45D04FBB9
:1045300004F602FB06F6C6F14046A4FB0662F60D41
:1045400046EA422606FB06F4A4FB01235242C3F1CD
:10455000404338BF5B1EA6FB02420024E6FB032457
:10456000D20B42EA4446A6FB0623A1FB02E2A3FBD0
:1045700007E4A4184FF0000252F10002E3FB0142ED
:104580006442C2F1404E38BFAEF1010EA6FB0423D7
:104590004FF00002E6FB0E32A2FB03464FF0000490
:1045A000B61954F10004E2FB0264A1FB06E6A4FB89
:1045B00007E816EB08064FF0000858F10008E4FB86
:1045C00001687642C8F1405838BFA8F10108A2FB43
:1045D00006E4A3FB08E52D194FF0000454F1000494
:1045E000E2FB0854A1FB05E6A7FB04E818EB06086C
:1045F0004FF0000656F10006E1FB048618F1200595
:1046000056F10006A809A8F11B08B10908F03F08F7
:10461000B8F10A0F40EA86601CD901EB0C51BDE8E5
:10462000F08100BFFCF5EEE8E2DDD8D3CFCBC7C305
:10463000C0BDB9B6B4B1AEACA9A7A5A3A19F9D9BBF
:104640009A9896959392908F8D8C8B898887868582
:1046500084838281A0FB006800FB01F208EB420822
:10466000B8EB872807D5341858EB0104D5D5401C82
:1046700051F10001D1E7341A78EB0104CDD4401E8A
:1046800071F10001C9E75FEA4C0C5FEA9C5C0DD157
:1046900005D34FF0000001F00041BDE8F081BDE816
:1046A000F04170B5FFF7C4FE6DDBFFBEBDE8F04121
:1046B0004FF00000004970470000F87F10B591EA04
:1046C000030F48BF83F000433FF5C2AB841A71EB80
:1046D000030C07D212198CF0004C43EB0C03001BA7
:1046E00061EB0C01DFF8A4E14FEA1154A4EB135C79
:1046F0001EEA430F18BF9EEA445F00F0B08023EA31
:104700006E03524221EA0451C3EB6E0338BF5B1EB5
:10471000DCF1200E25D322FA0CFE10EB0E0043FA3A
:104720000CFE41EB0E01CCF1200E03FA0EFE10EB55
:104730000E0051F10001CCF1200E29D412FA0EF234
:1047400001EB0451BDE8104058BF7047401C1CBF2E
:10475000B2F1004F704700280CBF491C20F0010047
:10476000704712EB020E43EB030218BF4FF0010E2D
:104770004EEA4202ACF1200CDCF11E0E54D943FA91
:104780000CFE10EB0E0051F1FF31CCF11E0ED5D511
:104790000EF1010E12FA0EFE404141EB010101EB58
:1047A000445C5FEA5C5C10D910EBDE7001EB0451F5
:1047B00038BFBEF1004FBDE8104018BF7047002859
:1047C0000CBF491C20F00100704730D24FEAD42CB6
:1047D00011F5001124F400641BD0B1FA81F20B3AF8
:1047E000A41AA41ED2F12003914030FA03F3194316
:1047F000904001EBCC71002C01EB0451BDE810405E
:10480000A8BF704701F1C0414FF0000001F0004126
:104810007047B0FA80F310FA03F100D110BDE41A2A
:10482000173C4805C90AE4E701EB045110BD4910E3
:1048300001EB0451BDE810404FEA300002E04FF0B8
:10484000000170474A0008BF0042F8D0B2F5001FCF
:1048500028BF704701F000414FF0000070479EEA0A
:10486000445F07D011EA5E0FBDE8104004BF00218D
:1048700000207047BDE8104070B5FFF7D9FD00BFBC
:1048800040DFF63E83F00041104670470000E0FF35
:1048900043004FEAD30C4FEA3C0C43401FBF400794
:1048A0000CF1605113F0FE4F70471CF0006F03D104
:1048B00000200CF0004170470CF0004343EA5070B8
:1048C00010B540EACC0000F05CFA00BF0000009296
:1048D0004FEA0001FFF7FABD4FF000414FF0000032
:1048E000A1F500217047000090EA010F48BF81F058
:1048F000004100F1D482421A3CBF801A89184FEA65
:10490000D0524FF07F4C1CEA410FA2EBD15318BF9D
:104910009CEA026F00F03B804FF0004C4CEA002014
:104920004CEA012121FA03FC10EB0C0C1ED202F11F
:10493000FF325FEA1C2040EBC25038BF70471CF0CA
:104940007F0F4FEA400C18BFBCF17F4F38BF704754
:10495000C3F12003994008BF20F00100BCF17F4F54
:1049600038BF7047A0F1C04000F051BA4FEA3C0098
:10497000000A40EBC25028BF1CF0FF0F4FEA400C6A
:10498000E6D018BFBCF17F4F38BF7047EAE79CEA1A
:10499000026F05D010EA5C0F08BF00F000407047BE
:1049A00010B500F0EEF900BF64FBBE3E401058BFEA
:1049B000C0F14040491058BFC1F140418142EFF37E
:1049C000008070474FF47F0C1CEAD0121EBF1CEA17
:1049D000D11392EA0C0F93EA0C0F00F0858090EA55
:1049E000010F48BF42F4807240F4000C41F4000013
:1049F0002CF07F4120F07F4000B58142A2EB030202
:104A00000FF2081CACEB504EC0F100009EF800E025
:104A10004FEA4E0E00FB0EFC38BF49004FEA2C1C3B
:104A200002F5FA020CFB0EF34FEACE1E4FEA112CF0
:104A30004FEAC1210EEB635E42EB22420EFB0CFCFF
:104A40004FEA1C5300FB03114FEA112C4FEA0131CE
:104A50000EFB0CFC4FEADC4C00FB0C11C14228BFE2
:104A600009184CEB03335DF804EB10EB410143EB09
:104A7000C250B2F57C0F38BF704729D512F0F00F45
:104A80001CBF00F1C04000F00040704700818283ED
:104A90008485868788898B8C8D8E8F91929395964D
:104AA00097999A9C9D9FA0A2A3A5A7A8AAACAEB0D7
:104AB000B2B3B5B7B9BCBEC0C2C5C7C9CCCED1D4DC
:104AC000D7D9DCDFE2E6E9ECF0F3F7FAFE0000000C
:104AD0004FEA400C0CF1807CBCF17E4F28BF704740
:104AE000B0F1C04000F093B990EA010F0CEAD11385
:104AF00048BF42F48072624538BF634507D213F461
:104B00007F0F16D080EA010000F00040704710B51A
:104B100000F037F9097EFC3E00F005B880EA01009C
:104B200000F00040704780EA010000F0004000F013
:104B30006EB912F47F0F04BF0248704780EA01008B
:104B400000F065B90000C07F50EA010C00F113804D
:104B50001CF5000F58BFBCF5000F01D48842704708
:104B600007D710F5000F58BF11F5000F15D4884274
:104B70007047894270471CF5000F04D5BCF5000F43
:104B8000F7D5814270474FF0807C1CEB400F38BF57
:104B90001CEB410F01D28142704710B500F0F1F8D3
:104BA000922449004FF000504FF08051FFF7FEBEB5
:104BB00041000B0ED3F19E0208D950F400034FEAD6
:104BC000032323FA02F048BF4042704710B500F0BB
:104BD000D8F800BF49922480002070476FF000424F
:104BE00082EA20007047000010F0004148BF4042B8
:104BF000B0FA80F310FA03F2C3F19D030BD051EA2F
:104C0000C35101EB1220530638BF704700F1010079
:104C100008BF20F00100704750EA010C00F113803A
:104C20001CF5000F58BFBCF5000F01D48842704737
:104C300007D710F5000F58BF11F5000F15D48842A3
:104C40007047894270471CF5000F04D5BCF5000F72
:104C5000F7D5814270474FF0807C1CEB400F38BF86
:104C60001CEB410F01D28142704710B500F089F86A
:104C7000922449004FF000504FF08051FFF796BE4C
:104C80004FF47F0C1CEAD0121EBF1CEAD11392EA2B
:104C90000C0F93EA0C0F00F0478090EA010F48BF19
:104CA00042F480724FF0004C4CEA00204CEA0121A3
:104CB00002EB0302A0FB0113A2F50002002918BFBA
:104CC00043F001035B0028BF4FEA330342EB22426B
:104CD0005FEA132C4CEBC2502EBFBCEB436FB2F516
:104CE0007C0F70474FEA036CBCF1004F08BF20F007
:104CF0000100B2F57C0F38BF70470BD582F0FF0280
:104D000012F5803FC8BF704700F1C040D8BF00F027
:104D10000040704700F5000C5FEA4C0C48BF70473C
:104D2000B0F1C04000F073B890EA010F0CEAD11363
:104D300048BF42F48072624538BF634504D280EABE
:104D4000010000F00040704710B500F01AF800BFF5
:104D50008900013E00F007B800F009B85FEA410C95
:104D60005FEA1C6C08D080EA010000F050B85FEAEE
:104D7000400C5FEA1C6CF6D14FF00040A0F58000BB
:104D800070470EF1020E2EF0030E5EF8044B244223
:104D900004D44FEA4102B2F17F4F11D84FEA4003E9
:104DA000B3F17F4F0CD80ED14FEAD07CB2F17F4FD8
:104DB0000CEB4C0C0CF1020C08BF4CEBD17C04E06A
:104DC0004FF0080C01E04FEAD17C0CEB4C0324FAC5
:104DD00003F404F00704B4F1040C06D20EEB840CC7
:104DE000BDE810404CF0010C6047DFE80CF007080C
:104DF00002024FF00040A0F5800010BD08464200BE
:104E000018BFD2F1807288BF00F0004010BDFF21B2
:104E100041EAD050C005704751EA000C00F1138000
:104E20001CF5000F58BFBCF5000F01D4814270473C
:104E300007D711F5000F58BF10F5000F15D48142A8
:104E40007047894270471CF5000F04D5BCF5000F70
:104E5000F7D5884270474FF0807C1CEB410F38BF7C
:104E60001CEB400F01D28842704780EA010081EAC2
:104E7000000180EA0100FFF7F8BE80F0004090EAF0
:104E8000010F7FF538AD81F0004100F008B8000057
:104E900090EA010F48BF81F000413FF52CAD421A66
:104EA00004D882F00042A0EB020011444FEAD05235
:104EB0004FF07F4C1CEA410FA2EBD15318BF9CEA84
:104EC000026F4AD04FF0004C4CEA00204CEA01211E
:104ED00021FA03FCB0EB0C0C0FD412F0FE0F36D00D
:104EE0005FEA4C001DD5001240EBC25038BF70473E
:104EF0001CF03F0F18BF70470BE0A2F101025FEA00
:104F00001C2040EBC25038BF70471CF07F0F18BF09
:104F10007047C3F12003994014BF401E20F00100E8
:104F2000704780084FEA122308BF7047B0FA80FC30
:104F3000A2EB0C02CCF1280C60FA0CF093EA122FD1
:104F400004BF00EBC25070474FEAC3707047130AAA
:104F50005FEADC1008BF7047F6E79CEA026F04D0F6
:104F600010EA5C0F08BF0020704710B5FFF709FF7B
:104F700040DFF63E81F0004070470CF00F03092B34
:104F800008BF082000F059800A2B0BD0082B18BF4F
:104F9000704708BF1CF0400F0AD04FF000004FF0E0
:104FA000000170471CF0400F18BF4FF000407047E1
:104FB0001CF0100F08D020F0704300F07F4242EA4E
:104FC000D3014FEA4370704700F0604021F07F4208
:104FD00042EA000201F07F4040EA727070474FF0F1
:104FE000FF0C4CF4E06C1CEA11531CBF9CEA030C50
:104FF0009445C2BFDA4201EB02517047002B0DD03D
:10500000BCF1000F0FD0002A01F00041A4BF41F015
:10501000E04141F07F614FF00000704701F0004136
:105020004FF00000704750EA01334FF09B0C18BF5F
:105030004CF0806C7EF4ACAF70471CF4801F11D034
:105040001CF4E02F03D06FEACC31490070474FF0D9
:105050004050EFF3008222F0704242EA000282F3F5
:10506000008870474FF00000704711431010011185
:105070004310100100000000555555555555C53FCA
:105080007D6FEB0312D6D4BF5544880E55C1C93F7E
:105090003B8F68B52882A4BF88B20175E0EF493F15
:1050A00009F7FD0DE13D023F4B2D8A1C273A03C055
:1050B000C88A599CE52A004059018D1B6C06E6BF41
:1050C00082922EB1C5B8B33F4FBB610567ACDD3FDF
:1050D000182D4454FB21E93F9BF681D20B73EF3F1F
:1050E000182D4454FB21F93FE2652F227F2B7A3C97
:1050F000075C143326A6813CBDCBF07A8807703C50
:10510000075C143326A6913CC4EB98999999C9BFC2
:10511000711623FEC671BCBF6D9A74AFF2B0B3BFF7
:105120009AFDDE522DDEADBF2F6C6A2C44B4A2BFB7
:105130000D5555555555D53FFF8300922449C23F23
:105140006E204CC5CD45B73F513DD0A0660DB13F57
:10515000EB0D76244B7BA93F11DA22E33AAD903F69
:10516000000000000000000088510008000000203E
:105170004401000028010008C45100084401002037
:105180009C090000840100081184A24A04C009019E
:1051900002030406070809291469180543020406D6
:1051A00008A640F850CF40E3803F091210E91401EF
:1051B000320009183333333FCDCC4C3D0538D994F8
:0451C0001CC100000E
:04000005080000ED02
:00000001FF
